:040000002AEF1EF0D5
:10080000002150726573696F6E617220626F746F40
:100810006E200021486173207065726469646F21E5
:1008200020002569000042EF0CF0000ED96F000E89
:10083000D86F87BF27EF04F0875107E10F0E865D61
:10084000D8B025EF04F027EF04F027EF08F0E0BF61
:100850002CEF04F02EEF04F027EF08F08E51D8A40F
:1008600034EF04F036EF04F027EF08F0D8C001F0C1
:10087000D9C002F0000E046E0C0E036E6CEC1FF07B
:10088000F80E0124D96E050E0220DA6EDECF07F0D5
:10089000DECF08F0DECF09F0DECF0AF0000E0B6EDF
:1008A000000E0C6E800E0D6E3F0E0E6E22EC1DF0D3
:1008B000D8A05DEF04F05FEF04F023EF06F0000E28
:1008C000146E010E136E000E166E0C0E156E54ECA7
:1008D0001FF0AF0E586E000E596E220E5A6E080EA3
:1008E0005B6E8CC05CF08DC05DF083EC1EF0AF0ED3
:1008F000026E000E036EC6EC1DF0E1C013F0E2C004
:1009000014F0000E0A6E000E096EC8EC1CF009C04F
:1009100015F00AC016F054EC1FF0000E57EC1EF054
:10092000000E146E010E136EDFC015F0E0C016F05D
:1009300054EC1FF0010E57EC1EF0000E0A6E000E74
:10094000096EC8EC1CF00001DF51091807E1E05105
:100950000A18D8A4AEEF04F0B0EF04F0B6EF04F03C
:10096000E3518C5D8C6FE4518D598D6F000E046ED8
:100970000C0E036ED8C001F0D9C002F06CEC1FF071
:10098000F00E0124D96E050E0220DA6EDECF13F0D0
:10099000DECF14F0DECF15F0DECF16F08AC001F006
:1009A0008BC002F0000E02BEFF0E036E046E010E3D
:1009B000E4EC15F001C00FF002C010F003C011F01C
:1009C00004C012F0AFEC0EF00FC051F010C052F0A6
:1009D00011C053F012C054F0CAEC19F051C0D4F059
:1009E00052C0D5F0D4C0C6F0D5C0C7F0D8C001F011
:1009F000D9C002F0000E046E0C0E036E6CEC1FF0FA
:100A0000F40E0124D96E050E0220DA6EDECFC8F096
:100A1000DECFC9F0DECFCAF0DECFCBF0BEEC16F0F1
:100A2000000E2C6E000E2D6E7A0E2E6E440E2F6E62
:100A3000000E046E0C0E036ED8C001F0D9C002F097
:100A40006CEC1FF0F00E0124D96E050E0220DA6E58
:100A5000DECF13F0DECF14F0DECF15F0DECF16F0D0
:100A60008AC001F08BC002F0000E02BEFF0E036EC2
:100A7000046E010EE4EC15F001C00FF002C010F09E
:100A800003C011F004C012F0AFEC0EF00FC028F05C
:100A900010C029F011C02AF012C02BF0C4EC10F0E5
:100AA00028C041F029C042F02AC043F02BC044F0D6
:100AB00074C045F075C046F076C047F077C048F086
:100AC0004FEC0CF041C074F042C075F043C076F0BA
:100AD00044C077F0000E2C6E000E2D6E7A0E2E6E36
:100AE000440E2F6E000E046E0C0E036ED8C001F083
:100AF000D9C002F06CEC1FF0F00E0124D96E050E87
:100B00000220DA6EDECF13F0DECF14F0DECF15F068
:100B1000DECF16F08AC001F08BC002F0000E02BEDC
:100B2000FF0E036E046E010EE4EC15F001C00FF031
:100B300002C010F003C011F004C012F0AFEC0EF0D0
:100B40000FC028F010C029F011C02AF012C02BF0FD
:100B5000C4EC10F028C045F029C046F02AC047F088
:100B60002BC048F088C001F089C002F0000E02BE20
:100B7000FF0E036E046E010EE4EC15F001C041F0AF
:100B800002C042F003C043F004C044F04FEC0CF04C
:100B900041C051F042C052F043C053F044C054F041
:100BA000CAEC19F051C088F052C089F0000189BF29
:100BB000E2EF05F0895108E18805D8A0E2EF05F0E1
:100BC000E4EF05F0EEEF05F0E3518C258C6FE45176
:100BD0008D218D6F000E896F000E886F74C001F03B
:100BE00075C002F076C003F077C004F0000E056E09
:100BF000000E066E700E076E410E086E4DEC1AF078
:100C0000D8A005EF06F007EF06F00EEF08F00001A0
:100C1000E34BE42B8AC001F08BC002F0E3C003F089
:100C2000E4C004F009EC1CF001C08AF002C08BF0B3
:100C3000000E0001746F000E756F000E766F000ECF
:100C4000776F0EEF08F0D8C001F0D9C002F0000EA7
:100C5000046E0C0E036E6CEC1FF0F80E0124D96EBE
:100C6000050E0220DA6EDECF07F0DECF08F0DECF11
:100C700009F0DECF0AF0000E0B6E000E0C6E000EB7
:100C80000D6E000E0E6E22EC1DF0D8A04AEF06F09D
:100C90004CEF06F00EEF08F0000E146E010E136E0E
:100CA000000E166E0C0E156E54EC1FF0AF0E586E43
:100CB000000E596E220E5A6E080E5B6E8CC05CF0F0
:100CC0008DC05DF083EC1EF0AF0E026E000E036E61
:100CD000C6EC1DF0E1C013F0E2C014F0000E0A6E85
:100CE000000E096EC8EC1CF009C015F00AC016F021
:100CF00054EC1FF0000E57EC1EF0000E146E010EA7
:100D0000136EDFC015F0E0C016F054EC1FF0010EBA
:100D100057EC1EF0000E0A6E000E096EC8EC1CF0B7
:100D20000001DF51091807E1E0510A18D8A49BEF30
:100D300006F09DEF06F0A3EF06F0E3518C5D8C6F9B
:100D4000E4518D598D6F000E046E0C0E036ED8C0E9
:100D500001F0D9C002F06CEC1FF0F00E0124D96E46
:100D6000050E0220DA6EDECF13F0DECF14F0DECFF8
:100D700015F0DECF16F08AC001F08BC002F0000E35
:100D800002BEFF0E036E046E010EE4EC15F001C00E
:100D90000FF002C010F003C011F004C012F0AFEC6D
:100DA0000EF00FC051F010C052F011C053F012C03D
:100DB00054F0CAEC19F051C0D6F052C0D7F0D6C0EA
:100DC000C6F0D7C0C7F0D8C001F0D9C002F0000EFD
:100DD000046E0C0E036E6CEC1FF0F40E0124D96E41
:100DE000050E0220DA6EDECFC8F0DECFC9F0DECF0E
:100DF000CAF0DECFCBF089EC17F0000E2C6E000E9F
:100E00002D6E7A0E2E6E440E2F6E000E046E0C0E9A
:100E1000036ED8C001F0D9C002F06CEC1FF0F00EE8
:100E20000124D96E050E0220DA6EDECF13F0DECF7C
:100E300014F0DECF15F0DECF16F08AC001F08BC0C3
:100E400002F0000E02BEFF0E036E046E010EE4EC13
:100E500015F001C00FF002C010F003C011F004C083
:100E600012F0AFEC0EF00FC028F010C029F011C046
:100E70002AF012C02BF0C4EC10F028C041F029C0B9
:100E800042F02AC043F02BC044F074C045F075C056
:100E900046F076C047F077C048F04FEC0CF041C008
:100EA00074F042C075F043C076F044C077F0000E95
:100EB0002C6E000E2D6E7A0E2E6E440E2F6E000ECE
:100EC000046E0C0E036ED8C001F0D9C002F06CECB9
:100ED0001FF0F00E0124D96E050E0220DA6EDECF6F
:100EE00013F0DECF14F0DECF15F0DECF16F08AC09F
:100EF00001F08BC002F0000E02BEFF0E036E046E06
:100F0000010EE4EC15F001C00FF002C010F003C0B8
:100F100011F004C012F0AFEC0EF00FC028F010C0BA
:100F200029F011C02AF012C02BF0C4EC10F028C038
:100F300045F029C046F02AC047F02BC048F088C0D1
:100F400001F089C002F0000E02BEFF0E036E046EB7
:100F5000010EE4EC15F001C041F002C042F003C004
:100F600043F004C044F04FEC0CF041C051F042C0DB
:100F700052F043C053F044C054F0CAEC19F051C0D1
:100F800088F052C089F0000189BFCFEF07F0895186
:100F900008E18805D8A0CFEF07F0D1EF07F0DBEF2D
:100FA00007F0E3518C258C6FE4518D218D6F000E7D
:100FB000896F000E886F74C001F075C002F076C0B2
:100FC00003F077C004F0000E056E000E066E700E82
:100FD000076E410E086E4DEC1AF0D8A0F2EF07F044
:100FE000F4EF07F00EEF08F00001E34BE42B8AC0AA
:100FF00001F08BC002F0E3C003F0E4C004F009ECA0
:101000001CF001C08AF002C08BF0000E0001746F6A
:10101000000E756F000E766F000E776F010EACEC50
:101020001EF00001864B872BDF07D8A0E007000EDB
:101030008E6F0E0E86198711D8A421EF08F023EFCA
:1010400008F032EF0CF0010E8E6F32EF0CF087BF1C
:101050002CEF08F02EEF08F032EF0CF0E0BF3CEF81
:1010600008F0E05107E10F0EDF5DD8B03AEF08F06D
:101070003CEF08F032EF0CF08E05D8A442EF08F0F8
:1010800044EF08F032EF0CF0D8C001F0D9C002F004
:10109000000E046E0C0E036E6CEC1FF0F80E0124B3
:1010A000D96E050E0220DA6EDECF07F0DECF08F033
:1010B000DECF09F0DECF0AF0000E0B6E000E0C6ED4
:1010C000800E0D6E3F0E0E6E22EC1DF0D8A06BEF61
:1010D00008F06DEF08F031EF0AF0000E146E010E0B
:1010E000136E000E166E0C0E156E54EC1FF0AF0E44
:1010F000586E000E596E220E5A6E080E5B6E8CC032
:101100005CF08DC05DF083EC1EF0AF0E026E000E41
:10111000036EC6EC1DF0E1C013F0E2C014F0000E47
:101120000A6E000E096EC8EC1CF009C015F00AC06A
:1011300016F054EC1FF0000E57EC1EF0000E146E6B
:10114000010E136EDFC015F0E0C016F054EC1FF076
:10115000020E57EC1EF0000E0A6E000E096EC8EC6F
:101160001CF00001DF51091807E1E0510A18D8A46A
:10117000BCEF08F0BEEF08F0C4EF08F0E3518C5D5F
:101180008C6FE4518D598D6F000E046E0C0E036E42
:10119000D8C001F0D9C002F06CEC1FF0F00E0124B1
:1011A000D96E050E0220DA6EDECF13F0DECF14F01A
:1011B000DECF15F0DECF16F08AC001F08BC002F052
:1011C000000E02BEFF0E036E046E010EE4EC15F07D
:1011D00001C00FF002C010F003C011F004C012F003
:1011E000AFEC0EF00FC051F010C052F011C053F030
:1011F00012C054F0CAEC19F051C0D4F052C0D5F06E
:10120000D4C0C6F0D5C0C7F0D8C001F0D9C002F034
:10121000000E046E0C0E036E6CEC1FF0F40E012435
:10122000D96E050E0220DA6EDECFC8F0DECFC9F02F
:10123000DECFCAF0DECFCBF0BEEC16F0000E2C6E87
:10124000000E2D6E7A0E2E6E440E2F6E000E046E62
:101250000C0E036ED8C001F0D9C002F06CEC1FF088
:10126000F00E0124D96E050E0220DA6EDECF13F0E7
:10127000DECF14F0DECF15F0DECF16F08AC001F01D
:101280008BC002F0000E02BEFF0E036E046E010E54
:10129000E4EC15F001C00FF002C010F003C011F033
:1012A00004C012F0AFEC0EF00FC028F010C029F00F
:1012B00011C02AF012C02BF0C4EC10F028C041F08D
:1012C00029C042F02AC043F02BC044F074C045F05E
:1012D00075C046F076C047F077C048F04FEC0CF090
:1012E00041C074F042C075F043C076F044C077F05E
:1012F000000E2C6E000E2D6E7A0E2E6E440E2F6E8A
:10130000000E046E0C0E036ED8C001F0D9C002F0BE
:101310006CEC1FF0F00E0124D96E050E0220DA6E7F
:10132000DECF13F0DECF14F0DECF15F0DECF16F0F7
:101330008AC001F08BC002F0000E02BEFF0E036EE9
:10134000046E010EE4EC15F001C00FF002C010F0C5
:1013500003C011F004C012F0AFEC0EF00FC028F083
:1013600010C029F011C02AF012C02BF0C4EC10F00C
:1013700028C045F029C046F02AC047F02BC048F0ED
:1013800088C001F089C002F0000E02BEFF0E036E9D
:10139000046E010EE4EC15F001C041F002C042F011
:1013A00003C043F004C044F04FEC0CF041C051F0D6
:1013B00042C052F043C053F044C054F0CAEC19F09C
:1013C00051C088F052C089F0000189BFF0EF09F0E8
:1013D000895108E18805D8A0F0EF09F0F2EF09F093
:1013E000FCEF09F0E3518C258C6FE4518D218D6F5A
:1013F000000E896F000E886F74C001F075C002F096
:1014000076C003F077C004F0000E056E000E066E85
:10141000700E076E410E086E4DEC1AF0D8A013EF57
:101420000AF015EF0AF01CEF0CF00001E34BE42B7F
:101430008AC001F08BC002F0E3C003F0E4C004F006
:1014400009EC1CF001C08AF002C08BF0000E000114
:10145000746F000E756F000E766F000E776F1CEFC5
:101460000CF0D8C001F0D9C002F0000E046E0C0ED2
:10147000036E6CEC1FF0F80E0124D96E050E0220ED
:10148000DA6EDECF07F0DECF08F0DECF09F0DECF78
:101490000AF0000E0B6E000E0C6E000E0D6E000EAC
:1014A0000E6E22EC1DF0D8A058EF0AF05AEF0AF0A9
:1014B0001CEF0CF0000E146E010E136E000E166E73
:1014C0000C0E156E54EC1FF0AF0E586E000E596ED8
:1014D000220E5A6E080E5B6E8CC05CF08DC05DF003
:1014E00083EC1EF0AF0E026E000E036EC6EC1DF014
:1014F000E1C013F0E2C014F0000E0A6E000E096E97
:10150000C8EC1CF009C015F00AC016F054EC1FF02E
:10151000000E57EC1EF0000E146E010E136EDFC0AD
:1015200015F0E0C016F054EC1FF0020E57EC1EF060
:10153000000E0A6E000E096EC8EC1CF00001DF51AF
:10154000091807E1E0510A18D8A4A9EF0AF0ABEF97
:101550000AF0B1EF0AF0E3518C5D8C6FE4518D59C4
:101560008D6F000E046E0C0E036ED8C001F0D9C052
:1015700002F06CEC1FF0F00E0124D96E050E022073
:10158000DA6EDECF13F0DECF14F0DECF15F0DECF53
:1015900016F08AC001F08BC002F0000E02BEFF0EF2
:1015A000036E046E010EE4EC15F001C00FF002C0F2
:1015B00010F003C011F004C012F0AFEC0EF00FC039
:1015C00051F010C052F011C053F012C054F0CAECE8
:1015D00019F051C0D6F052C0D7F0D6C0C6F0D7C06F
:1015E000C7F0D8C001F0D9C002F0000E046E0C0E96
:1015F000036E6CEC1FF0F40E0124D96E050E022070
:10160000DA6EDECFC8F0DECFC9F0DECFCAF0DECFB3
:10161000CBF089EC17F0000E2C6E000E2D6E7A0EBA
:101620002E6E440E2F6E000E046E0C0E036ED8C08C
:1016300001F0D9C002F06CEC1FF0F00E0124D96E5D
:10164000050E0220DA6EDECF13F0DECF14F0DECF0F
:1016500015F0DECF16F08AC001F08BC002F0000E4C
:1016600002BEFF0E036E046E010EE4EC15F001C025
:101670000FF002C010F003C011F004C012F0AFEC84
:101680000EF00FC028F010C029F011C02AF012C0CF
:101690002BF0C4EC10F028C041F029C042F02AC061
:1016A00043F02BC044F074C045F075C046F076C0DE
:1016B00047F077C048F04FEC0CF041C074F042C0E6
:1016C00075F043C076F044C077F0000E2C6E000E2B
:1016D0002D6E7A0E2E6E440E2F6E000E046E0C0EC2
:1016E000036ED8C001F0D9C002F06CEC1FF0F00E10
:1016F0000124D96E050E0220DA6EDECF13F0DECFA4
:1017000014F0DECF15F0DECF16F08AC001F08BC0EA
:1017100002F0000E02BEFF0E036E046E010EE4EC3A
:1017200015F001C00FF002C010F003C011F004C0AA
:1017300012F0AFEC0EF00FC028F010C029F011C06D
:101740002AF012C02BF0C4EC10F028C045F029C0DC
:1017500046F02AC047F02BC048F088C001F089C08D
:1017600002F0000E02BEFF0E036E046E010EE4ECEA
:1017700015F001C041F002C042F003C043F004C0C4
:1017800044F04FEC0CF041C051F042C052F043C065
:1017900053F044C054F0CAEC19F051C088F052C064
:1017A00089F0000189BFDDEF0BF0895108E1880560
:1017B000D8A0DDEF0BF0DFEF0BF0E9EF0BF0E3511A
:1017C0008C258C6FE4518D218D6F000E896F000E7A
:1017D000886F74C001F075C002F076C003F077C066
:1017E00004F0000E056E000E066E700E076E410EC0
:1017F000086E4DEC1AF0D8A000EF0CF002EF0CF0E0
:101800001CEF0CF00001E34BE42B8AC001F08BC00D
:1018100002F0E3C003F0E4C004F009EC1CF001C0E6
:101820008AF002C08BF0000E0001746F000E756F1D
:10183000000E766F000E776F010EACEC1EF000010B
:101840008607D8A08707DF4BE02B010E8E6F8651ED
:101850008711D8A42EEF0CF030EF0CF032EF0CF023
:10186000000E8E6FD84BD92BD9BF40EF0CF0D95159
:1018700009E12C0ED85DD8A040EF0CF042EF0CF03F
:1018800019EF04F000018DBF4AEF0CF048EF0CF0A7
:1018900015EF04F0000ED36F020ED26F1200445009
:1018A000800B4D6E445044244F6E43AE5AEF0CF003
:1018B0005CEF0CF05DEF0CF04F804F50D8B463EF4D
:1018C0000CF065EF0CF07AEF0CF04F28D8A46BEF1A
:1018D0000CF06DEF0CF075EF0CF0000E416E000E89
:1018E000426E000E436E000E446E438E000E446E38
:1018F00082EF0CF0000E416E000E426E000E436E41
:10190000000E446E4850800B4E6E4D504E18D8B4A9
:101910008CEF0CF08EEF0CF08FEF0CF04D8C4850EC
:1019200048244E6E47AE97EF0CF099EF0CF09AEF0B
:101930000CF04E804E50D8B4A0EF0CF0A2EF0CF09B
:10194000B7EF0CF04E28D8A4A8EF0CF0AAEF0CF0DB
:10195000B2EF0CF0000E456E000E466E000E476EA4
:10196000000E486E478E000E486EBFEF0CF0000E62
:10197000456E000E466E000E476E000E486E4F50CC
:101980004E5CD8B0C6EF0CF0C8EF0CF0EFEF0CF0E7
:101990004DACCDEF0CF0CFEF0CF0D1EF0CF0800E92
:1019A0004D1A4FC050F04EC04FF050C04EF041C0E5
:1019B00050F045C041F050C045F042C050F046C024
:1019C00042F050C046F043C050F047C043F050C012
:1019D00047F044C050F048C044F050C048F0000EFA
:1019E000506E4F504EC049F04A6A495E000E4A5A46
:1019F0004ABE04EF0DF04A5009E11A0E495CD8A026
:101A000004EF0DF006EF0DF03DEF0DF041504210E8
:101A100043104410D8A40FEF0DF012EF0DF0010E9B
:101A200013EF0DF0000E506E000E416E000E426E70
:101A3000000E436E000E446E4EC04FF046EF0DF0A8
:101A400050A025EF0DF027EF0DF02DEF0DF0D89001
:101A500050300109506E2FEF0DF0D890503241A058
:101A600034EF0DF036EF0DF037EF0DF0508E4434BB
:101A700044324332423241324F2A4E504F5CD8A05A
:101A800044EF0DF046EF0DF020EF0DF04DBC4BEFA5
:101A90000DF04DEF0DF08DEF0DF04F50D8A453EF3A
:101AA0000DF055EF0DF05FEF0DF0000E416E000EE2
:101AB000426E000E436E000E446EAEEF0EF04550C7
:101AC000412646504222475043224850442244A0D7
:101AD0006CEF0DF06EEF0DF01AEF0EF050A073EFFB
:101AE0000DF075EF0DF07BEF0DF0D890503001093F
:101AF000506E7DEF0DF0D890503241A082EF0DF086
:101B000084EF0DF085EF0DF0508E443444324332B3
:101B1000423241324F2A1AEF0EF04550415C465096
:101B20004258475043584450800A496E4850800AF2
:101B30004958D8B09EEF0DF0A0EF0DF0CBEF0DF0AF
:101B40004150455C496E425046584A6E4350475892
:101B50004B6E445048584C6EFF0E4924416EFF0EA8
:101B60004A20426EFF0E4B20436EFF0E4C20446E07
:101B7000800E4D1A506C5050D8A4C1EF0DF0C3EF39
:101B80000DF0D3EF0DF0010E4126000E422243224C
:101B90004422D3EF0DF04550415E4650425A475023
:101BA000435A4850445A4150421043104410D8A45C
:101BB000DCEF0DF0DEEF0DF013EF0EF05050D8A477
:101BC000E4EF0DF0E6EF0DF013EF0EF0000E416EB6
:101BD000000E426E000E436E000E446EAEEF0EF02D
:101BE000D890413642364336443650AEFAEF0DF0C7
:101BF000FCEF0DF0FDEF0DF0418050A002EF0EF074
:101C000004EF0EF008EF0EF0D88050360AEF0EF019
:101C1000D89050364F50D8B410EF0EF012EF0EF0AF
:101C200013EF0EF04F0643AE18EF0EF01AEF0EF062
:101C3000F0EF0DF0000E4E6E50AE21EF0EF023EFE0
:101C40000EF03BEF0EF050C049F07F0E4916D8B4AD
:101C50002CEF0EF02EEF0EF032EF0EF0010E4E6E66
:101C60003BEF0EF041A037EF0EF039EF0EF03BEFF7
:101C70000EF02EEF0EF04E50D8B441EF0EF043EFC1
:101C80000EF06EEF0EF0010E4126000E42224322AE
:101C9000442244A04EEF0EF050EF0EF06EEF0EF027
:101CA00041C049F042C04AF043C04BF044C04CF040
:101CB0004C344C324B324A32493249C041F04AC06E
:101CC00042F04BC043F04CC044F04F28D8B46BEF07
:101CD0000EF06DEF0EF06EEF0EF04F2A4F28D8B4D5
:101CE00074EF0EF076EF0EF07EEF0EF04F50D8A4AA
:101CF0007CEF0EF07EEF0EF090EF0EF0000E416ED6
:101D0000000E426E000E436E000E446E4F50D8A47B
:101D10008CEF0EF08EEF0EF090EF0EF0000E4D6E89
:101D20004FA095EF0EF097EF0EF09AEF0EF0438E66
:101D30009BEF0EF0439ED8904F30446E4DAEA3EF14
:101D40000EF0A5EF0EF0A6EF0EF0448E41C041F06C
:101D500042C042F043C043F044C044F0120012506D
:101D6000800B1B6E12501224216E11AEBAEF0EF0D2
:101D7000BCEF0EF0BDEF0EF021802150D8B4C3EFC0
:101D80000EF0C5EF0EF0D8EF0EF02128D8A4CBEF5F
:101D90000EF0CDEF0EF0D5EF0EF0000E0F6E000E30
:101DA000106E000E116E000E126E118EE0EF0EF02E
:101DB000000E0F6E000E106E000E116E000E126EF1
:101DC0001650800B1B1A16501624206E15AEEBEF22
:101DD0000EF0EDEF0EF0EEEF0EF020802050D8B4B4
:101DE000F4EF0EF0F6EF0EF009EF0FF02028D8A474
:101DF000FCEF0EF0FEEF0EF006EF0FF0000E136E8C
:101E0000000E146E000E156E000E166E158E11EF7C
:101E10000FF0000E136E000E146E000E156E000E05
:101E2000166E2050D8B417EF0FF019EF0FF021EF16
:101E30000FF02150D8A41FEF0FF021EF0FF02BEF80
:101E40000FF0000E0F6E000E106E000E116E000EE1
:101E5000126EC3EF10F015500F02F3CF26F0F4CF3F
:101E600027F026501C6E1D6A1E6A1F6A2750226EBC
:101E7000236A246A256A14501002F3CF26F0F4CFA7
:101E800027F026501C26000E1D221E221F2227503E
:101E90002226000E23222422252213501102F3CFE2
:101EA00026F0F4CF27F026501C26000E1D221E22FD
:101EB0001F2227502226000E2322242225221EC064
:101EC0001FF01DC01EF01CC01DF01C6A1350100234
:101ED000F3CF26F0F4CF27F026501C2627501D22E2
:101EE000000E1E22000E1F2214500F02F3CF26F008
:101EF000F4CF27F026501C2627501D22000E1E224C
:101F0000000E1F221EC01FF01DC01EF01CC01DF0C1
:101F10001C6A13500F02F3CF26F0F4CF27F026509F
:101F20001C2627501D22000E1E22000E1F221550B7
:101F30001002F3CF26F0F4CF27F0265022262750A8
:101F40002322000E2422000E252214501102F3CF6A
:101F500026F0F4CF27F02650222627502322000E09
:101F60002422000E252215501102F3CF26F0F4CFC3
:101F700027F02650176E2750186E196A1A6A19C072
:101F80001AF018C019F017C018F0176A1750222657
:101F900018502322195024221A5025221CC017F051
:101FA0001DC018F01EC019F01FC01AF0190EDEEF88
:101FB0000FF0D8901A32193218321732E82ED9EFB2
:101FC0000FF01750222618502322195024221A509D
:101FD00025221EC01FF01DC01EF01CC01DF01C6A73
:101FE000205021C017F0186A1726000E1822820E02
:101FF0001724266EFF0E1820276E14EF10F0D890CD
:1020000022362336243625361FAE09EF10F00BEFAB
:1020100010F00CEF10F02280D8901C361D361E36C2
:102020001F362606D8A0270624AE19EF10F01BEFA6
:1020300010F0FFEF0FF0000E206E1FAE22EF10F039
:1020400024EF10F048EF10F0FF0E1C14176EFF0E77
:102050001D14186EFF0E1E14196E7F0E1F141A6EBB
:102060001750181019101A10D8B439EF10F03BEFB0
:1020700010F03FEF10F0010E206E48EF10F022A09C
:1020800044EF10F046EF10F048EF10F03BEF10F087
:102090002050D8B44EEF10F050EF10F074EF10F065
:1020A000010E2226000E23222422252225A05BEFEA
:1020B00010F05DEF10F074EF10F022C017F023C0A5
:1020C00018F024C019F025C01AF01A341A32193247
:1020D0001832173217C022F018C023F019C024F0AC
:1020E0001AC025F0264A272A27BE7FEF10F0275076
:1020F00008E12628D8A07FEF10F081EF10F08BEFD9
:1021000010F0000E226E000E236E800E246E7F0EE5
:10211000256EB9EF10F027BE98EF10F0275006E1BA
:102120002604D8B096EF10F098EF10F0A4EF10F05E
:10213000000E226E000E236E000E246E000E256E21
:10214000000E1B6EB9EF10F026C021F0FF0E221614
:10215000FF0E23167F0E2416000E251621A0B3EFC6
:1021600010F0B5EF10F0B6EF10F0248ED8902130BB
:10217000256E1B50251222C00FF023C010F024C082
:1021800011F025C012F012002B50800B386E2B502E
:102190002B243F6E2AAECFEF10F0D1EF10F0D2EF2C
:1021A00010F03F803F50D8B4D8EF10F0DAEF10F0C5
:1021B000EFEF10F03F28D8A4E0EF10F0E2EF10F0BE
:1021C000EAEF10F0000E286E000E296E000E2A6E47
:1021D000000E2B6E2A8E000E2B6EF7EF10F0000E05
:1021E000286E000E296E000E2A6E000E2B6E2F50E8
:1021F000800B381A2F502F24406E2EAE02EF11F0B4
:1022000004EF11F005EF11F040804050D8B40BEF0F
:1022100011F00DEF11F022EF11F04028D8A413EFC8
:1022200011F015EF11F01DEF11F0000E2C6E000EE5
:102230002D6E000E2E6E000E2F6E2E8E000E2F6E47
:102240002AEF11F0000E2C6E000E2D6E000E2E6E79
:10225000000E2F6E2C502D102E102F10D8A433EFFF
:1022600011F035EF11F04DEF11F0000E286E000E59
:10227000296E000E2A6E000E2B6E800E2A127F0E23
:102280002B1238502B1228C028F029C029F02AC060
:102290002AF02BC02BF090EF12F03F50D8A453EF50
:1022A00011F055EF11F05FEF11F0000E286E000EE7
:1022B000296E000E2A6E000E2B6E90EF12F0405029
:1022C0003FC030F0316A305E000E315A7F0E30244C
:1022D000396E000E31203A6E28C034F029C035F036
:1022E0002AC036F02BC037F0000E286E000E296E83
:1022F000000E2A6E000E2B6E000E3B6E000E3C6E22
:10230000000E3D6E000E3E6E000E406EC0EF11F0EE
:102310004050D8B48EEF11F090EF11F0A7EF11F00C
:10232000D8903436353636363736D8902836293672
:102330002A362B363EAE9FEF11F0A1EF11F0A2EF3F
:1023400011F02880D8903B363C363D363E362C5036
:10235000345C2D5035582E5036582F503758D8A051
:10236000B4EF11F0B6EF11F0BFEF11F03E8C2C502E
:10237000345E2D50355A2E50365A2F50375A402A37
:10238000190E4064C6EF11F0C8EF11F088EF11F09C
:102390003450351036103710D8B4D1EF11F0D3EFD8
:1023A00011F0EBEF11F03B80EBEF11F0D8902836F5
:1023B00029362A362B363EAEE0EF11F0E2EF11F06F
:1023C000E3EF11F02880D8903B363C363D363E3660
:1023D0003906D8A03A062AAEF0EF11F0F2EF11F06C
:1023E000D6EF11F0000E406E3EAEF9EF11F0FBEFAC
:1023F00011F01FEF12F0FF0E3B14306EFF0E3C1475
:10240000316EFF0E3D14326E7F0E3E14336E30502F
:10241000311032103310D8B410EF12F012EF12F066
:1024200016EF12F0010E406E1FEF12F028A01BEF06
:1024300012F01DEF12F01FEF12F012EF12F04050E9
:10244000D8B425EF12F027EF12F04BEF12F0010E87
:102450002826000E29222A222B222BA032EF12F04E
:1024600034EF12F04BEF12F028C030F029C031F0F9
:102470002AC032F02BC033F03334333232323132AF
:10248000303230C028F031C029F032C02AF033C0D9
:102490002BF0394A3A2A3ABE56EF12F03A5008E188
:1024A0003928D8A056EF12F058EF12F063EF12F06F
:1024B000000E3A6E3968000E286E000E296E000E6E
:1024C0002A6E000E2B6E3ABE70EF12F03A5006E103
:1024D0003904D8B06EEF12F070EF12F07EEF12F008
:1024E000000E3A6E000E396E000E286E000E296E38
:1024F000000E2A6E000E2B6E000E386E39C03FF0B3
:102500003FA085EF12F087EF12F08AEF12F02A8ECB
:102510008BEF12F02A9ED8903F302B6E41EF11F0D6
:1025200012001EC036F01FC037F020C038F021C0A6
:1025300039F022C03AF023C03BF024C03CF025C063
:102540003DF03DBEA6EF12F0A9EF12F0010EAAEF8A
:1025500012F0000E346E356A34503510D8B4B3EF33
:1025600012F0B5EF12F0C5EF12F03D1E3C1E3B1EFF
:102570003A1E391E381E371E366C000E372238229E
:1025800039223A223B223C223D2200017DBFCBEF83
:1025900012F0CDEF12F0CEEF12F07E937DBFDBEFA5
:1025A00012F07D5106E17C05D8B0D9EF12F0DBEFD7
:1025B00012F0E1EF12F0000E316E010E306EE5EF19
:1025C00012F07CC030F07DC031F07AC032F07BC0B8
:1025D00033F034503510D8A4F0EF12F0F2EF12F0CF
:1025E000F9EF12F07EA5F7EF12F0F9EF12F0FCEF21
:1025F00012F03206D8A03306000E3F6E1F0E3E6E5C
:10260000000EAE6F80EF13F03E06D8A03F068F0E8F
:102610003E24D96E000E3F20DA6E36C001F037C07E
:1026200002F038C003F039C004F03AC005F03BC0F6
:1026300006F03CC007F03DC008F00A0E096E000E1F
:102640000A6E000E0B6E000E0C6E000E0D6E000E6C
:102650000E6E000E0F6E000E106E18EC19F001C019
:1026600026F002C027F003C028F004C029F005C0FE
:102670002AF006C02BF007C02CF008C02DF026C0B1
:1026800013F028C014F019EC1FF01350300FDF6E58
:102690003006D8A031063206D8A0330636C001F085
:1026A00037C002F038C003F039C004F03AC005F07A
:1026B0003BC006F03CC007F03DC008F00A0E096EB2
:1026C000000E0A6E000E0B6E000E0C6E000E0D6EEC
:1026D000000E0E6E000E0F6E000E106E54EC18F011
:1026E00001C036F002C037F003C038F004C039F042
:1026F00005C03AF006C03BF007C03CF008C03DF012
:102700003FBE8BEF13F03F5008E13E04D8A08BEFA3
:1027100013F08DEF13F0BEEF13F036503710381072
:1027200039103A103B103C103D10D8A49AEF13F02A
:102730009CEF13F004EF13F031BEA9EF13F031500A
:1027400006E13004D8B0A7EF13F0A9EF13F004EFBF
:1027500013F033BEB4EF13F0335008E13204D8A0C5
:10276000B4EF13F0B6EF13F0BEEF13F000017EB339
:10277000BCEF13F0BEEF13F004EF13F0345035103C
:10278000D8A4C5EF13F0C7EF13F0CFEF13F000019B
:102790007EA5CDEF13F0CFEF13F0EDEF13F03E0673
:1027A000D8A03F0634503510D8A4D9EF13F0DBEF92
:1027B00013F0E1EF13F0000E2F6E2B0E2E6EE5EFEF
:1027C00013F0000E2F6E2D0E2E6E8F0E3E24D96E3E
:1027D000000E3F20DA6E2EC0DFFF1CC011F01DC0BE
:1027E00012F08F0E3E24136E000E3F20146E32C086
:1027F00015F033C016F0A6EC1BF011C01CF012C08F
:102800001DF012000000803F0E2D42400000803F6E
:102810000000803F0E2D42400000803F0000803FBE
:102820000E2D42400000803F0000403FE17A74409E
:102830000000803F0000803E333323400000803F93
:102840000000803F0E2D42400000803F0000403FCE
:10285000E17A74400000803F0000803E96432340B0
:102860000000803F0000803F0E2D42400000803F6E
:102870000000803FC1CA01400000803F0000803F4F
:10288000C1CA01400000803F0000803FC1CA014032
:102890000000803F0000403FA69BF43F0000803FC7
:1028A0000000803E964323400000803F0000803FB0
:1028B0003D0A67400000803F0000403FE17A7440DD
:1028C0000000803F0000803E964323400000803F90
:1028D0000000803F0E2D42400000803F0000803FFE
:1028E0000E2DC23F0000803F0000403F0E2D4240B1
:1028F0000000803F0000803E0E2D42400000803FDF
:102900000000803F0E2DC23F0000803F0000403F8E
:102910002DB2CD3F0000803F0000803EE7FBD93F55
:102920000000803F0000803E79E9E63F0000803FE4
:102930000000803EA69BF43F0000803F9A99193F1B
:1029400079E9E63F0000803FCDCC4C3E0000803F5F
:10295000000000009A99193F643B37400000803F17
:102960000000803FAE4709400000803F0000403F2C
:10297000D57811400000803F0000803EAC1C1A401A
:102980000000803F0000803E964323400000803FCF
:102990000000803EF4FD2C400000803F9A99193FD2
:1029A000964323400000803FCDCC4C3E0000803F4A
:1029B000000000009A99193FA69B74400000803FD8
:1029C0000000803F79E966400000803F0000403F02
:1029D000A69B74400000803F0000803E9643234049
:1029E0000000803F0000803F0E2D42400000803FED
:1029F0000000403FA69B74400000803F0000803EE6
:102A0000964323400000803F0000803F0E2D42404F
:102A10000000803F42C0D9FF43C0DAFFDECFF6FF9F
:102A2000DDCFF7FF0800F550250AD8A41AEF15F0FE
:102A30001CEF15F0C8EF15F042C0D9FF43C0DAFF14
:102A4000DE2A000EDD22000E00017B6F000E7A6F81
:102A50007AC07EF07BC07FF07C697D6942C0D9FF7F
:102A600043C0DAFFDECFF6FFDDCFF7FF0800F550F9
:102A7000640AD8B43EEF15F040EF15F052EF15F0B0
:102A800042C0D9FF43C0DAFFDECFF6FFDDCFF7FF4C
:102A90000800F550690AD8A450EF15F052EF15F070
:102AA00092EF15F042C0D9FF43C0DAFFDE2A000ED4
:102AB000DD2244C0D9FF45C0DAFFDFCF46F0020E69
:102AC000DE26DFCF47F0000EDD2246C0D9FF47C02B
:102AD000DAFFDECF48F0DDCF49F0000E49BEFF0E31
:102AE0004A6E4B6E4C6E4D6E4E6E4F6E40C01CF07B
:102AF00041C01DF048C01EF049C01FF04AC020F080
:102B00004BC021F04CC022F04DC023F04EC024F049
:102B10004FC025F091EC12F01CC040F01DC041F0F8
:102B2000E3EF15F042C0D9FF43C0DAFFDECFF6FF76
:102B3000DDCFF7FF0800F550250AD8A4A2EF15F065
:102B4000A4EF15F0BBEF15F042C0D9FF43C0DAFF88
:102B5000DE2A000EDD22000E026E250E016E40C040
:102B600003F041C004F041EC1BF0000E416E010E79
:102B7000406EE3EF15F042C0D9FF43C0DAFFDE2A12
:102B8000000EDD22000E416E000E406EE3EF15F0E8
:102B900042C0D9FF43C0DAFFDECFF6FFDDCFF7FF3B
:102BA0000800F550016E026A40C003F041C004F015
:102BB00041EC1BF042C0D9FF43C0DAFFDE2A000E11
:102BC000DD22B5EF15F01200096E0950D8B4EBEF15
:102BD00015F0EDEF15F00FEF16F004BEF4EF15F061
:102BE000F2EF15F00FEF16F001C005F002C006F08D
:102BF00003C007F004C008F0051E061E071E081ECD
:102C0000052A000E06220722082205C00BF006C086
:102C10000CF007C00DF008C00EF017EF16F001C061
:102C20000BF002C00CF003C00DF004C00EF0015018
:102C3000021003100410D8A420EF16F022EF16F0B3
:102C40002CEF16F0000E016E000E026E000E036EE9
:102C5000000E046EBDEF16F0960E0A6E36EF16F0FB
:102C60000A2AD8900E320D320C320B32000E0B14A1
:102C7000056E000E0C14066E000E0D14076EFE0E8F
:102C80000E14086E0550061007100810D8A44BEF5C
:102C900016F04DEF16F030EF16F05BEF16F00A2A43
:102CA000010E0B26000E0C220D220E22D8900E32A1
:102CB0000D320C320B32000E0B14056E000E0C148C
:102CC000066E000E0D14076EFF0E0E14086E0550F2
:102CD000061007100810D8A470EF16F072EF16F067
:102CE0004FEF16F07AEF16F00A06D8900B360C3636
:102CF0000D360E360DBE7FEF16F081EF16F089EF20
:102D000016F0020E0A6087EF16F089EF16F074EFE6
:102D100016F00AB08EEF16F090EF16F091EF16F065
:102D20000D9ED8900A320AC005F0066A076A086A42
:102D300005C008F0076A066A056A05500B120650BE
:102D40000C1207500D1208500E120950D8B4ABEFF8
:102D500016F0ADEF16F0B5EF16F004BEB4EF16F0B6
:102D6000B2EF16F0B5EF16F00E8E0BC001F00CC0EE
:102D700002F00DC003F00EC004F01200C8C02CF029
:102D8000C9C02DF0CAC02EF0CBC02FF0C6C001F0D4
:102D9000C7C002F0000E02BEFF0E036E046E010EED
:102DA000E4EC15F001C028F002C029F003C02AF0BD
:102DB00004C02BF0C4EC10F028C051F029C052F030
:102DC0002AC053F02BC054F0CAEC19F051C0D0F017
:102DD00052C0D1F0000E2C6E000E2D6E000E2E6E25
:102DE000400E2F6EC8C028F0C9C029F0CAC02AF012
:102DF000CBC02BF0C4EC10F028C0CCF029C0CDF033
:102E00002AC0CEF02BC0CFF0000E516E000E526ED5
:102E10007F0E536E430E546E170E2C6EB70E2D6E32
:102E2000D10E2E6E3C0E2F6ECCC028F0CDC029F0F6
:102E3000CEC02AF0CFC02BF0C4EC10F028C055F063
:102E400029C056F02AC057F02BC058F0D4EC1EF021
:102E500051C0C8F052C0C9F053C0CAF054C0CBF042
:102E6000000E0001836F000E826F79EF17F081A0D2
:102E70003CEF17F03EEF17F044EF17F0000EE26F53
:102E8000000EE16F48EF17F0000EE26F010EE16FE8
:102E90008182C8C051F0C9C052F0CAC053F0CBC043
:102EA00054F0CAEC19F051C0D6FF52C0D7FFF2A4BB
:102EB0005CEF17F05EEF17F057EF17F0F294819286
:102EC000C8C051F0C9C052F0CAC053F0CBC054F0D2
:102ED000CAEC19F051C0D6FF52C0D7FFF2A473EF6D
:102EE00017F075EF17F06EEF17F0F2940001824BB8
:102EF000832BD051825D8351800A5B6ED151800A51
:102F00005B58D8A086EF17F088EF17F037EF17F06F
:102F10001200C8C02CF0C9C02DF0CAC02EF0CBC022
:102F20002FF0C6C001F0C7C002F0000E02BEFF0EB7
:102F3000036E046E010EE4EC15F001C028F002C02F
:102F400029F003C02AF004C02BF0C4EC10F028C014
:102F500051F029C052F02AC053F02BC054F0CAECF3
:102F600019F051C0C6F052C0C7F0000E2C6E000E12
:102F70002D6E000E2E6E400E2F6EC8C028F0C9C0F8
:102F800029F0CAC02AF0CBC02BF0C4EC10F028C046
:102F90005CF029C05DF02AC05EF02BC05FF0000E2F
:102FA000516E000E526E7F0E536E430E546E170E0E
:102FB0002C6EB70E2D6ED10E2E6E3C0E2F6E5CC099
:102FC00028F05DC029F05EC02AF05FC02BF0C4EC91
:102FD00010F028C055F029C056F02AC057F02BC079
:102FE00058F0D4EC1EF051C0C8F052C0C9F053C024
:102FF000CAF054C0CBF0000E0001836F000E826F48
:1030000044EF18F081A007EF18F009EF18F00FEF68
:1030100018F0000EE26F000EE16F13EF18F0000ED3
:10302000E26F010EE16F8192C8C051F0C9C052F049
:10303000CAC053F0CBC054F0CAEC19F051C0D6FF4F
:1030400052C0D7FFF2A427EF18F029EF18F022EFB3
:1030500018F0F2948192C8C051F0C9C052F0CAC0B1
:1030600053F0CBC054F0CAEC19F051C0D6FF52C097
:10307000D7FFF2A43EEF18F040EF18F039EF18F048
:10308000F2940001824B832BC651825D8351800AEA
:103090005B6EC751800A5B58D8A051EF18F053EF10
:1030A00018F002EF18F01200000E126E10BE5DEF65
:1030B00018F05BEF18F06FEF18F0101E0F1E0E1EC9
:1030C0000D1E0C1E0B1E0A1E096C000E0A220B227E
:1030D0000C220D220E220F221022010E126E08BEAB
:1030E00076EF18F074EF18F088EF18F0081E071E3E
:1030F000061E051E041E031E021E016C000E022287
:10310000032204220522062207220822010E121A97
:1031100020EE13F0070EDE6AE806FDE209500A1001
:103120000B100C100D100E100F101010D8B49BEFD8
:1031300018F09DEF18F0EFEF18F0010E116EABEFE5
:1031400018F0D89009360A360B360C360D360E3686
:103150000F361036112A10AEB0EF18F0B2EF18F09B
:10316000A1EF18F0D89013361436153616361736E8
:10317000183619361A360950015C0A5002580B509D
:1031800003580C5004580D5005580E5006580F5057
:10319000075810500858D8A0D0EF18F0D2EF18F008
:1031A000E3EF18F00950015E0A50025A0B50035A1F
:1031B0000C50045A0D50055A0E50065A0F50075A1B
:1031C0001050085A1380D89010320F320E320D3240
:1031D0000C320B320A320932112EB2EF18F01250B3
:1031E000D8B4F5EF18F0F7EF18F007EF19F01A1E42
:1031F000191E181E171E161E151E141E136C000E07
:103200001422152216221722182219221A2213C05C
:1032100001F014C002F015C003F016C004F017C08E
:1032200005F018C006F019C007F01AC008F0120027
:10323000000E126E08BE21EF19F01FEF19F033EFE8
:1032400019F0081E071E061E051E041E031E021E80
:10325000016C000E0222032204220522062207220C
:103260000822010E126E10BE3AEF19F038EF19F075
:103270004AEF19F0101E0F1E0E1E0D1E0C1E0B1E07
:103280000A1E096C000E0A220B220C220D220E22AD
:103290000F22102209500A100B100C100D100E10E6
:1032A0000F101010D8B457EF19F059EF19F0A1EF23
:1032B00019F0010E116E67EF19F0D89009360A3631
:1032C0000B360C360D360E360F361036112A10AE70
:1032D0006CEF19F06EEF19F05DEF19F00950015C19
:1032E0000A5002580B5003580C5004580D50055802
:1032F0000E5006580F50075810500858D8A083EFAA
:1033000019F085EF19F095EF19F00950015E0A5098
:10331000025A0B50035A0C50045A0D50055A0E50C5
:10332000065A0F50075A1050085AD89010320F32D0
:103330000E320D320C320B320A320932112E6EEF80
:1033400019F01250D8B4A7EF19F0A9EF19F0B9EF9E
:1033500019F0081E071E061E051E041E031E021E6F
:10336000016C000E022203220422052206220722FB
:10337000082201C001F002C002F003C003F004C043
:1033800004F005C005F006C006F007C007F008C04D
:1033900008F01200533454345A6E5A50D8A4D3EF64
:1033A00019F0D5EF19F0DFEF19F0000E516E000E95
:1033B000526E000E536E000E546E4CEF1AF051C058
:1033C00055F052C056F053C057F054C058F0200E7C
:1033D000EFEF19F0D8905832573256325532E82E66
:1033E000EAEF19F05550596E538EFF0E5116FF0E2D
:1033F0005216FF0E5316000E5416960E5A5E5ABE03
:1034000006EF1AF004EF1AF01CEF1AF05A50800A77
:10341000970FD8B00EEF1AF010EF1AF012EF1AF063
:10342000D5EF19F0D89054325332523251325A3EBD
:1034300012EF1AF034EF1AF01F0E5A6422EF1AF04E
:1034400024EF1AF02CEF1AF0D5EF19F0D89051367E
:103450005236533654365A065A50D8A432EF1AF020
:1034600034EF1AF026EF1AF05950D8B43AEF1AF0A8
:103470003CEF1AF044EF1AF0541E531E521E516CCA
:10348000000E52225322542251C051F052C052F029
:1034900053C053F054C054F01200000E0114096ED2
:1034A000000E02140A6E800E03140B6E7F0E0414BD
:1034B0000C6E09500A100B100C10D8A462EF1AF011
:1034C00064EF1AF06CEF1AF0000E016E000E026E3F
:1034D000000E036E000E046E000E0514096E000E41
:1034E00006140A6E800E07140B6E7F0E08140C6E05
:1034F00009500A100B100C10D8A481EF1AF083EFBA
:103500001AF08BEF1AF0000E056E000E066E000E1C
:10351000076E000E086E04AE90EF1AF092EF1AF0EC
:103520009BEF1AF0016C021ED8B0022A031ED8B01D
:10353000032A800E045608AEA0EF1AF0A2EF1AF08C
:10354000ABEF1AF0056C061ED8B0062A071ED8B0DD
:10355000072A800E0856000E011A000E021A000EED
:10356000031A800E041A000E051A000E061A000E29
:10357000071A800E081A0550015C065002580750C1
:10358000035808500458D8B0C8EF1AF0CAEF1AF020
:10359000CDEF1AF0D890CEEF1AF0D88012000F0EAF
:1035A000C16E6BEC1CF077EC1DF07FEC1FF08AEC29
:1035B0001FF0110E926EFD0E936E070E00018B6FC1
:1035C000D00E8A6F81A0E7EF1AF0E9EF1AF01FEF33
:1035D0001BF013EC04F0020E0001D219D311D8A491
:1035E000F4EF1AF0F6EF1AF0E2EF1AF0000E146E94
:1035F000000E136E000E166E000E156E54EC1FF0CA
:10360000130E026E080E036EC6EC1DF0000E146E53
:10361000010E136E000E166E000E156E54EC1FF0A8
:10362000010E026E080E036EC6EC1DF081A01BEFAA
:103630001BF01DEF1BF03DEF1BF03FEF1BF0000EEA
:10364000146E010E136E000E166E000E156E54EC05
:103650001FF0010E026E080E036EC6EC1DF081A075
:1036600034EF1BF036EF1BF0E2EF1AF0010EACEC7A
:103670001EF013EC04F0E2EF1AF0E2EF1AF000EFA4
:1036800000F003500410D8B448EF1BF04AEF1BF0D1
:1036900053EF1BF003500410D8A451EF1BF053EF6D
:1036A0001BF058EF1BF0015096EC1FF0A5EF1BF03C
:1036B00020EE04F00350D9260450DA22DE50DE104A
:1036C000D8B465EF1BF067EF1BF082EF1BF020EE24
:1036D00004F00350D9260450DA2210EE02F0035011
:1036E000E1260450E222DE50E65CE650800A096ED4
:1036F000DE50800A0958D8B080EF1BF082EF1BF033
:10370000A5EF1BF020EE02F00350D9260450DA2278
:10371000DECF05F0DDCF06F003C0D9FF04C0DAFF2D
:10372000DECF07F0DDCF08F005500724D96E065034
:103730000820DA6E01C0DFFF20EE02F00350D92628
:103740000450DA22DE2A000EDD22120000017EA1E2
:10375000ACEF1BF0AEEF1BF0B8EF1BF013C00AF09C
:1037600014C00BF011C00CF012C00DF0F7EC1EF0FD
:1037700016BEBDEF1BF0BFEF1BF0C5EF1BF015C071
:103780001AF016C01BF0C9EF1BF0000E1B6E000EE6
:103790001A6E000E196E000E186EDBEF1BF0000E95
:1037A000026E200E016E11C003F012C004F041EC55
:1037B0001BF0184A192A1A50185C1950800A176E03
:1037C0001B50800A1758D8A0E8EF1BF0EAEF1BF057
:1037D000CFEF1BF000017EB1F0EF1BF0F2EF1BF01A
:1037E000FCEF1BF013C00AF014C00BF011C00CF07A
:1037F00012C00DF0F7EC1EF013C001F014C002F07F
:1038000039EC1FF01A500124116E1B500220126E69
:103810001200000E066E04BE12EF1CF010EF1CF03A
:1038200018EF1CF0036C041ED8B0042A010E066EBB
:1038300002BE1FEF1CF01DEF1CF025EF1CF0016C09
:10384000021ED8B0022A010E061A000E086E000EE3
:10385000076E03500410D8B430EF1CF032EF1CF0A8
:103860005AEF1CF0010E056E3AEF1CF0D8900336AB
:103870000436052A04AE3FEF1CF041EF1CF036EF92
:103880001CF0D890073608360350015C04500258EB
:10389000D8A04DEF1CF04FEF1CF054EF1CF003507C
:1038A000015E0450025A0780D89004320332052E7C
:1038B00041EF1CF00650D8B460EF1CF062EF1CF032
:1038C00066EF1CF0076C081ED8B0082A07C001F08C
:1038D00008C002F012008350F00B836EF00E9516B4
:1038E000959C959A95988C9C8C9A8C98620E026EF9
:1038F000660EE82EFED7022EFCD7300EACEC1EF082
:10390000210E026E760EE82EFED7022EFCD700D0D6
:10391000300EACEC1EF0A60EE82EFED700D0320E14
:10392000ACEC1EF0A60EE82EFED700D0A60EE82EB8
:10393000FED700D0280EACEC1EF0A60EE82EFED767
:1039400000D0080EACEC1EF0A60EE82EFED700D07C
:103950000F0EACEC1EF0A60EE82EFED700D0010E26
:10396000ACEC1EF0A60EE82EFED700D0040EACEC98
:103970001EF0A60EE82EFED700D0A60EE82EFED72B
:1039800000D0060EACEC1EF00C0EACEC1EF01200DB
:1039900009C00BF0D8900B36D8900B363C0E0B16A6
:1039A000C250C30B0B10C26EC2B2D9EF1CF0DDEFD8
:1039B0001CF00B6A0B2ADEEF1CF00B6A010E0C6E7A
:1039C0000B2AE5EF1CF0D8900C360B2EE3EF1CF021
:1039D000C2B0EDEF1CF0F1EF1CF00D6A0D2AF2EF12
:1039E0001CF00D6A010E0E6E0D2AF9EF1CF0D89036
:1039F0000E360D2EF7EF1CF00E500C10C212C2B294
:103A000004EF1DF006EF1DF0FFEF1CF0C4500C6E2C
:103A10000B6AC3500B240F6E000E0C20106E0FC0EB
:103A200001F010C002F0000E046E400E036E09ECAF
:103A30001CF001C011F002C012F011C009F012C058
:103A40000AF01200000E07140F6E000E0814106E1C
:103A5000800E0914116E7F0E0A14126E0F50101092
:103A600011101210D8A437EF1DF039EF1DF041EFFF
:103A70001DF0000E076E000E086E000E096E000E9F
:103A80000A6E000E0B140F6E000E0C14106E800EDA
:103A90000D14116E7F0E0E14126E0F5010101110B7
:103AA0001210D8A456EF1DF058EF1DF060EF1DF076
:103AB000000E0B6E000E0C6E000E0D6E000E0E6EE4
:103AC0000B5007180FE10C5008180CE10D500918A5
:103AD00009E10E500A18D8B470EF1DF072EF1DF016
:103AE00075EF1DF0D89076EF1DF0D8801200010E12
:103AF000ACEC1EF0400EACEC1EF01F0E57EC1EF0AE
:103B0000150E57EC1EF01F0E57EC1EF00E0E57EC64
:103B10001EF0150E57EC1EF00E0E57EC1EF01B0E8D
:103B200057EC1EF0000E57EC1EF0070E57EC1EF07F
:103B3000020E57EC1EF01F0E57EC1EF0070E57EC4E
:103B40001EF0070E57EC1EF0050E57EC1EF01B0E74
:103B500057EC1EF0000E57EC1EF01C0E57EC1EF03A
:103B6000080E57EC1EF01F0E57EC1EF01C0E57EC03
:103B70001EF01C0E57EC1EF0140E57EC1EF01B0E20
:103B800057EC1EF0000E57EC1EF01200E0EF1DF097
:103B9000A60EE82EFED700D002C0F6FF03C0F7FF46
:103BA000F86A070EF76403D00800F55005D0F6CF89
:103BB000E1FFF7CFE2FFE75057EC1EF0024A032A7D
:103BC00002C0F6FF03C0F7FFF86A070EF76403D0E0
:103BD0000800F55005D0F6CFE1FFF7CFE2FFE75040
:103BE0000009D8A4F6EF1DF0F8EF1DF0C8EF1DF0A6
:103BF000120052C056F053C057F0000E0001796F0A
:103C0000000E786F17EF1EF050C040F051C041F029
:103C1000560E426E000E436E54C044F055C045F03F
:103C20000AEC15F04050000178274150792356C026
:103C3000F6FF57C0F7FF0800F5500009D8A423EF9E
:103C40001EF025EF1EF004EF1EF078C050F079C092
:103C500051F01200040EF66E280EF76E000EF86E8C
:103C600005EEF0F012EE10F00900F5CFEEFFE55092
:103C7000E150FAE1E250F8E1260EF66E3F0EF76EE3
:103C8000000EF86E00EEDFF010EE06F00900F5CF42
:103C9000EEFFE550E150FAE100EE60F0660EEE6AEC
:103CA000E806FDE1000EF86E0001CFEF1AF0016E9C
:103CB000A60EE82EFED700D0F00E8316F00E951655
:103CC00001380F0B0F0B8310836E8C9C8C8A080EAF
:103CD000E82EFED700F08C88080EE82EFED700F004
:103CE0008C98F00E831601500F0B8312080EE82EED
:103CF000FED700F08C88080EE82EFED700F08C98D6
:103D00000F0E951212005C0E0001C66F000EC76FF9
:103D100058C0C8F059C0C9F0000ECB6F000ECA6F72
:103D2000000ECD6F000ECC6FC80E506E000E516E9F
:103D30005AC052F05BC053F0C60E546E000E556E62
:103D4000F9EC1DF00001CA515824D96ECB5159200D
:103D5000DA6E000EDF6E1200016EF00E8316F00EAA
:103D6000951601380F0B0F0B8310836E8C9C8C9A69
:103D7000080EE82EFED700F08C88080EE82EFED73D
:103D800000F08C98F00E831601500F0B8312080E72
:103D9000E82EFED700F08C88080EE82EFED700F043
:103DA0008C980F0E95121200000E551A000E561A1E
:103DB000000E571A800E581A51C041F052C042F0FE
:103DC00053C043F054C044F055C045F056C046F0CF
:103DD00057C047F058C048F04FEC0CF041C051F0CC
:103DE00042C052F043C053F044C054F01200000EE1
:103DF000106E000E0F6E08EF1FF00EC001F0026A89
:103E00000CC003F00DC004F041EC1BF00F4A102A67
:103E10000F500A24D96E10500B20DA6EDF500E6E50
:103E20000E50D8A416EF1FF018EF1FF0FDEF1EF094
:103E3000120014BE26EF1FF0145006E11304D8B090
:103E400024EF1FF026EF1FF034EF1FF013C015F022
:103E500014C016F0151E161E154A162A15C013F0AA
:103E600016C014F038EF1FF013C013F014C014F094
:103E7000120001C003F002C004F041EF1FF0014A3C
:103E8000022A01C0D9FF02C0DAFFDF50D8A44BEFED
:103E90001FF04DEF1FF03FEF1FF00350015C016E6C
:103EA00004500258026E120014BE5FEF1FF014504F
:103EB00008E11304D8A05FEF1FF061EF1FF067EF78
:103EC0001FF01550C00FACEC1EF06BEF1FF015503B
:103ED000800FACEC1EF0120001500302F3CF05F08E
:103EE000F4CF06F001500402F350062602500302FC
:103EF000F350062605C001F006C002F01200D58E70
:103F0000D58CD59AD598D596D550F80B0609D56E8F
:103F1000F28A12000E0EC16EBA0EC06E000EC46E92
:0E3F2000000EC36E12000F000100010012001F
:020000040020DA
:08000000FFFFFFFFFFFFFFFF00
:020000040030CA
:0E000000240C1F1FFF8385FF0FC00FE00F4071
:00000001FF
