:0400000055EF1EF0AA
:10080000001F151F0E150E1B000007021F0707050E
:100810001B001C081F1C1C141B0025690000DEEFB8
:100820000CF0000ED66F000ED56F87BF23EF04F0DB
:10083000875107E10F0E865DD8B021EF04F023EF5A
:1008400004F073EF08F0DCBF28EF04F02AEF04F0A7
:1008500073EF08F08C51D8A430EF04F032EF04F0BD
:1008600073EF08F0D5C001F0D6C002F0000E046EA0
:100870000C0E036E2EEC20F0F80E0124D96E050E3E
:100880000220DA6EDECF07F0DECF08F0DECF09F00F
:10089000DECF0AF0000E0B6E000E0C6E800E0D6E99
:1008A0003F0E0E6E50EC1DF0D8A059EF04F05BEF38
:1008B00004F043EF06F0010EADEC1FF0070E00014F
:1008C000D06F7D0EE82EFED7D02FFCD7DDC013F001
:1008D000DEC014F0000E0A6E000E096EF6EC1CF07D
:1008E00009C015F00AC016F002EC20F0000EDAEC98
:1008F0001EF0070E0001D06F7D0EE82EFED7D02F20
:10090000FCD7000E146E010E136EDBC015F0DCC0B8
:1009100016F002EC20F0030EDAEC1EF0070E0001D8
:10092000D06F7D0EE82EFED7D02FFCD7000E146EB0
:10093000010E136E000E166E0C0E156E02EC20F0FA
:10094000AD0E586E000E596E1A0E5A6E080E5B6E82
:100950008AC05CF08BC05DF0B1EC1EF0AD0E026E93
:10096000000E036E6BEC1FF0000E0A6E000E096E97
:10097000F6EC1CF00001DB51091807E1DC510A1804
:10098000D8A4C5EF04F0C7EF04F0D6EF04F0DD05FE
:10099000DE11D8A4CEEF04F0D0EF04F0D6EF04F0CF
:1009A000DF518A5D8A6FE0518B598B6F000E046EA8
:1009B0000C0E036ED5C001F0D6C002F02EEC20F074
:1009C000F00E0124D96E050E0220DA6EDECF13F090
:1009D000DECF14F0DECF15F0DECF16F0E1C001F06F
:1009E000E2C002F0000E02BEFF0E036E046E010EA6
:1009F0007CEC16F001C00FF002C010F003C011F043
:100A000004C012F047EC0FF00FC051F010C052F0CC
:100A100011C053F012C054F052EC1AF051C0D1F092
:100A200052C0D2F0D1C0C4F0D2C0C5F0D5C001F0E0
:100A3000D6C002F0000E046E0C0E036E2EEC20F0F9
:100A4000F40E0124D96E050E0220DA6EDECFC6F058
:100A5000DECFC7F0DECFC8F0DECFC9F056EC17F01E
:100A6000000E2C6E000E2D6E7A0E2E6E440E2F6E22
:100A7000000E046E0C0E036ED5C001F0D6C002F05D
:100A80002EEC20F0F00E0124D96E050E0220DA6E55
:100A9000DECF13F0DECF14F0DECF15F0DECF16F090
:100AA000E1C001F0E2C002F0000E02BEFF0E036ED4
:100AB000046E010E7CEC16F001C00FF002C010F0C5
:100AC00003C011F004C012F047EC0FF00FC028F083
:100AD00010C029F011C02AF012C02BF05CEC11F00C
:100AE00028C041F029C042F02AC043F02BC044F096
:100AF00074C045F075C046F076C047F077C048F046
:100B0000E7EC0CF041C074F042C075F043C076F0E1
:100B100044C077F0000E2C6E000E2D6E7A0E2E6EF5
:100B2000440E2F6E000E046E0C0E036ED5C001F045
:100B3000D6C002F02EEC20F0F00E0124D96E050E86
:100B40000220DA6EDECF13F0DECF14F0DECF15F028
:100B5000DECF16F0E1C001F0E2C002F0000E02BEEE
:100B6000FF0E036E046E010E7CEC16F001C00FF058
:100B700002C010F003C011F004C012F047EC0FF0F7
:100B80000FC028F010C029F011C02AF012C02BF0BD
:100B90005CEC11F028C045F029C046F02AC047F0AF
:100BA0002BC048F088C001F089C002F0000E02BEE0
:100BB000FF0E036E046E010E7CEC16F001C041F0D6
:100BC00002C042F003C043F004C044F0E7EC0CF074
:100BD00041C051F042C052F043C053F044C054F001
:100BE00052EC1AF051C088F052C089F0000189BF60
:100BF00002EF06F0895108E18805D8A002EF06F05F
:100C000004EF06F00EEF06F0DF518A258A6FE051FF
:100C10008B218B6F000E896F000E886F74C001F0FE
:100C200075C002F076C003F077C004F0000E056EC8
:100C3000000E066E700E076E410E086ED5EC1AF0AF
:100C4000D8A025EF06F027EF06F052EF08F00001DC
:100C5000DF4BE02BE1C001F0E2C002F0DFC003F0A7
:100C6000E0C004F094EC1CF001C0E1F002C0E2F03E
:100C7000000E0001746F000E756F000E766F000E8F
:100C8000776F52EF08F0D5C001F0D6C002F0000E29
:100C9000046E0C0E036E2EEC20F0F80E0124D96EBB
:100CA000050E0220DA6EDECF07F0DECF08F0DECFD1
:100CB00009F0DECF0AF0000E0B6E000E0C6E000E77
:100CC0000D6E000E0E6E50EC1DF0D8A06AEF06F00F
:100CD0006CEF06F052EF08F0010EADEC1FF0070EBE
:100CE0000001D06F7D0EE82EFED7D02FFCD7DDC0DF
:100CF00013F0DEC014F0000E0A6E000E096EF6EC62
:100D00001CF009C015F00AC016F002EC20F0000E2D
:100D1000DAEC1EF0070E0001D06F7D0EE82EFED734
:100D2000D02FFCD7000E146E010E136EDBC015F031
:100D3000DCC016F002EC20F0030EDAEC1EF0070E19
:100D40000001D06F7D0EE82EFED7D02FFCD7000E0D
:100D5000146E010E136E000E166E0C0E156E02EC64
:100D600020F0AD0E586E000E596E1A0E5A6E080E17
:100D70005B6E8AC05CF08BC05DF0B1EC1EF0AD0E16
:100D8000026E000E036E6BEC1FF0000E0A6E000E7A
:100D9000096EF6EC1CF00001DB51091807E1DC518B
:100DA0000A18D8A4D6EF06F0D8EF06F0E7EF06F061
:100DB000DD05DE11D8A4DFEF06F0E1EF06F0E7EF86
:100DC00006F0DF518A5D8A6FE0518B598B6F000E00
:100DD000046E0C0E036ED5C001F0D6C002F02EECEE
:100DE00020F0F00E0124D96E050E0220DA6EDECF5F
:100DF00013F0DECF14F0DECF15F0DECF16F0E1C039
:100E000001F0E2C002F0000E02BEFF0E036E046E9F
:100E1000010E7CEC16F001C00FF002C010F003C010
:100E200011F004C012F047EC0FF00FC051F010C0E9
:100E300052F011C053F012C054F052EC1AF051C0ED
:100E4000D3F052C0D4F0D3C0C4F0D4C0C5F0D5C0E4
:100E500001F0D6C002F0000E046E0C0E036E2EECF4
:100E600020F0F40E0124D96E050E0220DA6EDECFDA
:100E7000C6F0DECFC7F0DECFC8F0DECFC9F0E5ECBC
:100E800018F0000E2C6E000E2D6E7A0E2E6E440E93
:100E90002F6E000E046E0C0E036ED5C001F0D6C08E
:100EA00002F02EEC20F0F00E0124D96E050E022087
:100EB000DA6EDECF13F0DECF14F0DECF15F0DECF2A
:100EC00016F0E1C001F0E2C002F0000E02BEFF0E1B
:100ED000036E046E010E7CEC16F001C00FF002C030
:100EE00010F003C011F004C012F047EC0FF00FC077
:100EF00028F010C029F011C02AF012C02BF05CECD1
:100F000011F028C041F029C042F02AC043F02BC0A4
:100F100044F074C045F075C046F076C047F077C025
:100F200048F0E7EC0CF041C074F042C075F043C0EB
:100F300076F044C077F0000E2C6E000E2D6E7A0E07
:100F40002E6E440E2F6E000E046E0C0E036ED5C076
:100F500001F0D6C002F02EEC20F0F00E0124D96E84
:100F6000050E0220DA6EDECF13F0DECF14F0DECFF6
:100F700015F0DECF16F0E1C001F0E2C002F0000E85
:100F800002BEFF0E036E046E010E7CEC16F001C073
:100F90000FF002C010F003C011F004C012F047ECD3
:100FA0000FF00FC028F010C029F011C02AF012C0B5
:100FB0002BF05CEC11F028C045F029C046F02AC0A7
:100FC00047F02BC048F088C001F089C002F0000E45
:100FD00002BEFF0E036E046E010E7CEC16F001C023
:100FE00041F002C042F003C043F004C044F0E7EC1B
:100FF0000CF041C051F042C052F043C053F044C025
:1010000054F052EC1AF051C088F052C089F000013F
:1010100089BF13EF08F0895108E18805D8A013EFC4
:1010200008F015EF08F01FEF08F0DF518A258A6FEE
:10103000E0518B218B6F000E896F000E886F74C09A
:1010400001F075C002F076C003F077C004F0000E26
:10105000056E000E066E700E076E410E086ED5EC22
:101060001AF0D8A036EF08F038EF08F052EF08F089
:101070000001DF4BE02BE1C001F0E2C002F0DFC075
:1010800003F0E0C004F094EC1CF001C0E1F002C0F9
:10109000E2F0000E0001746F000E756F000E766FA7
:1010A000000E776F010EADEC1FF0070E0001D06F40
:1010B0007D0EE82EFED7D02FFCD70001864B872B64
:1010C000DB07D8A0DC07000E8C6F0E0E8619871187
:1010D000D8A46DEF08F06FEF08F0CEEF0CF0010E22
:1010E0008C6FCEEF0CF087BF78EF08F07AEF08F046
:1010F000CEEF0CF0DCBF88EF08F0DC5107E10F0EFB
:10110000DB5DD8B086EF08F088EF08F0CEEF0CF08A
:101110008C05D8A48EEF08F090EF08F0CEEF0CF01D
:10112000D5C001F0D6C002F0000E046E0C0E036EA6
:101130002EEC20F0F80E0124D96E050E0220DA6E96
:10114000DECF07F0DECF08F0DECF09F0DECF0AF009
:10115000000E0B6E000E0C6E800E0D6E3F0E0E6EAE
:1011600050EC1DF0D8A0B7EF08F0B9EF08F0A1EFF0
:101170000AF0010EADEC1FF0070E0001D06F7D0EDE
:10118000E82EFED7D02FFCD7DDC013F0DEC014F060
:10119000000E0A6E000E096EF6EC1CF009C015F088
:1011A0000AC016F002EC20F0000EDAEC1EF0070E7A
:1011B0000001D06F7D0EE82EFED7D02FFCD7000E99
:1011C000146E010E136EDBC015F0DCC016F002ECDD
:1011D00020F0010EDAEC1EF0070E0001D06F7D0E3C
:1011E000E82EFED7D02FFCD7000E146E010E136E22
:1011F000000E166E0C0E156E02EC20F0AD0E586E41
:10120000000E596E1A0E5A6E080E5B6E8AC05CF0A4
:101210008BC05DF0B1EC1EF0AD0E026E000E036EE1
:101220006BEC1FF0000E0A6E000E096EF6EC1CF05F
:101230000001DB51091807E1DC510A18D8A423EF9B
:1012400009F025EF09F034EF09F0DD05DE11D8A42F
:101250002CEF09F02EEF09F034EF09F0DF518A5D31
:101260008A6FE0518B598B6F000E046E0C0E036E6B
:10127000D5C001F0D6C002F02EEC20F0F00E012413
:10128000D96E050E0220DA6EDECF13F0DECF14F039
:10129000DECF15F0DECF16F0E1C001F0E2C002F0C3
:1012A000000E02BEFF0E036E046E010E7CEC16F003
:1012B00001C00FF002C010F003C011F004C012F022
:1012C00047EC0FF00FC051F010C052F011C053F0B6
:1012D00012C054F052EC1AF051C0D1F052C0D2F00A
:1012E000D1C0C4F0D2C0C5F0D5C001F0D6C002F064
:1012F000000E046E0C0E036E2EEC20F0F40E012492
:10130000D96E050E0220DA6EDECFC6F0DECFC7F052
:10131000DECFC8F0DECFC9F056EC17F0000E2C6E11
:10132000000E2D6E7A0E2E6E440E2F6E000E046E81
:101330000C0E036ED5C001F0D6C002F02EEC20F0EA
:10134000F00E0124D96E050E0220DA6EDECF13F006
:10135000DECF14F0DECF15F0DECF16F0E1C001F0E5
:10136000E2C002F0000E02BEFF0E036E046E010E1C
:101370007CEC16F001C00FF002C010F003C011F0B9
:1013800004C012F047EC0FF00FC028F010C029F095
:1013900011C02AF012C02BF05CEC11F028C041F013
:1013A00029C042F02AC043F02BC044F074C045F07D
:1013B00075C046F076C047F077C048F0E7EC0CF017
:1013C00041C074F042C075F043C076F044C077F07D
:1013D000000E2C6E000E2D6E7A0E2E6E440E2F6EA9
:1013E000000E046E0C0E036ED5C001F0D6C002F0E4
:1013F0002EEC20F0F00E0124D96E050E0220DA6EDC
:10140000DECF13F0DECF14F0DECF15F0DECF16F016
:10141000E1C001F0E2C002F0000E02BEFF0E036E5A
:10142000046E010E7CEC16F001C00FF002C010F04B
:1014300003C011F004C012F047EC0FF00FC028F009
:1014400010C029F011C02AF012C02BF05CEC11F092
:1014500028C045F029C046F02AC047F02BC048F00C
:1014600088C001F089C002F0000E02BEFF0E036EBC
:10147000046E010E7CEC16F001C041F002C042F097
:1014800003C043F004C044F0E7EC0CF041C051F05D
:1014900042C052F043C053F044C054F052EC1AF032
:1014A00051C088F052C089F0000189BF60EF0AF096
:1014B000895108E18805D8A060EF0AF062EF0AF0D0
:1014C0006CEF0AF0DF518A258A6FE0518B218B6F18
:1014D000000E896F000E886F74C001F075C002F0B5
:1014E00076C003F077C004F0000E056E000E066EA5
:1014F000700E076E410E086ED5EC1AF0D8A083EF7F
:101500000AF085EF0AF0B0EF0CF00001DF4BE02BA2
:10151000E1C001F0E2C002F0DFC003F0E0C004F07F
:1015200094EC1CF001C0E1F002C0E2F0000E0001FA
:10153000746F000E756F000E766F000E776FB0EF50
:101540000CF0D5C001F0D6C002F0000E046E0C0EF7
:10155000036E2EEC20F0F80E0124D96E050E022049
:10156000DA6EDECF07F0DECF08F0DECF09F0DECF97
:101570000AF0000E0B6E000E0C6E000E0D6E000ECB
:101580000E6E50EC1DF0D8A0C8EF0AF0CAEF0AF0BA
:10159000B0EF0CF0010EADEC1FF0070E0001D06FA4
:1015A0007D0EE82EFED7D02FFCD7DDC013F0DEC0B5
:1015B00014F0000E0A6E000E096EF6EC1CF009C065
:1015C00015F00AC016F002EC20F0000EDAEC1EF066
:1015D000070E0001D06F7D0EE82EFED7D02FFCD76E
:1015E000000E146E010E136EDBC015F0DCC016F099
:1015F00002EC20F0010EDAEC1EF0070E0001D06FB5
:101600007D0EE82EFED7D02FFCD7000E146E010EF3
:10161000136E000E166E0C0E156E02EC20F0AD0E61
:10162000586E000E596E1A0E5A6E080E5B6E8AC006
:101630005CF08BC05DF0B1EC1EF0AD0E026E000EE2
:10164000036E6BEC1FF0000E0A6E000E096EF6ECD6
:101650001CF00001DB51091807E1DC510A18D8A47D
:1016600034EF0BF036EF0BF045EF0BF0DD05DE113C
:10167000D8A43DEF0BF03FEF0BF045EF0BF0DF513F
:101680008A5D8A6FE0518B598B6F000E046E0C0ED1
:10169000036ED5C001F0D6C002F02EEC20F0F00EA3
:1016A0000124D96E050E0220DA6EDECF13F0DECFF4
:1016B00014F0DECF15F0DECF16F0E1C001F0E2C08D
:1016C00002F0000E02BEFF0E036E046E010E7CECF3
:1016D00016F001C00FF002C010F003C011F004C0FA
:1016E00012F047EC0FF00FC051F010C052F011C0D3
:1016F00053F012C054F052EC1AF051C0D3F052C063
:10170000D4F0D3C0C4F0D4C0C5F0D5C001F0D6C069
:1017100002F0000E046E0C0E036E2EEC20F0F40EA0
:101720000124D96E050E0220DA6EDECFC6F0DECFC0
:10173000C7F0DECFC8F0DECFC9F0E5EC18F0000E40
:101740002C6E000E2D6E7A0E2E6E440E2F6E000E35
:10175000046E0C0E036ED5C001F0D6C002F02EEC64
:1017600020F0F00E0124D96E050E0220DA6EDECFD5
:1017700013F0DECF14F0DECF15F0DECF16F0E1C0AF
:1017800001F0E2C002F0000E02BEFF0E036E046E16
:10179000010E7CEC16F001C00FF002C010F003C087
:1017A00011F004C012F047EC0FF00FC028F010C089
:1017B00029F011C02AF012C02BF05CEC11F028C007
:1017C00041F029C042F02AC043F02BC044F074C05D
:1017D00045F075C046F076C047F077C048F0E7ECBA
:1017E0000CF041C074F042C075F043C076F044C0C4
:1017F00077F0000E2C6E000E2D6E7A0E2E6E440EBB
:101800002F6E000E046E0C0E036ED5C001F0D6C014
:1018100002F02EEC20F0F00E0124D96E050E02200D
:10182000DA6EDECF13F0DECF14F0DECF15F0DECFB0
:1018300016F0E1C001F0E2C002F0000E02BEFF0EA1
:10184000036E046E010E7CEC16F001C00FF002C0B6
:1018500010F003C011F004C012F047EC0FF00FC0FD
:1018600028F010C029F011C02AF012C02BF05CEC57
:1018700011F028C045F029C046F02AC047F02BC01F
:1018800048F088C001F089C002F0000E02BEFF0ED1
:10189000036E046E010E7CEC16F001C041F002C034
:1018A00042F003C043F004C044F0E7EC0CF041C048
:1018B00051F042C052F043C053F044C054F052ECD7
:1018C0001AF051C088F052C089F0000189BF71EF51
:1018D0000CF0895108E18805D8A071EF0CF073EF86
:1018E0000CF07DEF0CF0DF518A258A6FE0518B21DF
:1018F0008B6F000E896F000E886F74C001F075C089
:1019000002F076C003F077C004F0000E056E000E02
:10191000066E700E076E410E086ED5EC1AF0D8A058
:1019200094EF0CF096EF0CF0B0EF0CF00001DF4BF1
:10193000E02BE1C001F0E2C002F0DFC003F0E0C044
:1019400004F094EC1CF001C0E1F002C0E2F0000EE3
:101950000001746F000E756F000E766F000E776FCA
:10196000010EADEC1FF0070E0001D06F7D0EE82ECA
:10197000FED7D02FFCD700018607D8A08707DB4B06
:10198000DC2B010E8C6F86518711D8A4CAEF0CF0A6
:10199000CCEF0CF0CEEF0CF0000E8C6FD54BD62BAD
:1019A000D6BFDCEF0CF0D65109E12C0ED55DD8A0E6
:1019B000DCEF0CF0DEEF0CF015EF04F000018BBF54
:1019C000E6EF0CF0E4EF0CF011EF04F012004450DD
:1019D000800B4D6E445044244F6E43AEF2EF0CF03A
:1019E000F4EF0CF0F5EF0CF04F804F50D8B4FBEF54
:1019F0000CF0FDEF0CF012EF0DF04F28D8A403EF20
:101A00000DF005EF0DF00DEF0DF0000E416E000E24
:101A1000426E000E436E000E446E438E000E446E06
:101A20001AEF0DF0000E416E000E426E000E436E76
:101A3000000E446E4850800B4E6E4D504E18D8B478
:101A400024EF0DF026EF0DF027EF0DF04D8C4850F0
:101A500048244E6E47AE2FEF0DF031EF0DF032EF10
:101A60000DF04E804E50D8B438EF0DF03AEF0DF037
:101A70004FEF0DF04E28D8A440EF0DF042EF0DF0DF
:101A80004AEF0DF0000E456E000E466E000E476EDA
:101A9000000E486E478E000E486E57EF0DF0000E98
:101AA000456E000E466E000E476E000E486E4F509B
:101AB0004E5CD8B05EEF0DF060EF0DF087EF0DF0EB
:101AC0004DAC65EF0DF067EF0DF069EF0DF0800E96
:101AD0004D1A4FC050F04EC04FF050C04EF041C0B4
:101AE00050F045C041F050C045F042C050F046C0F3
:101AF00042F050C046F043C050F047C043F050C0E1
:101B000047F044C050F048C044F050C048F0000EC8
:101B1000506E4F504EC049F04A6A495E000E4A5A14
:101B20004ABE9CEF0DF04A5009E11A0E495CD8A05C
:101B30009CEF0DF09EEF0DF0D5EF0DF041504210EF
:101B400043104410D8A4A7EF0DF0AAEF0DF0010E3A
:101B5000ABEF0DF0000E506E000E416E000E426EA7
:101B6000000E436E000E446E4EC04FF0DEEF0DF0DF
:101B700050A0BDEF0DF0BFEF0DF0C5EF0DF0D89008
:101B800050300109506EC7EF0DF0D890503241A08F
:101B9000CCEF0DF0CEEF0DF0CFEF0DF0508E4434C2
:101BA00044324332423241324F2A4E504F5CD8A029
:101BB000DCEF0DF0DEEF0DF0B8EF0DF04DBCE3EF14
:101BC0000DF0E5EF0DF025EF0EF04F50D8A4EBEF40
:101BD0000DF0EDEF0DF0F7EF0DF0000E416E000E81
:101BE000426E000E436E000E446E46EF0FF04550FD
:101BF000412646504222475043224850442244A0A6
:101C000004EF0EF006EF0EF0B2EF0EF050A00BEF67
:101C10000EF00DEF0EF013EF0EF0D89050300109DA
:101C2000506E15EF0EF0D890503241A01AEF0EF022
:101C30001CEF0EF01DEF0EF0508E44344432433250
:101C4000423241324F2AB2EF0EF04550415C4650CD
:101C50004258475043584450800A496E4850800AC1
:101C60004958D8B036EF0EF038EF0EF063EF0EF0B3
:101C70004150455C496E425046584A6E4350475861
:101C80004B6E445048584C6EFF0E4924416EFF0E77
:101C90004A20426EFF0E4B20436EFF0E4C20446ED6
:101CA000800E4D1A506C5050D8A459EF0EF05BEFD7
:101CB0000EF06BEF0EF0010E4126000E4222432281
:101CC00044226BEF0EF04550415E4650425A475059
:101CD000435A4850445A4150421043104410D8A42B
:101CE00074EF0EF076EF0EF0ABEF0EF05050D8A47C
:101CF0007CEF0EF07EEF0EF0ABEF0EF0000E416EBB
:101D0000000E426E000E436E000E446E46EF0FF062
:101D1000D890413642364336443650AE92EF0EF0FC
:101D200094EF0EF095EF0EF0418050A09AEF0EF078
:101D30009CEF0EF0A0EF0EF0D8805036A2EF0EF020
:101D4000D89050364F50D8B4A8EF0EF0AAEF0EF04E
:101D5000ABEF0EF04F0643AEB0EF0EF0B2EF0EF069
:101D600088EF0EF0000E4E6E50AEB9EF0EF0BBEFE6
:101D70000EF0D3EF0EF050C049F07F0E4916D8B4E4
:101D8000C4EF0EF0C6EF0EF0CAEF0EF0010E4E6E6D
:101D9000D3EF0EF041A0CFEF0EF0D1EF0EF0D3EF66
:101DA0000EF0C6EF0EF04E50D8B4D9EF0EF0DBEFC8
:101DB0000EF006EF0FF0010E4126000E42224322E4
:101DC000442244A0E6EF0EF0E8EF0EF006EF0FF02D
:101DD00041C049F042C04AF043C04BF044C04CF00F
:101DE0004C344C324B324A32493249C041F04AC03D
:101DF00042F04BC043F04CC044F04F28D8B403EF3E
:101E00000FF005EF0FF006EF0FF04F2A4F28D8B470
:101E10000CEF0FF00EEF0FF016EF0FF04F50D8A4AD
:101E200014EF0FF016EF0FF028EF0FF0000E416ED9
:101E3000000E426E000E436E000E446E4F50D8A44A
:101E400024EF0FF026EF0FF028EF0FF0000E4D6E8D
:101E50004FA02DEF0FF02FEF0FF032EF0FF0438E6A
:101E600033EF0FF0439ED8904F30446E4DAE3BEFB2
:101E70000FF03DEF0FF03EEF0FF0448E41C041F008
:101E800042C042F043C043F044C044F0120012503C
:101E9000800B1B6E12501224216E11AE52EF0FF008
:101EA00054EF0FF055EF0FF021802150D8B45BEFC5
:101EB0000FF05DEF0FF070EF0FF02128D8A463EF63
:101EC0000FF065EF0FF06DEF0FF0000E0F6E000ECC
:101ED000106E000E116E000E126E118E78EF0FF064
:101EE000000E0F6E000E106E000E116E000E126EC0
:101EF0001650800B1B1A16501624206E15AE83EF59
:101F00000FF085EF0FF086EF0FF020802050D8B44F
:101F10008CEF0FF08EEF0FF0A1EF0FF02028D8A478
:101F200094EF0FF096EF0FF09EEF0FF0000E136E90
:101F3000000E146E000E156E000E166E158EA9EFB3
:101F40000FF0000E136E000E146E000E156E000ED4
:101F5000166E2050D8B4AFEF0FF0B1EF0FF0B9EF1D
:101F60000FF02150D8A4B7EF0FF0B9EF0FF0C3EF87
:101F70000FF0000E0F6E000E106E000E116E000EB0
:101F8000126E5BEF11F015500F02F3CF26F0F4CF75
:101F900027F026501C6E1D6A1E6A1F6A2750226E8B
:101FA000236A246A256A14501002F3CF26F0F4CF76
:101FB00027F026501C26000E1D221E221F2227500D
:101FC0002226000E23222422252213501102F3CFB1
:101FD00026F0F4CF27F026501C26000E1D221E22CC
:101FE0001F2227502226000E2322242225221EC033
:101FF0001FF01DC01EF01CC01DF01C6A1350100203
:10200000F3CF26F0F4CF27F026501C2627501D22B0
:10201000000E1E22000E1F2214500F02F3CF26F0D6
:10202000F4CF27F026501C2627501D22000E1E221A
:10203000000E1F221EC01FF01DC01EF01CC01DF090
:102040001C6A13500F02F3CF26F0F4CF27F026506E
:102050001C2627501D22000E1E22000E1F22155086
:102060001002F3CF26F0F4CF27F026502226275077
:102070002322000E2422000E252214501102F3CF39
:1020800026F0F4CF27F02650222627502322000ED8
:102090002422000E252215501102F3CF26F0F4CF92
:1020A00027F02650176E2750186E196A1A6A19C041
:1020B0001AF018C019F017C018F0176A1750222626
:1020C00018502322195024221A5025221CC017F020
:1020D0001DC018F01EC019F01FC01AF0190E76EFBF
:1020E00010F0D8901A32193218321732E82E71EFE8
:1020F00010F01750222618502322195024221A506B
:1021000025221EC01FF01DC01EF01CC01DF01C6A41
:10211000205021C017F0186A1726000E1822820ED0
:102120001724266EFF0E1820276EACEF10F0D89003
:1021300022362336243625361FAEA1EF10F0A3EF4A
:1021400010F0A4EF10F02280D8901C361D361E36F9
:102150001F362606D8A0270624AEB1EF10F0B3EF45
:1021600010F097EF10F0000E206E1FAEBAEF10F0D7
:10217000BCEF10F0E0EF10F0FF0E1C14176EFF0E16
:102180001D14186EFF0E1E14196E7F0E1F141A6E8A
:102190001750181019101A10D8B4D1EF10F0D3EF4F
:1021A00010F0D7EF10F0010E206EE0EF10F022A03B
:1021B000DCEF10F0DEEF10F0E0EF10F0D3EF10F0F6
:1021C0002050D8B4E6EF10F0E8EF10F00CEF11F06B
:1021D000010E2226000E23222422252225A0F3EF21
:1021E00010F0F5EF10F00CEF11F022C017F023C043
:1021F00018F024C019F025C01AF01A341A32193216
:102200001832173217C022F018C023F019C024F07A
:102210001AC025F0264A272A27BE17EF11F02750AB
:1022200008E12628D8A017EF11F019EF11F023EFDD
:1022300011F0000E226E000E236E800E246E7F0EB3
:10224000256E51EF11F027BE30EF11F0275006E157
:102250002604D8B02EEF11F030EF11F03CEF11F062
:10226000000E226E000E236E000E246E000E256EF0
:10227000000E1B6E51EF11F026C021F0FF0E22164A
:10228000FF0E23167F0E2416000E251621A04BEFFD
:1022900011F04DEF11F04EEF11F0248ED890213057
:1022A000256E1B50251222C00FF023C010F024C051
:1022B00011F025C012F012002B50800B386E2B50FD
:1022C0002B243F6E2AAE67EF11F069EF11F06AEF31
:1022D00011F03F803F50D8B470EF11F072EF11F061
:1022E00087EF11F03F28D8A478EF11F07AEF11F0C2
:1022F00082EF11F0000E286E000E296E000E2A6E7D
:10230000000E2B6E2A8E000E2B6E8FEF11F0000E3A
:10231000286E000E296E000E2A6E000E2B6E2F50B6
:10232000800B381A2F502F24406E2EAE9AEF11F0EA
:102330009CEF11F09DEF11F040804050D8B4A3EF16
:1023400011F0A5EF11F0BAEF11F04028D8A4ABEFCF
:1023500011F0ADEF11F0B5EF11F0000E2C6E000E84
:102360002D6E000E2E6E000E2F6E2E8E000E2F6E16
:10237000C2EF11F0000E2C6E000E2D6E000E2E6EB0
:10238000000E2F6E2C502D102E102F10D8A4CBEF36
:1023900011F0CDEF11F0E5EF11F0000E286E000EF8
:1023A000296E000E2A6E000E2B6E800E2A127F0EF2
:1023B0002B1238502B1228C028F029C029F02AC02F
:1023C0002AF02BC02BF028EF13F03F50D8A4EBEFEE
:1023D00011F0EDEF11F0F7EF11F0000E286E000E86
:1023E000296E000E2A6E000E2B6E28EF13F040505F
:1023F0003FC030F0316A305E000E315A7F0E30241B
:10240000396E000E31203A6E28C034F029C035F004
:102410002AC036F02BC037F0000E286E000E296E51
:10242000000E2A6E000E2B6E000E3B6E000E3C6EF0
:10243000000E3D6E000E3E6E000E406E58EF12F024
:102440004050D8B426EF12F028EF12F03FEF12F010
:10245000D8903436353636363736D8902836293641
:102460002A362B363EAE37EF12F039EF12F03AEF44
:1024700012F02880D8903B363C363D363E362C5004
:10248000345C2D5035582E5036582F503758D8A020
:102490004CEF12F04EEF12F057EF12F03E8C2C5032
:1024A000345E2D50355A2E50365A2F50375A402A06
:1024B000190E40645EEF12F060EF12F020EF12F0A0
:1024C0003450351036103710D8B469EF12F06BEF76
:1024D00012F083EF12F03B8083EF12F0D890283691
:1024E00029362A362B363EAE78EF12F07AEF12F00C
:1024F0007BEF12F02880D8903B363C363D363E3696
:102500003906D8A03A062AAE88EF12F08AEF12F008
:102510006EEF12F0000E406E3EAE91EF12F093EFB0
:1025200012F0B7EF12F0FF0E3B14306EFF0E3C14AA
:10253000316EFF0E3D14326E7F0E3E14336E3050FE
:10254000311032103310D8B4A8EF12F0AAEF12F005
:10255000AEEF12F0010E406EB7EF12F028A0B3EF0D
:1025600012F0B5EF12F0B7EF12F0AAEF12F04050F0
:10257000D8B4BDEF12F0BFEF12F0E3EF12F0010E8E
:102580002826000E29222A222B222BA0CAEF12F085
:10259000CCEF12F0E3EF12F028C030F029C031F098
:1025A0002AC032F02BC033F033343332323231327E
:1025B000303230C028F031C029F032C02AF033C0A8
:1025C0002BF0394A3A2A3ABEEEEF12F03A5008E1BF
:1025D0003928D8A0EEEF12F0F0EF12F0FBEF12F076
:1025E000000E3A6E3968000E286E000E296E000E3D
:1025F0002A6E000E2B6E3ABE08EF13F03A5006E139
:102600003904D8B006EF13F008EF13F016EF13F00B
:10261000000E3A6E000E396E000E286E000E296E06
:10262000000E2A6E000E2B6E000E386E39C03FF081
:102630003FA01DEF13F01FEF13F022EF13F02A8ECF
:1026400023EF13F02A9ED8903F302B6ED9EF11F074
:1026500012001EC036F01FC037F020C038F021C075
:1026600039F022C03AF023C03BF024C03CF025C032
:102670003DF03DBE3EEF13F041EF13F0010E42EF8F
:1026800013F0000E346E356A34503510D8B44BEF69
:1026900013F04DEF13F05DEF13F03D1E3C1E3B1E9B
:1026A0003A1E391E381E371E366C000E372238226D
:1026B00039223A223B223C223D2200017DBF63EFBA
:1026C00013F065EF13F066EF13F07E937DBF73EFA9
:1026D00013F07D5106E17C05D8B071EF13F073EF74
:1026E00013F079EF13F0000E316E010E306E7DEFB6
:1026F00013F07CC030F07DC031F07AC032F07BC086
:1027000033F034503510D8A488EF13F08AEF13F06B
:1027100091EF13F07EA58FEF13F091EF13F094EF8C
:1027200013F03206D8A03306000E3F6E1F0E3E6E29
:10273000000EAC6F18EF14F03E06D8A03F068D0EC9
:102740003E24D96E000E3F20DA6E36C001F037C04D
:1027500002F038C003F039C004F03AC005F03BC0C5
:1027600006F03CC007F03DC008F00A0E096E000EEE
:102770000A6E000E0B6E000E0C6E000E0D6E000E3B
:102780000E6E000E0F6E000E106EA0EC19F001C060
:1027900026F002C027F003C028F004C029F005C0CD
:1027A0002AF006C02BF007C02CF008C02DF026C080
:1027B00013F028C014F08DEC1FF01350300FDF6EB3
:1027C0003006D8A031063206D8A0330636C001F054
:1027D00037C002F038C003F039C004F03AC005F049
:1027E0003BC006F03CC007F03DC008F00A0E096E81
:1027F000000E0A6E000E0B6E000E0C6E000E0D6EBB
:10280000000E0E6E000E0F6E000E106E21EC18F012
:1028100001C036F002C037F003C038F004C039F010
:1028200005C03AF006C03BF007C03CF008C03DF0E0
:102830003FBE23EF14F03F5008E13E04D8A023EF41
:1028400014F025EF14F056EF14F03650371038100E
:1028500039103A103B103C103D10D8A432EF14F060
:1028600034EF14F09CEF13F031BE41EF14F031500F
:1028700006E13004D8B03FEF14F041EF14F09CEFC4
:1028800013F033BE4CEF14F0335008E13204D8A0FB
:102890004CEF14F04EEF14F056EF14F000017EB33D
:1028A00054EF14F056EF14F09CEF13F03450351041
:1028B000D8A45DEF14F05FEF14F067EF14F000019F
:1028C0007EA565EF14F067EF14F085EF14F03E0677
:1028D000D8A03F0634503510D8A471EF14F073EF30
:1028E00014F079EF14F0000E2F6E2B0E2E6E7DEF8C
:1028F00014F0000E2F6E2D0E2E6E8D0E3E24D96E0E
:10290000000E3F20DA6E2EC0DFFF1CC011F01DC08C
:1029100012F08D0E3E24136E000E3F20146E32C056
:1029200015F033C016F031EC1CF011C01CF012C0D1
:102930001DF012000000803F0E2D42400000803F3D
:102940000000803F0E2D42400000803F0000803F8D
:102950000E2D42400000803F0000403FE17A74406D
:102960000000803F0000803E333323400000803F62
:102970000000803F0E2D42400000803F0000403F9D
:10298000E17A74400000803F0000803E964323407F
:102990000000803F0000803F0E2D42400000803F3D
:1029A0000000803FC1CA01400000803F0000803F1E
:1029B000C1CA01400000803F0000803FC1CA014001
:1029C0000000803F0000403FA69BF43F0000803F96
:1029D0000000803E964323400000803F0000803F7F
:1029E0003D0A67400000803F0000403FE17A7440AC
:1029F0000000803F0000803E964323400000803F5F
:102A00000000803F0E2D42400000803F0000803FCC
:102A10000E2DC23F0000803F0000403F0E2D42407F
:102A20000000803F0000803E0E2D42400000803FAD
:102A30000000803F0E2DC23F0000803F0000403F5D
:102A40002DB2CD3F0000803F0000803EE7FBD93F24
:102A50000000803F0000803E79E9E63F0000803FB3
:102A60000000803EA69BF43F0000803F9A99193FEA
:102A700079E9E63F0000803FCDCC4C3E0000803F2E
:102A8000000000009A99193F643B37400000803FE6
:102A90000000803FAE4709400000803F0000403FFB
:102AA000D57811400000803F0000803EAC1C1A40E9
:102AB0000000803F0000803E964323400000803F9E
:102AC0000000803EF4FD2C400000803F9A99193FA1
:102AD000964323400000803FCDCC4C3E0000803F19
:102AE000000000009A99193FA69B74400000803FA7
:102AF0000000803F79E966400000803F0000403FD1
:102B0000A69B74400000803F0000803E9643234017
:102B10000000803F0000803F0E2D42400000803FBB
:102B20000000403FA69B74400000803F0000803EB4
:102B3000964323400000803F0000803F0E2D42401E
:102B40000000803F42C0D9FF43C0DAFFDECFF6FF6E
:102B5000DDCFF7FF0800F550250AD8A4B2EF15F035
:102B6000B4EF15F060EF16F042C0D9FF43C0DAFFB2
:102B7000DE2A000EDD22000E00017B6F000E7A6F50
:102B80007AC07EF07BC07FF07C697D6942C0D9FF4E
:102B900043C0DAFFDECFF6FFDDCFF7FF0800F550C8
:102BA000640AD8B4D6EF15F0D8EF15F0EAEF15F0B7
:102BB00042C0D9FF43C0DAFFDECFF6FFDDCFF7FF1B
:102BC0000800F550690AD8A4E8EF15F0EAEF15F00F
:102BD0002AEF16F042C0D9FF43C0DAFFDE2A000E0A
:102BE000DD2244C0D9FF45C0DAFFDFCF46F0020E38
:102BF000DE26DFCF47F0000EDD2246C0D9FF47C0FA
:102C0000DAFFDECF48F0DDCF49F0000E49BEFF0EFF
:102C10004A6E4B6E4C6E4D6E4E6E4F6E40C01CF049
:102C200041C01DF048C01EF049C01FF04AC020F04E
:102C30004BC021F04CC022F04DC023F04EC024F018
:102C40004FC025F029EC13F01CC040F01DC041F02E
:102C50007BEF16F042C0D9FF43C0DAFFDECFF6FFAC
:102C6000DDCFF7FF0800F550250AD8A43AEF16F09B
:102C70003CEF16F053EF16F042C0D9FF43C0DAFF25
:102C8000DE2A000EDD22000E026E250E016E40C00F
:102C900003F041C004F0CCEC1BF0000E416E010EBD
:102CA000406E7BEF16F042C0D9FF43C0DAFFDE2A48
:102CB000000EDD22000E416E000E406E7BEF16F01E
:102CC00042C0D9FF43C0DAFFDECFF6FFDDCFF7FF0A
:102CD0000800F550016E026A40C003F041C004F0E4
:102CE000CCEC1BF042C0D9FF43C0DAFFDE2A000E55
:102CF000DD224DEF16F01200096E0950D8B483EFB3
:102D000016F085EF16F0A7EF16F004BE8CEF16F064
:102D10008AEF16F0A7EF16F001C005F002C006F02A
:102D200003C007F004C008F0051E061E071E081E9B
:102D3000052A000E06220722082205C00BF006C055
:102D40000CF007C00DF008C00EF0AFEF16F001C098
:102D50000BF002C00CF003C00DF004C00EF00150E7
:102D6000021003100410D8A4B8EF16F0BAEF16F052
:102D7000C4EF16F0000E016E000E026E000E036E20
:102D8000000E046E55EF17F0960E0A6ECEEF16F099
:102D90000A2AD8900E320D320C320B32000E0B1470
:102DA000056E000E0C14066E000E0D14076EFE0E5E
:102DB0000E14086E0550061007100810D8A4E3EF93
:102DC00016F0E5EF16F0C8EF16F0F3EF16F00A2A4A
:102DD000010E0B26000E0C220D220E22D8900E3270
:102DE0000D320C320B32000E0B14056E000E0C145B
:102DF000066E000E0D14076EFF0E0E14086E0550C1
:102E0000061007100810D8A408EF17F00AEF17F003
:102E1000E7EF16F012EF17F00A06D8900B360C36D3
:102E20000D360E360DBE17EF17F019EF17F021EF24
:102E300017F0020E0A601FEF17F021EF17F00CEFEA
:102E400017F00AB026EF17F028EF17F029EF17F068
:102E50000D9ED8900A320AC005F0066A076A086A11
:102E600005C008F0076A066A056A05500B1206508D
:102E70000C1207500D1208500E120950D8B443EF2F
:102E800017F045EF17F04DEF17F004BE4CEF17F0B9
:102E90004AEF17F04DEF17F00E8E0BC001F00CC08B
:102EA00002F00DC003F00EC004F01200C6C02CF0FA
:102EB000C7C02DF0C8C02EF0C9C02FF0C4C001F0AB
:102EC000C5C002F0000E02BEFF0E036E046E010EBE
:102ED0007CEC16F001C028F002C029F003C02AF0F3
:102EE00004C02BF05CEC11F028C051F029C052F066
:102EF0002AC053F02BC054F052EC1AF051C0CEF05F
:102F000052C0CFF0000E2C6E000E2D6E000E2E6EF5
:102F1000400E2F6EC6C028F0C7C029F0C8C02AF0E6
:102F2000C9C02BF05CEC11F028C0CAF029C0CBF06E
:102F30002AC0CCF02BC0CDF0000E516E000E526EA8
:102F40007F0E536E430E546E170E2C6EB70E2D6E01
:102F5000D10E2E6E3C0E2F6ECAC028F0CBC029F0C9
:102F6000CCC02AF0CDC02BF05CEC11F028C055F09D
:102F700029C056F02AC057F02BC058F003EC1FF0C0
:102F800051C0C6F052C0C7F053C0C8F054C0C9F019
:102F9000000E0001836F000E826F11EF18F081A008
:102FA000D4EF17F0D6EF17F0DCEF17F0000EDE6F5E
:102FB000000EDD6FE0EF17F0000EDE6F010EDD6F2B
:102FC0008182C6C051F0C7C052F0C8C053F0C9C01A
:102FD00054F052EC1AF051C0D6FF52C0D7FFF2A401
:102FE000F4EF17F0F6EF17F0EFEF17F0F29481928D
:102FF000C6C051F0C7C052F0C8C053F0C9C054F0A9
:1030000052EC1AF051C0D6FF52C0D7FFF2A40BEF1A
:1030100018F00DEF18F006EF18F0F2940001824B53
:10302000832BCE51825D8351800A5B6ECF51800A23
:103030005B58D8A01EEF18F020EF18F0CFEF17F074
:103040001200000E126E10BE2AEF18F028EF18F0D2
:103050003CEF18F0101E0F1E0E1E0D1E0C1E0B1E38
:103060000A1E096C000E0A220B220C220D220E22CF
:103070000F221022010E126E08BE43EF18F041EF2E
:1030800018F055EF18F0081E071E061E051E041E38
:10309000031E021E016C000E0222032204220522DE
:1030A000062207220822010E121A20EE13F0070E44
:1030B000DE6AE806FDE209500A100B100C100D1034
:1030C0000E100F101010D8B468EF18F06AEF18F057
:1030D000BCEF18F0010E116E78EF18F0D890093699
:1030E0000A360B360C360D360E360F361036112AD0
:1030F00010AE7DEF18F07FEF18F06EEF18F0D8905B
:1031000013361436153616361736183619361A365B
:103110000950015C0A5002580B5003580C500458D7
:103120000D5005580E5006580F50075810500858AB
:10313000D8A09DEF18F09FEF18F0B0EF18F00950ED
:10314000015E0A50025A0B50035A0C50045A0D509B
:10315000055A0E50065A0F50075A1050085A13803D
:10316000D89010320F320E320D320C320B320A323E
:103170000932112E7FEF18F01250D8B4C2EF18F0B8
:10318000C4EF18F0D4EF18F01A1E191E181E171EDF
:10319000161E151E141E136C000E14221522162264
:1031A0001722182219221A2213C001F014C002F0AB
:1031B00015C003F016C004F017C005F018C006F0E3
:1031C00019C007F01AC008F01200C6C02CF0C7C022
:1031D0002DF0C8C02EF0C9C02FF0C4C001F0C5C08A
:1031E00002F0000E02BEFF0E036E046E010E7CECB8
:1031F00016F001C028F002C029F003C02AF004C074
:103200002BF05CEC11F028C051F029C052F02AC01C
:1032100053F02BC054F052EC1AF051C0C4F052C01D
:10322000C5F0000E2C6E000E2D6E000E2E6E400EA0
:103230002F6EC6C028F0C7C029F0C8C02AF0C9C088
:103240002BF05CEC11F028C05CF029C05DF02AC0C6
:103250005EF02BC05FF0000E516E000E526E7F0EBE
:10326000536E430E546E170E2C6EB70E2D6ED10E8C
:103270002E6E3C0E2F6E5CC028F05DC029F05EC043
:103280002AF05FC02BF05CEC11F028C055F029C08B
:1032900056F02AC057F02BC058F003EC1FF051C075
:1032A000C6F052C0C7F053C0C8F054C0C9F0000EF9
:1032B0000001836F000E826F90EF19F081A063EF21
:1032C00019F065EF19F06BEF19F0000EDE6F000ECC
:1032D000DD6F6FEF19F0000EDE6F010EDD6F819272
:1032E000C6C051F0C7C052F0C8C053F0C9C054F0B6
:1032F00052EC1AF051C0D6FF52C0D7FF8192C6C01F
:1033000051F0C7C052F0C8C053F0C9C054F052ECDD
:103310001AF051C0D6FF52C0D7FF0001824B832B59
:10332000C451825D8351800A5B6EC551800A5B582F
:10333000D8A09DEF19F09FEF19F05EEF19F0120081
:10334000000E126E08BEA9EF19F0A7EF19F0BBEF3F
:1033500019F0081E071E061E051E041E031E021E6F
:10336000016C000E022203220422052206220722FB
:103370000822010E126E10BEC2EF19F0C0EF19F054
:10338000D2EF19F0101E0F1E0E1E0D1E0C1E0B1E6E
:103390000A1E096C000E0A220B220C220D220E229C
:1033A0000F22102209500A100B100C100D100E10D5
:1033B0000F101010D8B4DFEF19F0E1EF19F029EF7A
:1033C0001AF0010E116EEFEF19F0D89009360A3697
:1033D0000B360C360D360E360F361036112A10AE5F
:1033E000F4EF19F0F6EF19F0E5EF19F00950015C70
:1033F0000A5002580B5003580C5004580D500558F1
:103400000E5006580F50075810500858D8A00BEF10
:103410001AF00DEF1AF01DEF1AF00950015E0A5074
:10342000025A0B50035A0C50045A0D50055A0E50B4
:10343000065A0F50075A1050085AD89010320F32BF
:103440000E320D320C320B320A320932112EF6EFE7
:1034500019F01250D8B42FEF1AF031EF1AF041EFF3
:103460001AF0081E071E061E051E041E031E021E5D
:10347000016C000E022203220422052206220722EA
:10348000082201C001F002C002F003C003F004C032
:1034900004F005C005F006C006F007C007F008C03C
:1034A00008F01200533454345A6E5A50D8A45BEFCB
:1034B0001AF05DEF1AF067EF1AF0000E516E000E71
:1034C000526E000E536E000E546ED4EF1AF051C0BF
:1034D00055F052C056F053C057F054C058F0200E6B
:1034E00077EF1AF0D8905832573256325532E82ECC
:1034F00072EF1AF05550596E538EFF0E5116FF0E93
:103500005216FF0E5316000E5416960E5A5E5ABEF1
:103510008EEF1AF08CEF1AF0A4EF1AF05A50800ACE
:10352000970FD8B096EF1AF098EF1AF09AEF1AF0BA
:103530005DEF1AF0D89054325332523251325A3E23
:103540009AEF1AF0BCEF1AF01F0E5A64AAEF1AF0A5
:10355000ACEF1AF0B4EF1AF05DEF1AF0D8905136D4
:103560005236533654365A065A50D8A4BAEF1AF087
:10357000BCEF1AF0AEEF1AF05950D8B4C2EF1AF0FF
:10358000C4EF1AF0CCEF1AF0541E531E521E516CA9
:10359000000E52225322542251C051F052C052F018
:1035A00053C053F054C054F01200000E0114096EC1
:1035B000000E02140A6E800E03140B6E7F0E0414AC
:1035C0000C6E09500A100B100C10D8A4EAEF1AF078
:1035D000ECEF1AF0F4EF1AF0000E016E000E026E1E
:1035E000000E036E000E046E000E0514096E000E30
:1035F00006140A6E800E07140B6E7F0E08140C6EF4
:1036000009500A100B100C10D8A409EF1BF00BEF97
:103610001BF013EF1BF0000E056E000E066E000E81
:10362000076E000E086E04AE18EF1BF01AEF1BF0C9
:1036300023EF1BF0016C021ED8B0022A031ED8B083
:10364000032A800E045608AE28EF1BF02AEF1BF069
:1036500033EF1BF0056C061ED8B0062A071ED8B043
:10366000072A800E0856000E011A000E021A000EDC
:10367000031A800E041A000E051A000E061A000E18
:10368000071A800E081A0550015C065002580750B0
:10369000035808500458D8B050EF1BF052EF1BF0FD
:1036A00055EF1BF0D89056EF1BF0D8801200056E36
:1036B000F00E8316F00E9516959C959A95988C9C15
:1036C0008C9A8C9862EC20F0300EADEC1FF000D09C
:1036D00000D000F0300EADEC1FF000D000D000F0B4
:1036E000320EADEC1FF026EC1FF00009D8A47BEFE2
:1036F0001BF07DEF1BF073EF1BF026EC1FF00009B1
:10370000D8A485EF1BF087EF1BF07DEF1BF0055071
:10371000ADEC1FF026EC1FF00009D8A492EF1BF0CF
:1037200094EF1BF08AEF1BF0080EADEC1FF026ECB7
:103730001FF00009D8A49FEF1BF0A1EF1BF097EF3B
:103740001BF00F0EADEC1FF026EC1FF00009D8A403
:10375000ACEF1BF0AEEF1BF0A4EF1BF0010EADECD5
:103760001FF026EC1FF00009D8A4B9EF1BF0BBEF47
:103770001BF0B1EF1BF0040EADEC1FF026EC1FF0B8
:103780000009D8A4C6EF1BF0C8EF1BF0BEEF1BF07A
:10379000800E84EC1EF0120003500410D8B4D3EF56
:1037A0001BF0D5EF1BF0DEEF1BF003500410D8A484
:1037B000DCEF1BF0DEEF1BF0E3EF1BF001506DECD4
:1037C00020F030EF1CF020EE04F00350D926045016
:1037D000DA22DE50DE10D8B4F0EF1BF0F2EF1BF06F
:1037E0000DEF1CF020EE04F00350D9260450DA222D
:1037F00010EE02F00350E1260450E222DE50E65CB7
:10380000E650800A096EDE50800A0958D8B00BEFE6
:103810001CF00DEF1CF030EF1CF020EE02F0035016
:10382000D9260450DA22DECF05F0DDCF06F003C042
:10383000D9FF04C0DAFFDECF07F0DDCF08F0055076
:103840000724D96E06500820DA6E01C0DFFF20EE93
:1038500002F00350D9260450DA22DE2A000EDD22BF
:10386000120000017EA137EF1CF039EF1CF043EF8E
:103870001CF013C00AF014C00BF011C00CF012C001
:103880000DF049EC1FF016BE48EF1CF04AEF1CF09B
:1038900050EF1CF015C01AF016C01BF054EF1CF0CE
:1038A000000E1B6E000E1A6E000E196E000E186EC2
:1038B00066EF1CF0000E026E200E016E11C003F0C8
:1038C00012C004F0CCEC1BF0184A192A1A50185CEC
:1038D0001950800A176E1B50800A1758D8A073EF32
:1038E0001CF075EF1CF05AEF1CF000017EB17BEF6D
:1038F0001CF07DEF1CF087EF1CF013C00AF014C021
:103900000BF011C00CF012C00DF049EC1FF013C009
:1039100001F014C002F0CCEC1FF01A500124116E1B
:103920001B500220126E1200000E066E04BE9DEFA8
:103930001CF09BEF1CF0A3EF1CF0036C041ED8B02E
:10394000042A010E066E02BEAAEF1CF0A8EF1CF0BE
:10395000B0EF1CF0016C021ED8B0022A010E061A4C
:10396000000E086E000E076E03500410D8B4BBEFB3
:103970001CF0BDEF1CF0E5EF1CF0010E056EC5EF6D
:103980001CF0D89003360436052A04AECAEF1CF0AA
:10399000CCEF1CF0C1EF1CF0D8900736083603506E
:1039A000015C04500258D8A0D8EF1CF0DAEF1CF0EC
:1039B000DFEF1CF00350015E0450025A0780D890DC
:1039C00004320332052ECCEF1CF00650D8B4EBEFD6
:1039D0001CF0EDEF1CF0F1EF1CF0076C081ED8B0E6
:1039E000082A07C001F008C002F0120009C00BF05D
:1039F000D8900B36D8900B363C0E0B16C250C30B2A
:103A00000B10C26EC2B207EF1DF00BEF1DF00B6A78
:103A10000B2A0CEF1DF00B6A010E0C6E0B2A13EF34
:103A20001DF0D8900C360B2E11EF1DF0C2B01BEF1D
:103A30001DF01FEF1DF00D6A0D2A20EF1DF00D6A1D
:103A4000010E0E6E0D2A27EF1DF0D8900E360D2EAA
:103A500025EF1DF00E500C10C212C2B232EF1DF055
:103A600034EF1DF02DEF1DF0C4500C6E0B6AC350E7
:103A70000B240F6E000E0C20106E0FC001F010C052
:103A800002F0000E046E400E036E94EC1CF001C0B8
:103A900011F002C012F011C009F012C00AF01200B9
:103AA000000E07140F6E000E0814106E800E09141D
:103AB000116E7F0E0A14126E0F501010111012109A
:103AC000D8A465EF1DF067EF1DF06FEF1DF0000E3D
:103AD000076E000E086E000E096E000E0A6E000ED4
:103AE0000B140F6E000E0C14106E800E0D14116E60
:103AF0007F0E0E14126E0F50101011101210D8A459
:103B000084EF1DF086EF1DF08EEF1DF0000E0B6EA2
:103B1000000E0C6E000E0D6E000E0E6E0B50071890
:103B20000FE10C5008180CE10D50091809E10E5076
:103B30000A18D8B49EEF1DF0A0EF1DF0A3EF1DF002
:103B4000D890A4EF1DF0D88012000F0EC16E000EA9
:103B50000001DA6F000ED96F4EEC20F059EC20F026
:103B6000110E926EFD0E936E070E0001E26FD00EE5
:103B7000E16F1AEC20F0010EADEC1FF0010E056EA6
:103B8000080E066E000E076EE7EC1FF0120E056EB3
:103B9000080E066E010E076EE7EC1FF00A0E056EAA
:103BA000080E066E030E076EE7EC1FF00D0E000107
:103BB000D86FAF0ED76FB60EE82EFED7D72FFCD733
:103BC000D82FFAD700F00FEC04F0E3EF1DF000EF70
:103BD00000F0046E26EC1FF00009D8A4F2EF1DF0EF
:103BE000F4EF1DF0EAEF1DF0F00E9516F00E8316BF
:103BF0000450016E026A400E0112000E0212040E01
:103C0000036E023402320132032E01EF1EF0015026
:103C10000F0B83128C9C8C9A00D000D000F08C8803
:103C200000D000D000F08C98F00E831604500F0BDB
:103C3000831200D000D000F08C8800D000D000F0BB
:103C40008C980F0E9512120052C056F053C057F0C8
:103C5000000E0001796F000E786F42EF1EF050C029
:103C600040F051C041F0560E426E000E436E54C0FB
:103C700044F055C045F0A2EC15F040500001782703
:103C80004150792356C0F6FF57C0F7FF0800F550A2
:103C90000009D8A44EEF1EF050EF1EF02FEF1EF0DB
:103CA00078C050F079C051F01200340EF66E290E33
:103CB000F76E000EF86E05EEF0F012EE10F009004F
:103CC000F5CFEEFFE550E150FAE1E250F8E1D40E15
:103CD000F66E400EF76E000EF86E00EEDBF010EEA2
:103CE00006F00900F5CFEEFFE550E150FAE100EEF5
:103CF00060F0640EEE6AE806FDE1000EF86E080E54
:103D0000F76E0001A5EF1DF0046EF00E9516F00E93
:103D100083160450016E026A800E0112000E021218
:103D2000040E036E023402320132032E92EF1EF0B3
:103D300001500F0B83128C9C8C9A41EC20F08C88E4
:103D400041EC20F08C98F00E831604500F0B831278
:103D500041EC20F08C8841EC20F08C980F0E9512ED
:103D600012005C0E0001C46F000EC56F58C0C6F093
:103D700059C0C7F0000EC96F000EC86F000ECB6FA0
:103D8000000ECA6FC60E506E000E516E5AC052F031
:103D90005BC053F0C40E546E000E556E24EC1EF042
:103DA0000001C8515824D96EC9515920DA6E000E4D
:103DB000DF6E1200016E26EC1FF00009D8A4E3EFBD
:103DC0001EF0E5EF1EF0DBEF1EF0F00E9516F00E84
:103DD000831601380F0B0F0B83128C8A8C9C41ECDD
:103DE00020F08C8841EC20F08C98F00E8316015066
:103DF0000F0B831241EC20F08C8841EC20F08C9862
:103E00000F0E95121200000E551A000E561A000ED3
:103E1000571A800E581A51C041F052C042F053C098
:103E200043F054C044F055C045F056C046F057C06A
:103E300047F058C048F0E7EC0CF041C051F042C0E8
:103E400052F043C053F044C054F012008C8C8C9A52
:103E500041EC20F08C8841EC20F083A632EF1FF07B
:103E600034EF1FF03FEF1FF08C9841EC20F08C886E
:103E700041EC20F08C988C9C010E48EF1FF08C9840
:103E800041EC20F08C8841EC20F08C988C9C000E4A
:103E90001200000E106E000E0F6E5AEF1FF00EC0D3
:103EA00001F0026A0CC003F00DC004F0CCEC1BF072
:103EB0000F4A102A0F500A24D96E10500B20DA6EC8
:103EC000DF500E6E0E50D8A468EF1FF06AEF1FF09F
:103ED0004FEF1FF0120080EF1FF026EC1FF00009DB
:103EE000D8A475EF1FF077EF1FF06DEF1FF002C041
:103EF000D9FF03C0DAFFDF50DAEC1EF0024A032AD2
:103F000002C0D9FF03C0DAFFDF50D8A48AEF1FF048
:103F10008CEF1FF06DEF1FF0120014BE9AEF1FF030
:103F2000145006E11304D8B098EF1FF09AEF1FF079
:103F3000A8EF1FF013C015F014C016F0151E161EC2
:103F4000154A162A15C013F016C014F0ACEF1FF076
:103F500013C013F014C014F01200016EF00E951689
:103F6000F00E831601380F0B0F0B83128C9C8C9A6A
:103F700041EC20F08C8841EC20F08C98F00E8316F8
:103F800001500F0B831241EC20F08C8841EC20F0A3
:103F90008C980F0E9512120001C003F002C004F0BD
:103FA000D4EF1FF0014A022A01C0D9FF02C0DAFF94
:103FB000DF50D8A4DEEF1FF0E0EF1FF0D2EF1FF0CC
:103FC0000350015C016E04500258026E120007504B
:103FD000080DF350E9EC1DF0000E086E05C0F6FF69
:103FE00006C0F7FF0800F550DAEC1EF0054A062A75
:103FF000082A070E0864FFEF1FF001EF20F0EEEF34
:104000001FF0120014BE0DEF20F0145008E113044D
:10401000D8A00DEF20F00FEF20F015EF20F0155095
:10402000C00FADEC1FF019EF20F01550800FADEC74
:104030001FF01200280E57EC1BF026EC1FF00009B1
:10404000D8A425EF20F027EF20F01DEF20F0060E7A
:10405000ADEC1FF00C0EADEC1FF01200015003028E
:10406000F3CF05F0F4CF06F001500402F35006261A
:1040700002500302F350062605C001F006C002F00C
:10408000120000F000F000F000F000F000F000F08E
:1040900000F000F000F000F000F01200D58ED58C9A
:1040A000D59AD598D596D550F80B0609D56EF28AD3
:1040B00012000E0EC16EBA0EC06E000EC46E000E5F
:1040C000C36E1200620E016E660EE82EFED7012E40
:0C40D000FCD712000F00010001001200DC
:020000040020DA
:08000000FFFFFFFFFFFFFFFF00
:020000040030CA
:0E000000240C1F1FFF8385FF0FC00FE00F4071
:00000001FF
