:0400000010EF17F0F6
:05080000002569000065
:10080600000E0001C76F000EC66F81BF16EF04F021
:10081600815107E10F0E805DD8B014EF04F016EF9A
:1008260004F0B4EF05F0CEBF21EF04F0CE5108E19D
:10083600CD05D8A021EF04F023EF04F0B4EF05F0C6
:10084600C6C001F0C7C002F0000E046E0C0E036EA7
:10085600A3EC18F0F80E0124D96E050E0220DA6E0C
:10086600DECF07F0DECF08F0DECF09F0DECF0AF0EC
:10087600000E0B6E000E0C6E800E0D6E3F0E0E6E91
:100886006CEC16F0D8A04AEF04F04CEF04F0E7EF5A
:1008960004F081A051EF04F053EF04F05AEF04F096
:1008A600000E0001D06F000ECF6F5FEF04F0000E58
:1008B6000001D06F010ECF6F000E036E010E026EA7
:1008C600000E056E0F0E046E8BEC18F0A30E586E1C
:1008D600000E596E010E5A6E080E5B6ECDC05CF0AE
:1008E600CEC05DF09EEC17F0A30E026E000E036EF6
:1008F60054EC18F0CFC002F0D0C003F080C004F072
:1009060081C005F08BEC18F0000E72EC17F0000EAB
:10091600036E010E026ECDC004F0CEC005F08BEC66
:1009260018F0010E72EC17F0000E0B6E000E0C6E36
:10093600FA0E0D6E430E0E6EC6C001F0C7C002F071
:10094600000E046E0C0E036EA3EC18F0F00E0124DC
:10095600D96E050E0220DA6EDECF07F0DECF08F084
:10096600DECF09F0DECF0AF0CFEC09F007C028F0A1
:1009760008C029F009C02AF00AC02BF0C6EC14F012
:1009860028C0C2F029C0C3F0C2C032F0C3C033F0E1
:10099600C6C001F0C7C002F0000E046E0C0E036E56
:1009A600A3EC18F0F40E0124D96E050E0220DA6EBF
:1009B600DECF34F0DECF35F0DECF36F0DECF37F0E7
:1009C600A0EC12F0A9EF05F0C6C001F0C7C002F016
:1009D600000E046E0C0E036EA3EC18F0F80E012444
:1009E600D96E050E0220DA6EDECF07F0DECF08F0F4
:1009F600DECF09F0DECF0AF0000E0B6E000E0C6E95
:100A0600000E0D6E000E0E6E6CEC16F0D8A00EEFFA
:100A160005F010EF05F0A9EF05F081A015EF05F040
:100A260017EF05F01EEF05F0000E0001D06F000E67
:100A3600CF6F23EF05F0000E0001D06F010ECF6FD0
:100A4600000E036E010E026E000E056E0F0E046E92
:100A56008BEC18F0A30E586E000E596E010E5A6EEE
:100A6600080E5B6ECDC05CF0CEC05DF09EEC17F05C
:100A7600A30E026E000E036E54EC18F0CFC002F007
:100A8600D0C003F080C004F081C005F08BEC18F0F4
:100A9600000E72EC17F0000E036E010E026ECDC052
:100AA60004F0CEC005F08BEC18F0010E72EC17F0D6
:100AB600000E0B6E000E0C6EFA0E0D6E430E0E6ED1
:100AC600C6C001F0C7C002F0000E046E0C0E036E25
:100AD600A3EC18F0F00E0124D96E050E0220DA6E92
:100AE600DECF07F0DECF08F0DECF09F0DECF0AF06A
:100AF600CFEC09F007C028F008C029F009C02AF099
:100B06000AC02BF0C6EC14F028C0C4F029C0C5F00A
:100B1600C4C032F0C5C033F0C6C001F0C7C002F091
:100B2600000E046E0C0E036EA3EC18F0F40E0124F6
:100B3600D96E050E0220DA6EDECF34F0DECF35F048
:100B4600DECF36F0DECF37F05AEC13F0010EC7ECED
:100B560017F00001804B812BCD07D8A0CE075EEFA2
:100B660007F081BFBFEF05F0815108E18005D8A0ED
:100B7600BFEF05F0C1EF05F05EEF07F0CEBFCFEF98
:100B860005F0CE5107E10F0ECD5DD8B0CDEF05F0E3
:100B9600CFEF05F05EEF07F0C6C001F0C7C002F068
:100BA600000E046E0C0E036EA3EC18F0F80E012472
:100BB600D96E050E0220DA6EDECF07F0DECF08F022
:100BC600DECF09F0DECF0AF0000E0B6E000E0C6EC3
:100BD600800E0D6E3F0E0E6E6CEC16F0D8A0F6EF82
:100BE60005F0F8EF05F093EF06F081A0FDEF05F0B4
:100BF600FFEF05F006EF06F0000E0001D06F000EC5
:100C0600CF6F0BEF06F0000E0001D06F010ECF6F15
:100C1600000E036E010E026E000E056E0F0E046EC0
:100C26008BEC18F0A30E586E000E596E010E5A6E1C
:100C3600080E5B6ECDC05CF0CEC05DF09EEC17F08A
:100C4600A30E026E000E036E54EC18F0CFC002F035
:100C5600D0C003F080C004F081C005F08BEC18F022
:100C6600000E72EC17F0000E036E010E026ECDC080
:100C760004F0CEC005F08BEC18F0020E72EC17F003
:100C8600000E0B6E000E0C6EFA0E0D6E430E0E6EFF
:100C9600C6C001F0C7C002F0000E046E0C0E036E53
:100CA600A3EC18F0F00E0124D96E050E0220DA6EC0
:100CB600DECF07F0DECF08F0DECF09F0DECF0AF098
:100CC600CFEC09F007C028F008C029F009C02AF0C7
:100CD6000AC02BF0C6EC14F028C0C2F029C0C3F03D
:100CE600C2C032F0C3C033F0C6C001F0C7C002F0C4
:100CF600000E046E0C0E036EA3EC18F0F40E012425
:100D0600D96E050E0220DA6EDECF34F0DECF35F076
:100D1600DECF36F0DECF37F0A0EC12F055EF07F05D
:100D2600C6C001F0C7C002F0000E046E0C0E036EC2
:100D3600A3EC18F0F80E0124D96E050E0220DA6E27
:100D4600DECF07F0DECF08F0DECF09F0DECF0AF007
:100D5600000E0B6E000E0C6E000E0D6E000E0E6E6B
:100D66006CEC16F0D8A0BAEF06F0BCEF06F055EF23
:100D760007F081A0C1EF06F0C3EF06F0CAEF06F058
:100D8600000E0001D06F000ECF6FCFEF06F0000E01
:100D96000001D06F010ECF6F000E036E010E026EC2
:100DA600000E056E0F0E046E8BEC18F0A30E586E37
:100DB600000E596E010E5A6E080E5B6ECDC05CF0C9
:100DC600CEC05DF09EEC17F0A30E026E000E036E11
:100DD60054EC18F0CFC002F0D0C003F080C004F08D
:100DE60081C005F08BEC18F0000E72EC17F0000EC7
:100DF600036E010E026ECDC004F0CEC005F08BEC82
:100E060018F0020E72EC17F0000E0B6E000E0C6E50
:100E1600FA0E0D6E430E0E6EC6C001F0C7C002F08C
:100E2600000E046E0C0E036EA3EC18F0F00E0124F7
:100E3600D96E050E0220DA6EDECF07F0DECF08F09F
:100E4600DECF09F0DECF0AF0CFEC09F007C028F0BC
:100E560008C029F009C02AF00AC02BF0C6EC14F02D
:100E660028C0C4F029C0C5F0C4C032F0C5C033F0F4
:100E7600C6C001F0C7C002F0000E046E0C0E036E71
:100E8600A3EC18F0F40E0124D96E050E0220DA6EDA
:100E9600DECF34F0DECF35F0DECF36F0DECF37F002
:100EA6005AEC13F0010EC7EC17F000018007D8A02A
:100EB6008107CD4BCE2BC64BC72BC7BF6CEF07F0B8
:100EC600C75109E12C0EC65DD8A06CEF07F06EEF96
:100ED60007F008EF04F012000450800B0D6E04506A
:100EE60004240F6E03AE7AEF07F07CEF07F07DEF78
:100EF60007F00F800F50D8B483EF07F085EF07F0A7
:100F06009AEF07F00F28D8A48BEF07F08DEF07F0C4
:100F160095EF07F0000E016E000E026E000E036ED6
:100F2600000E046E038E000E046EA2EF07F0000E94
:100F3600016E000E026E000E036E000E046E085067
:100F4600800B0E6E0D500E18D8B4ACEF07F0AEEF56
:100F560007F0AFEF07F00D8C085008240E6E07AEB1
:100F6600B7EF07F0B9EF07F0BAEF07F00E800E50B3
:100F7600D8B4C0EF07F0C2EF07F0D7EF07F00E289E
:100F8600D8A4C8EF07F0CAEF07F0D2EF07F0000EBB
:100F9600056E000E066E000E076E000E086E078EBA
:100FA600000E086EDFEF07F0000E056E000E066EEF
:100FB600000E076E000E086E0F500E5CD8B0E6EFFE
:100FC60007F0E8EF07F00FEF08F00DACEDEF07F0D4
:100FD600EFEF07F0F1EF07F0800E0D1A0FC010F0DB
:100FE6000EC00FF010C00EF001C010F005C001F0E9
:100FF60010C005F002C010F006C002F010C006F0E6
:1010060003C010F007C003F010C007F004C010F0D2
:1010160008C004F010C008F0000E106E0F500EC08D
:1010260009F00A6A095E000E0A5A0ABE24EF08F0A1
:101036000A5009E11A0E095CD8A024EF08F026EF41
:1010460008F05DEF08F00150021003100410D8A458
:101056002FEF08F032EF08F0010E33EF08F0000E24
:10106600106E000E016E000E026E000E036E000E74
:10107600046E0EC00FF066EF08F010A045EF08F002
:1010860047EF08F04DEF08F0D89010300109106EC8
:101096004FEF08F0D890103201A054EF08F056EF49
:1010A60008F057EF08F0108E04340432033202328F
:1010B60001320F2A0E500F5CD8A064EF08F066EFDD
:1010C60008F040EF08F00DBC6BEF08F06DEF08F08C
:1010D600ADEF08F00F50D8A473EF08F075EF08F0E5
:1010E6007FEF08F0000E016E000E026E000E036E1A
:1010F600000E046ECEEF09F00550012606500222BE
:10110600075003220850042204A08CEF08F08EEF4B
:1011160008F03AEF09F010A093EF08F095EF08F009
:101126009BEF08F0D89010300109106E9DEF08F083
:10113600D890103201A0A2EF08F0A4EF08F0A5EFB6
:1011460008F0108E043404320332023201320F2AC0
:101156003AEF09F00550015C065002580750035853
:101166000450800A096E0850800A0958D8B0BEEFAC
:1011760008F0C0EF08F0EBEF08F00150055C096ECF
:10118600025006580A6E035007580B6E0450085852
:101196000C6EFF0E0924016EFF0E0A20026EFF0E72
:1011A6000B20036EFF0E0C20046E800E0D1A106CC1
:1011B6001050D8A4E1EF08F0E3EF08F0F3EF08F0E1
:1011C600010E0126000E022203220422F3EF08F08C
:1011D6000550015E0650025A0750035A0850045A39
:1011E6000150021003100410D8A4FCEF08F0FEEF23
:1011F60008F033EF09F01050D8A404EF09F006EF19
:1012060009F033EF09F0000E016E000E026E000EBB
:10121600036E000E046ECEEF09F0D890013602364A
:101226000336043610AE1AEF09F01CEF09F01DEF75
:1012360009F0018010A022EF09F024EF09F028EF51
:1012460009F0D88010362AEF09F0D89010360F50E2
:10125600D8B430EF09F032EF09F033EF09F00F069A
:1012660003AE38EF09F03AEF09F010EF09F0000E7F
:101276000E6E10AE41EF09F043EF09F05BEF09F097
:1012860010C009F07F0E0916D8B44CEF09F04EEFE6
:1012960009F052EF09F0010E0E6E5BEF09F001A0A6
:1012A60057EF09F059EF09F05BEF09F04EEF09F03F
:1012B6000E50D8B461EF09F063EF09F08EEF09F034
:1012C600010E0126000E02220322042204A06EEF64
:1012D60009F070EF09F08EEF09F001C009F002C0C5
:1012E6000AF003C00BF004C00CF00C340C320B32C5
:1012F6000A32093209C001F00AC002F00BC003F03D
:101306000CC004F00F28D8B48BEF09F08DEF09F06C
:101316008EEF09F00F2A0F28D8B494EF09F096EF54
:1013260009F09EEF09F00F50D8A49CEF09F09EEF4C
:1013360009F0B0EF09F0000E016E000E026E000E0D
:10134600036E000E046E0F50D8A4ACEF09F0AEEF9A
:1013560009F0B0EF09F0000E0D6E0FA0B5EF09F021
:10136600B7EF09F0BAEF09F0038EBBEF09F0039E61
:10137600D8900F30046E0DAEC3EF09F0C5EF09F03B
:10138600C6EF09F0048E01C001F002C002F003C0EE
:1013960003F004C004F012000A50800B136E0A50CA
:1013A6000A24196E09AEDAEF09F0DCEF09F0DDEF79
:1013B60009F019801950D8B4E3EF09F0E5EF09F008
:1013C600F8EF09F01928D8A4EBEF09F0EDEF09F0D2
:1013D600F5EF09F0000E076E000E086E000E096E9E
:1013E600000E0A6E098E00EF0AF0000E076E000E60
:1013F600086E000E096E000E0A6E0E50800B131A50
:101406000E500E24186E0DAE0BEF0AF00DEF0AF01B
:101416000EEF0AF018801850D8B414EF0AF016EF41
:101426000AF029EF0AF01828D8A41CEF0AF01EEFDC
:101436000AF026EF0AF0000E0B6E000E0C6E000E80
:101446000D6E000E0E6E0D8E31EF0AF0000E0B6E55
:10145600000E0C6E000E0D6E000E0E6E1850D8B4F7
:1014660037EF0AF039EF0AF041EF0AF01950D8A425
:101476003FEF0AF041EF0AF04BEF0AF0000E076E5D
:10148600000E086E000E096E000E0A6EE3EF0BF0FA
:101496000D500702F3CF1EF0F4CF1FF01E50146E4E
:1014A600156A166A176A1F501A6E1B6A1C6A1D6A2D
:1014B6000C500802F3CF1EF0F4CF1FF01E50142676
:1014C600000E1522162217221F501A26000E1B2266
:1014D6001C221D220B500902F3CF1EF0F4CF1FF081
:1014E6001E501426000E1522162217221F501A26E9
:1014F600000E1B221C221D2216C017F015C016F066
:1015060014C015F0146A0B500802F3CF1EF0F4CF86
:101516001FF01E5014261F501522000E1622000E14
:1015260017220C500702F3CF1EF0F4CF1FF01E5007
:1015360014261F501522000E1622000E172216C062
:1015460017F015C016F014C015F0146A0B500702F8
:10155600F3CF1EF0F4CF1FF01E5014261F50152295
:10156600000E1622000E17220D500802F3CF1EF0B1
:10157600F4CF1FF01E501A261F501B22000E1C22ED
:10158600000E1D220C500902F3CF1EF0F4CF1FF0FF
:101596001E501A261F501B22000E1C22000E1D2252
:1015A6000D500902F3CF1EF0F4CF1FF01E500F6E40
:1015B6001F50106E116A126A11C012F010C011F09D
:1015C6000FC010F00F6A0F501A2610501B22115030
:1015D6001C2212501D2214C00FF015C010F016C0A8
:1015E60011F017C012F0190EFEEF0AF0D890123261
:1015F600113210320F32E82EF9EF0AF00F501A2688
:1016060010501B2211501C2212501D2216C017F01A
:1016160015C016F014C015F0146A185019C00FF052
:10162600106A0F26000E1022820E0F241E6EFF0E69
:1016360010201F6E34EF0BF0D8901A361B361C366E
:101646001D3617AE29EF0BF02BEF0BF02CEF0BF03E
:101656001A80D89014361536163617361E06D8A0B8
:101666001F061CAE39EF0BF03BEF0BF01FEF0BF034
:10167600000E186E17AE42EF0BF044EF0BF068EF5A
:101686000BF0FF0E14140F6EFF0E1514106EFF0EE6
:101696001614116E7F0E1714126E0F5010101110C3
:1016A6001210D8B459EF0BF05BEF0BF05FEF0BF0B5
:1016B600010E186E68EF0BF01AA064EF0BF066EFE0
:1016C6000BF068EF0BF05BEF0BF01850D8B46EEF31
:1016D6000BF070EF0BF094EF0BF0010E1A26000ED4
:1016E6001B221C221D221DA07BEF0BF07DEF0BF0B1
:1016F60094EF0BF01AC00FF01BC010F01CC011F0D5
:101706001DC012F012341232113210320F320FC0D5
:101716001AF010C01BF011C01CF012C01DF01E4ABA
:101726001F2A1FBE9FEF0BF01F5008E11E28D8A0EE
:101736009FEF0BF0A1EF0BF0ABEF0BF0000E1A6E64
:10174600000E1B6E800E1C6E7F0E1D6ED9EF0BF009
:101756001FBEB8EF0BF01F5006E11E04D8B0B6EF5F
:101766000BF0B8EF0BF0C4EF0BF0000E1A6E000E84
:101776001B6E000E1C6E000E1D6E000E136ED9EF52
:101786000BF01EC019F0FF0E1A16FF0E1B167F0E69
:101796001C16000E1D1619A0D3EF0BF0D5EF0BF09B
:1017A600D6EF0BF01C8ED89019301D6E13501D12FB
:1017B6001AC007F01BC008F01CC009F01DC00AF0D3
:1017C60012001250800B1F6E12501224266E11AE9C
:1017D600EFEF0BF0F1EF0BF0F2EF0BF02680265057
:1017E600D8B4F8EF0BF0FAEF0BF00FEF0CF0262859
:1017F600D8A400EF0CF002EF0CF00AEF0CF0000E8C
:101806000F6E000E106E000E116E000E126E118E0F
:10181600000E126E17EF0CF0000E0F6E000E106E1B
:10182600000E116E000E126E1650800B1F1A165007
:101836001624276E15AE22EF0CF024EF0CF025EFE0
:101846000CF027802750D8B42BEF0CF02DEF0CF0BE
:1018560042EF0CF02728D8A433EF0CF035EF0CF04C
:101866003DEF0CF0000E136E000E146E000E156E9A
:10187600000E166E158E000E166E4AEF0CF0000E58
:10188600136E000E146E000E156E000E166E1350BB
:10189600141015101610D8A453EF0CF055EF0CF0D9
:1018A6006DEF0CF0000E0F6E000E106E000E116E36
:1018B600000E126E800E11127F0E12121F5012129F
:1018C6000FC00FF010C010F011C011F012C012F0CE
:1018D600B0EF0DF02650D8A473EF0CF075EF0CF0B6
:1018E6007FEF0CF0000E0F6E000E106E000E116EE4
:1018F600000E126EB0EF0DF0275026C017F0186AD2
:10190600175E000E185A7F0E1724206E000E182040
:10191600216E0FC01BF010C01CF011C01DF012C0CC
:101926001EF0000E0F6E000E106E000E116E000EF1
:10193600126E000E226E000E236E000E246E000E36
:10194600256E000E276EE0EF0CF02750D8B4AEEFF0
:101956000CF0B0EF0CF0C7EF0CF0D8901B361C362D
:101966001D361E36D8900F3610361136123625AE75
:10197600BFEF0CF0C1EF0CF0C2EF0CF00F80D89067
:10198600223623362436253613501B5C14501C5839
:1019960015501D5816501E58D8A0D4EF0CF0D6EF8F
:1019A6000CF0DFEF0CF0258C13501B5E14501C5A04
:1019B60015501D5A16501E5A272A190E2764E6EF8F
:1019C6000CF0E8EF0CF0A8EF0CF01B501C101D10EB
:1019D6001E10D8B4F1EF0CF0F3EF0CF00BEF0DF096
:1019E60022800BEF0DF0D8900F36103611361236D6
:1019F60025AE00EF0DF002EF0DF003EF0DF00F80B6
:101A0600D89022362336243625362006D8A021063D
:101A160011AE10EF0DF012EF0DF0F6EF0CF0000E18
:101A2600276E25AE19EF0DF01BEF0DF03FEF0DF011
:101A3600FF0E2214176EFF0E2314186EFF0E2414C9
:101A4600196E7F0E25141A6E1750181019101A10D9
:101A5600D8B430EF0DF032EF0DF036EF0DF0010E89
:101A6600276E3FEF0DF00FA03BEF0DF03DEF0DF0B1
:101A76003FEF0DF032EF0DF02750D8B445EF0DF0E3
:101A860047EF0DF06BEF0DF0010E0F26000E102242
:101A96001122122212A052EF0DF054EF0DF06BEF4F
:101AA6000DF00FC017F010C018F011C019F012C0D9
:101AB6001AF01A341A3219321832173217C00FF0C8
:101AC60018C010F019C011F01AC012F0204A212ACD
:101AD60021BE76EF0DF0215008E12028D8A076EF40
:101AE6000DF078EF0DF083EF0DF0000E216E2068FB
:101AF600000E0F6E000E106E000E116E000E126EAE
:101B060021BE90EF0DF0215006E12004D8B08EEFF3
:101B16000DF090EF0DF09EEF0DF0000E216E000E11
:101B2600206E000E0F6E000E106E000E116E000E6F
:101B3600126E000E1F6E20C026F026A0A5EF0DF037
:101B4600A7EF0DF0AAEF0DF0118EABEF0DF0119E81
:101B5600D8902630126E61EF0CF012001EC036F0DF
:101B66001FC037F020C038F021C039F022C03AF04B
:101B760023C03BF024C03CF025C03DF03DBEC6EF7F
:101B86000DF0C9EF0DF0010ECAEF0DF0000E346E28
:101B9600356A34503510D8B4D3EF0DF0D5EF0DF0CB
:101BA600E5EF0DF03D1E3C1E3B1E3A1E391E381E4B
:101BB600371E366C000E3722382239223A223B2253
:101BC6003C223D22000179BFEBEF0DF0EDEF0DF069
:101BD600EEEF0DF05E9279BFFBEF0DF0795106E165
:101BE6007805D8B0F9EF0DF0FBEF0DF001EF0EF030
:101BF600000E316E010E306E05EF0EF078C030F03B
:101C060079C031F076C032F077C033F034503510F9
:101C1600D8A410EF0EF012EF0EF019EF0EF05EA43E
:101C260017EF0EF019EF0EF01CEF0EF03206D8A0EB
:101C36003306000E3F6E1F0E3E6E000EA26FA0EF23
:101C46000EF03E06D8A03F06830E3E24D96E000E47
:101C56003F20DA6E36C001F037C002F038C003F01C
:101C660039C004F03AC005F03BC006F03CC007F0AE
:101C76003DC008F00A0E096E000E0A6E000E0B6ECD
:101C8600000E0C6E000E0D6E000E0E6E000E0F6E28
:101C9600000E106E14EC14F001C026F002C027F0FE
:101CA60003C028F004C029F005C02AF006C02BF0B6
:101CB60007C02CF008C02DF026C013F028C014F081
:101CC60034EC18F01350300FDF6E3006D8A0310612
:101CD6003206D8A0330636C001F037C002F038C04D
:101CE60003F039C004F03AC005F03BC006F03CC032
:101CF60007F03DC008F00A0E096E000E0A6E000ECF
:101D06000B6E000E0C6E000E0D6E000E0E6E000EAB
:101D16000F6E000E106EDCEC11F001C036F002C042
:101D260037F003C038F004C039F005C03AF006C0F9
:101D36003BF007C03CF008C03DF03FBEABEF0EF0F5
:101D46003F5008E13E04D8A0ABEF0EF0ADEF0EF029
:101D5600DDEF0EF036503710381039103A103B10C0
:101D66003C103D10D8A4BAEF0EF0BCEF0EF024EFF5
:101D76000EF031BEC9EF0EF0315006E13004D8B096
:101D8600C7EF0EF0C9EF0EF024EF0EF033BED4EF1E
:101D96000EF0335008E13204D8A0D4EF0EF0D6EF9F
:101DA6000EF0DDEF0EF05EB2DBEF0EF0DDEF0EF0C3
:101DB60024EF0EF034503510D8A4E4EF0EF0E6EF21
:101DC6000EF0EDEF0EF05EA4EBEF0EF0EDEF0EF081
:101DD6000BEF0FF03E06D8A03F0634503510D8A4BE
:101DE600F7EF0EF0F9EF0EF0FFEF0EF0000E2F6E8C
:101DF6002B0E2E6E03EF0FF0000E2F6E2D0E2E6E95
:101E0600830E3E24D96E000E3F20DA6E2EC0DFFF11
:101E16001CC011F01DC012F0830E3E24136E000E7E
:101E26003F20146E32C015F033C016F0AEEC15F03C
:101E360011C01CF012C01DF012000000803F0E2DD4
:101E460042400000803F0000803F0E2D42400000CF
:101E5600803F0000803F0E2D42400000803F000082
:101E6600403FE17A74400000803F0000803E3333FB
:101E760023400000803F0000803F0E2D42400000BE
:101E8600803F0000403FE17A74400000803F000040
:101E9600803E964323400000803F000000400E2D08
:101EA60042400000803F0000803FC1CA0140000060
:101EB600803F0000803FC1CA01400000803F000013
:101EC600803FC1CA01400000803F0000403FA69B02
:101ED600F43F0000803F0000803E96432340000010
:101EE600803F0000803F3D0A67400000803F0000C1
:101EF600403FE17A74400000803F0000803E9643F8
:101F060023400000803F000000400E2D42400000AC
:101F1600803F0000803F0E2DC23F0000803F000042
:101F2600403F0E2D42400000803F0000803E0E2DB7
:101F360042400000803F0000803F0E2DC23F00005F
:101F4600803F0000403F2DB2CD3F0000803F0000A3
:101F5600803EE7FBD93F0000803F0000803E79E9E4
:101F6600E63F0000803F0000803EA69BF43F000055
:101F7600803F9A99193F79E9E63F0000803FCDCC32
:101F86004C3E0000803F000000009A99193F643BD8
:101F960037400000803F0000803FAE470940000008
:101FA600803F0000403FD57811400000803F000090
:101FB600803EAC1C1A400000803F0000803E9643E5
:101FC60023400000803F0000803EF4FD2C400000CE
:101FD600803F9A99193F964323400000803FCDCC1D
:101FE6004C3E0000803F000000009A99193FA69BD6
:101FF60074400000803F0000803F79E966400000A1
:10200600803F0000403FA69B74400000803F0000D8
:10201600803E964323400000803F0000803F0E2D07
:1020260042400000803F0000403FA69B74400000F5
:10203600803F0000803E964323400000803F000022
:10204600A0400E2D42400000803F42C0D9FF43C051
:10205600DAFFDECFF6FFDDCFF7FF0800F550250AE1
:10206600D8A438EF10F03AEF10F0E6EF10F042C0C7
:10207600D9FF43C0DAFFDE2A000EDD22000E000182
:10208600776F000E766F76C05EF077C05FF0786986
:10209600796942C0D9FF43C0DAFFDECFF6FFDDCF54
:1020A600F7FF0800F550640AD8B45CEF10F05EEF55
:1020B60010F070EF10F042C0D9FF43C0DAFFDECF58
:1020C600F6FFDDCFF7FF0800F550690AD8A46EEFDA
:1020D60010F070EF10F0B0EF10F042C0D9FF43C01F
:1020E600DAFFDE2A000EDD2244C0D9FF45C0DAFF42
:1020F600DFCF46F0020EDE26DFCF47F0000EDD22F0
:1021060046C0D9FF47C0DAFFDECF48F0DDCF49F041
:10211600000E49BEFF0E4A6E4B6E4C6E4D6E4E6EF5
:102126004F6E40C01CF041C01DF048C01EF049C0B3
:102136001FF04AC020F04BC021F04CC022F04DC029
:1021460023F04EC024F04FC025F0B1EC0DF01CC0BA
:1021560040F01DC041F001EF11F042C0D9FF43C06D
:10216600DAFFDECFF6FFDDCFF7FF0800F550250AD0
:10217600D8A4C0EF10F0C2EF10F0D9EF10F042C0B3
:10218600D9FF43C0DAFFDE2A000EDD22000E026E02
:10219600250E016E40C003F041C004F049EC15F075
:1021A600000E416E010E406E01EF11F042C0D9FFE4
:1021B60043C0DAFFDE2A000EDD22000E416E000E5D
:1021C600406E01EF11F042C0D9FF43C0DAFFDECF07
:1021D600F6FFDDCFF7FF0800F550016E026A40C03A
:1021E60003F041C004F049EC15F042C0D9FF43C0EA
:1021F600DAFFDE2A000EDD22D3EF10F01200096EA0
:102206000950D8B409EF11F00BEF11F02DEF11F0D2
:1022160004BE12EF11F010EF11F02DEF11F001C016
:1022260005F002C006F003C007F004C008F0051E62
:10223600061E071E081E052A000E06220722082271
:1022460005C00BF006C00CF007C00DF008C00EF07C
:1022560035EF11F001C00BF002C00CF003C00DF019
:1022660004C00EF00150021003100410D8A43EEF73
:1022760011F040EF11F04AEF11F0000E016E000E62
:10228600026E000E036E000E046EDBEF11F0960E6A
:102296000A6E54EF11F00A2AD8900E320D320C3223
:1022A6000B32000E0B14056E000E0C14066E000E9B
:1022B6000D14076EFE0E0E14086E0550061007105C
:1022C6000810D8A469EF11F06BEF11F04EEF11F082
:1022D60079EF11F00A2A010E0B26000E0C220D22B0
:1022E6000E22D8900E320D320C320B32000E0B1429
:1022F600056E000E0C14066E000E0D14076EFF0E12
:102306000E14086E0550061007100810D8A48EEF9C
:1023160011F090EF11F06DEF11F098EF11F00A0641
:10232600D8900B360C360D360E360DBE9DEF11F0DD
:102336009FEF11F0A7EF11F0020E0A60A5EF11F062
:10234600A7EF11F092EF11F00AB0ACEF11F0AEEF7B
:1023560011F0AFEF11F00D9ED8900A320AC005F0C9
:10236600066A076A086A05C008F0076A066A056A07
:1023760005500B1206500C1207500D1208500E1283
:102386000950D8B4C9EF11F0CBEF11F0D3EF11F02B
:1023960004BED2EF11F0D0EF11F0D3EF11F00E8E94
:1023A6000BC001F00CC002F00DC003F00EC004F02B
:1023B6001200000E126E10BEE5EF11F0E3EF11F001
:1023C600F7EF11F0101E0F1E0E1E0D1E0C1E0B1E1B
:1023D6000A1E096C000E0A220B220C220D220E2266
:1023E6000F221022010E126E08BEFEEF11F0FCEF56
:1023F60011F010EF12F0081E071E061E051E041E21
:10240600031E021E016C000E022203220422052274
:10241600062207220822010E121A20EE13F0070EDA
:10242600DE6AE806FDE209500A100B100C100D10CA
:102436000E100F101010D8B423EF12F025EF12F083
:1024460077EF12F0010E116E33EF12F0D8900936C5
:102456000A360B360C360D360E360F361036112A66
:1024660010AE38EF12F03AEF12F029EF12F0D890D2
:1024760013361436153616361736183619361A36F2
:102486000950015C0A5002580B5003580C5004586E
:102496000D5005580E5006580F5007581050085842
:1024A600D8A058EF12F05AEF12F06BEF12F0095065
:1024B600015E0A50025A0B50035A0C50045A0D5032
:1024C600055A0E50065A0F50075A1050085A1380D4
:1024D600D89010320F320E320D320C320B320A32D5
:1024E6000932112E3AEF12F01250D8B47DEF12F0E5
:1024F6007FEF12F08FEF12F01A1E191E181E171E0C
:10250600161E151E141E136C000E142215221622FA
:102516001722182219221A2213C001F014C002F041
:1025260015C003F016C004F017C005F018C006F079
:1025360019C007F01AC008F0120034C013F035C0F5
:1025460014F036C015F037C016F032C001F033C0B3
:1025560002F0000E02BEFF0E036E046E010E02ECC8
:1025660011F001C00FF002C010F003C011F004C05A
:1025760012F0E4EC0BF00FC028F010C029F011C0E7
:102586002AF012C02BF0C6EC14F028C03DF029C08A
:102596003EF0000E136E000E146E000E156E400E09
:1025A600166E34C00FF035C010F036C011F037C0CB
:1025B60012F0E4EC0BF00FC039F010C03AF011C085
:1025C6003BF012C03CF0000E286E000E296E7F0E06
:1025D6002A6E430E2B6E170E136EB70E146ED10EA7
:1025E600156E3C0E166E39C00FF03AC010F03BC0A7
:1025F60011F03CC012F0E4EC0BF00FC02CF010C050
:102606002DF011C02EF012C02FF0EFEC17F028C0FD
:1026160034F029C035F02AC036F02BC037F0000E52
:1026260000017D6F000E7C6F4AEF13F0808034C08E
:1026360028F035C029F036C02AF037C02BF0C6EC9A
:1026460014F028C0D6FF29C0D7FFF2A42DEF13F04F
:102656002FEF13F028EF13F0F294809034C028F097
:1026660035C029F036C02AF037C02BF0C6EC14F07E
:1026760028C0D6FF29C0D7FFF2A444EF13F046EFD7
:1026860013F03FEF13F0F29400017C4B7D2B3D508D
:102696007C5D7D51800A386E3E50800A3858D8A03D
:1026A60057EF13F059EF13F019EF13F0120034C07F
:1026B60013F035C014F036C015F037C016F032C02E
:1026C60001F033C002F0000E02BEFF0E036E046E70
:1026D600010E02EC11F001C00FF002C010F003C0B1
:1026E60011F004C012F0E4EC0BF00FC028F010C09B
:1026F60029F011C02AF012C02BF0C6EC14F028C045
:1027060032F029C033F0000E136E000E146E000E68
:10271600156E400E166E34C00FF035C010F036C080
:1027260011F037C012F0E4EC0BF00FC039F010C016
:102736003AF011C03BF012C03CF0000E286E000EBD
:10274600296E7F0E2A6E430E2B6E170E136EB70E72
:10275600146ED10E156E3C0E166E39C00FF03AC0CF
:1027660010F03BC011F03CC012F0E4EC0BF00FC0CF
:102776002CF010C02DF011C02EF012C02FF0EFEC8F
:1027860017F028C034F029C035F02AC036F02BC027
:1027960037F0000E00017D6F000E7C6F04EF14F021
:1027A600809034C028F035C029F036C02AF037C0F2
:1027B6002BF0C6EC14F028C0D6FF29C0D7FFF2A430
:1027C600E7EF13F0E9EF13F0E2EF13F0F2948090E5
:1027D60034C028F035C029F036C02AF037C02BF0B7
:1027E600C6EC14F028C0D6FF29C0D7FFF2A4FEEF2E
:1027F60013F000EF14F0F9EF13F0F29400017C4BA4
:102806007D2B32507C5D7D51800A386E3350800AB4
:102816003858D8A011EF14F013EF14F0D3EF13F0DB
:102826001200000E126E08BE1DEF14F01BEF14F01E
:102836002FEF14F0081E071E061E051E041E031E9B
:10284600021E016C000E0222032204220522062229
:1028560007220822010E126E10BE36EF14F034EF76
:1028660014F046EF14F0101E0F1E0E1E0D1E0C1E49
:102876000B1E0A1E096C000E0A220B220C220D22C8
:102886000E220F22102209500A100B100C100D10E8
:102896000E100F101010D8B453EF14F055EF14F0BB
:1028A6009DEF14F0010E116E63EF14F0D890093607
:1028B6000A360B360C360D360E360F361036112A02
:1028C60010AE68EF14F06AEF14F059EF14F00950E7
:1028D600015C0A5002580B5003580C5004580D5016
:1028E60005580E5006580F50075810500858D8A0D3
:1028F6007FEF14F081EF14F091EF14F00950015EB0
:102906000A50025A0B50035A0C50045A0D50055ADD
:102916000E50065A0F50075A1050085AD8901032C7
:102926000F320E320D320C320B320A320932112EB0
:102936006AEF14F01250D8B4A3EF14F0A5EF14F018
:10294600B5EF14F0081E071E061E051E041E031E04
:10295600021E016C000E0222032204220522062218
:102966000722082201C001F002C002F003C003F0F2
:1029760004C004F005C005F006C006F007C007F065
:1029860008C008F012002A342B34316E3150D8A416
:10299600CFEF14F0D1EF14F0DBEF14F0000E286E39
:1029A600000E296E000E2A6E000E2B6E48EF15F0F3
:1029B60028C02CF029C02DF02AC02EF02BC02FF0F5
:1029C600200EEBEF14F0D8902F322E322D322C320F
:1029D600E82EE6EF14F02C50306E2A8EFF0E2816E5
:1029E600FF0E2916FF0E2A16000E2B16960E315EC6
:1029F60031BE02EF15F000EF15F018EF15F031506B
:102A0600800A970FD8B00AEF15F00CEF15F00EEF0D
:102A160015F0D1EF14F0D8902B322A322932283211
:102A2600313E0EEF15F030EF15F01F0E31641EEF3C
:102A360015F020EF15F028EF15F0D1EF14F0D8902F
:102A4600283629362A362B3631063150D8A42EEFB1
:102A560015F030EF15F022EF15F03050D8B436EF00
:102A660015F038EF15F040EF15F02B1E2A1E291E23
:102A7600286C000E29222A222B2228C028F029C0E1
:102A860029F02AC02AF02BC02BF0120003500410A4
:102A9600D8B450EF15F052EF15F05BEF15F0035078
:102AA6000410D8A459EF15F05BEF15F060EF15F0A0
:102AB6000150D5EC18F0ADEF15F020EE04F0035000
:102AC600D9260450DA22DE50DE10D8B46DEF15F0A8
:102AD6006FEF15F08AEF15F020EE04F00350D926BB
:102AE6000450DA2210EE02F00350E1260450E222EE
:102AF600DE50E65CE650800A096EDE50800A095810
:102B0600D8B088EF15F08AEF15F0ADEF15F020EE8E
:102B160002F00350D9260450DA22DECF05F0DDCFCD
:102B260006F003C0D9FF04C0DAFFDECF07F0DDCF21
:102B360008F005500724D96E06500820DA6E01C049
:102B4600DFFF20EE02F00350D9260450DA22DE2AF7
:102B5600000EDD2212005EA0B3EF15F0B5EF15F002
:102B6600BFEF15F013C00AF014C00BF011C00CF043
:102B760012C00DF012EC18F016BEC4EF15F0C6EF39
:102B860015F0CCEF15F015C01AF016C01BF0D0EFFB
:102B960015F0000E1B6E000E1A6E000E196E000E5A
:102BA600186EE2EF15F0000E026E200E016E11C0D7
:102BB60003F012C004F049EC15F0184A192A1A500D
:102BC600185C1950800A176E1B50800A1758D8A037
:102BD600EFEF15F0F1EF15F0D6EF15F05EB0F6EF6A
:102BE60015F0F8EF15F002EF16F013C00AF014C056
:102BF6000BF011C00CF012C00DF012EC18F013C05F
:102C060001F014C002F070EC18F01A500124116E95
:102C16001B500220126E12008350F00B836EF00ED2
:102C26009516959C959A95988C9C8C9A8C98620E84
:102C3600026E660EE82EFED7022EFCD7300EC7ECCB
:102C460017F0210E026E760EE82EFED7022EFCD766
:102C560000D0300EC7EC17F0A60EE82EFED700D037
:102C6600320EC7EC17F0A60EE82EFED700D0A60E41
:102C7600E82EFED700D0280EC7EC17F0A60EE82ED9
:102C8600FED700D0080EC7EC17F0A60EE82EFED72A
:102C960000D00F0EC7EC17F0A60EE82EFED700D018
:102CA600010EC7EC17F0A60EE82EFED700D0040ED4
:102CB600C7EC17F0A60EE82EFED700D0A60EE82E1B
:102CC600FED700D0060EC7EC17F00C0EC7EC17F0B7
:102CD6001200000E07140F6E000E0814106E800E00
:102CE6000914116E7F0E0A14126E0F501010111077
:102CF6001210D8A481EF16F083EF16F08BEF16F0C2
:102D0600000E076E000E086E000E096E000E0A6EAB
:102D1600000E0B140F6E000E0C14106E800E0D14A8
:102D2600116E7F0E0E14126E0F501010111012102D
:102D3600D8A4A0EF16F0A2EF16F0AAEF16F0000E38
:102D46000B6E000E0C6E000E0D6E000E0E6E0B500E
:102D560007180FE10C5008180CE10D50091809E18D
:102D66000E500A18D8B4BAEF16F0BCEF16F0BFEF43
:102D760016F0D890C0EF16F0D8801200010EC7ECFE
:102D860017F0400EC7EC17F01F0E72EC17F0150E79
:102D960072EC17F01F0E72EC17F00E0E72EC17F0B5
:102DA600150E72EC17F00E0E72EC17F01B0E72EC8D
:102DB60017F0000E72EC17F0070E72EC17F0020E09
:102DC60072EC17F01F0E72EC17F0070E72EC17F08C
:102DD600070E72EC17F0050E72EC17F01B0E72EC74
:102DE60017F0000E72EC17F01C0E72EC17F0080EBE
:102DF60072EC17F01F0E72EC17F01C0E72EC17F047
:102E06001C0E72EC17F0140E72EC17F01B0E72EC1F
:102E160017F0000E72EC17F01200400EF66E1E0E42
:102E2600F76E000EF86E05EEF0F012EE10F00900E7
:102E3600F5CFEEFFE550E150FAE1E250F8E1A40EDD
:102E4600F66E310EF76E000EF86E00EECDF010EE57
:102E560006F00900F5CFEEFFE550E150FAE100EE8D
:102E660060F05A0EEE6AE806FDE15F6A5E6A000EE1
:102E7600F86E080EF76E0001B6EF18F052C056F065
:102E860053C057F0000E0001756F000E746F5FEFB0
:102E960017F050C040F051C041F0560E426E000E81
:102EA600436E54C044F055C045F028EC10F0405035
:102EB600000174274150752356C0F6FF57C0F7FF2F
:102EC6000800F5500009D8A46BEF17F06DEF17F066
:102ED6004CEF17F074C050F075C051F01200016E3F
:102EE600A60EE82EFED700D0F00E8316F00E95162D
:102EF60001380F0B0F0B8310836E8C9C8C8A080E87
:102F0600E82EFED700F08C88080EE82EFED700F0DB
:102F16008C98F00E831601500F0B8312080EE82EC4
:102F2600FED700F08C88080EE82EFED700F08C98AD
:102F36000F0E951212005C0E0001BA6F000EBB6FE9
:102F460058C0BCF059C0BDF0000EBF6F000EBE6F7A
:102F5600000EC16F000EC06FBC0E506E000E516E9B
:102F66005AC052F05BC053F0BA0E546E000E556E46
:102F760041EC17F00001BE515824D96EBF515920BB
:102F8600DA6E000EDF6E1200016EF00E8316F00E82
:102F9600951601380F0B0F0B8310836E8C9C8C9A41
:102FA600080EE82EFED700F08C88080EE82EFED715
:102FB60000F08C98F00E831601500F0B8312080E4A
:102FC600E82EFED700F08C88080EE82EFED700F01B
:102FD6008C980F0E95121200000E2C1A000E2D1A48
:102FE600000E2E1A800E2F1A28C001F029C002F0FA
:102FF6002AC003F02BC004F02CC005F02DC006F04B
:103006002EC007F02FC008F06FEC07F001C028F0C3
:1030160002C029F003C02AF004C02BF01200000EF3
:10302600106E000E0F6E23EF18F00EC001F0026A4C
:103036000CC003F00DC004F049EC15F00F4A102A3D
:103046000F500A24D96E10500B20DA6EDF500E6E28
:103056000E50D8A431EF18F033EF18F018EF18F02F
:10306600120014BE41EF18F0145006E11304D8B054
:103076003FEF18F041EF18F04FEF18F013C015F0BE
:1030860014C016F0151E161E154A162A15C013F082
:1030960016C014F053EF18F013C013F014C014F058
:1030A600120063EF18F0A60EE82EFED700D002C07D
:1030B600D9FF03C0DAFFDF5072EC17F0024A032A89
:1030C60002C0D9FF03C0DAFFDF50D8A46DEF18F0B5
:1030D6006FEF18F056EF18F0120001C003F002C0AF
:1030E60004F078EF18F0014A022A01C0D9FF02C0A5
:1030F600DAFFDF50D8A482EF18F084EF18F076EFED
:1031060018F00350015C016E04500258026E120062
:1031160003BE96EF18F0035008E10204D8A096EF1C
:1031260018F098EF18F09EEF18F00450C00FC7EC97
:1031360017F0A2EF18F00450800FC7EC17F012003A
:1031460001500302F3CF05F0F4CF06F0015004025C
:10315600F350062602500302F350062605C001F07E
:1031660006C002F012000F0EC16E0FEC16F0C1EC95
:1031760016F0C7EC18F0100E926E936803EC04F08C
:10318600C1EF18F000EF00F0D58ED58CD59AD59802
:10319600D596D550F80B0609D56EF28A12000F00A7
:0631A6000100F40112001B
:020000040020DA
:08000000FFFFFFFFFFFFFFFF00
:020000040030CA
:0E000000240C1F1FFF8385FF0FC00FE00F4071
:00000001FF
