:04000000F1EF17F015
:05080000002569000065
:10080600000E0001C76F000EC66F81BF16EF04F021
:10081600815107E10F0E805DD8B014EF04F016EF9A
:1008260004F0B6EF05F0CEBF1BEF04F01DEF04F0A9
:10083600B6EF05F08251D8A423EF04F025EF04F0BB
:10084600B6EF05F0C6C001F0C7C002F0000E046E98
:100856000C0E036E98EC19F0F80E0124D96E050EF5
:100866000220DA6EDECF07F0DECF08F0DECF09F029
:10087600DECF0AF0000E0B6E000E0C6E800E0D6EB3
:100886003F0E0E6E4DEC17F0D8A04CEF04F04EEF75
:1008960004F0E2EF04F0000E146E010E136E000E6B
:1008A600166E100E156E6CEC19F0A30E586E000E37
:1008B600596E010E5A6E080E5B6E000E0A6E000E21
:1008C600096EF3EC16F009C05CF00AC05DF07FEC2F
:1008D60018F0A30E026E000E036E35EC19F0CFC0B1
:1008E60013F0D0C014F0000E0A6E000E096EF3EC81
:1008F60016F009C015F00AC016F06CEC19F0000EDF
:1009060053EC18F0000E146E010E136ECDC015F0E8
:10091600CEC016F06CEC19F0010E53EC18F0000E78
:100926000B6E000E0C6EFA0E0D6E430E0E6EC6C0EA
:1009360001F0C7C002F0000E046E0C0E036E98ECB8
:1009460019F0F00E0124D96E050E0220DA6EDECF04
:1009560007F0DECF08F0DECF09F0DECF0AF0D2ECEA
:1009660009F007C028F008C029F009C02AF00AC01B
:100976002BF0EBEC14F028C0C2F029C0C3F0C2C0C3
:1009860032F0C3C033F0C6C001F0C7C002F0000E9B
:10099600046E0C0E036E98EC19F0F40E0124D96E59
:1009A600050E0220DA6EDECF34F0DECF35F0DECF74
:1009B60036F0DECF37F0DFEC11F09DEF05F0C6C064
:1009C60001F0C7C002F0000E046E0C0E036E98EC28
:1009D60019F0F80E0124D96E050E0220DA6EDECF6C
:1009E60007F0DECF08F0DECF09F0DECF0AF0000E0A
:1009F6000B6E000E0C6E000E0D6E000E0E6E4DECA4
:100A060017F0D8A009EF05F00BEF05F09DEF05F004
:100A1600000E146E010E136E000E166E100E156E7D
:100A26006CEC19F0A30E586E000E596E010E5A6E3C
:100A3600080E5B6E000E0A6E000E096EF3EC16F0E1
:100A460009C05CF00AC05DF07FEC18F0A30E026EE0
:100A5600000E036E35EC19F0CFC013F0D0C014F0C1
:100A6600000E0A6E000E096EF3EC16F009C015F0C2
:100A76000AC016F06CEC19F0000E53EC18F0000EDC
:100A8600146E010E136ECDC015F0CEC016F06CECD0
:100A960019F0010E53EC18F0000E0B6E000E0C6EE2
:100AA600FA0E0D6E430E0E6EC6C001F0C7C002F000
:100AB600000E046E0C0E036E98EC19F0F00E012475
:100AC600D96E050E0220DA6EDECF07F0DECF08F013
:100AD600DECF09F0DECF0AF0D2EC09F007C028F02D
:100AE60008C029F009C02AF00AC02BF0EBEC14F07C
:100AF60028C0C4F029C0C5F0C4C032F0C5C033F068
:100B0600C6C001F0C7C002F0000E046E0C0E036EE4
:100B160098EC19F0F40E0124D96E050E0220DA6E57
:100B2600DECF34F0DECF35F0DECF36F0DECF37F075
:100B3600AAEC12F0010EA8EC18F00001804B812BF4
:100B4600CD07D8A0CE07000E826F0E0E8019811138
:100B5600D8A4B0EF05F0B2EF05F061EF07F0010E93
:100B6600826F61EF07F081BFBBEF05F0BDEF05F0C7
:100B760061EF07F0CEBFCBEF05F0CE5107E10F0EC8
:100B8600CD5DD8B0C9EF05F0CBEF05F061EF07F00A
:100B96008205D8A4D1EF05F0D3EF05F061EF07F099
:100BA600C6C001F0C7C002F0000E046E0C0E036E44
:100BB60098EC19F0F80E0124D96E050E0220DA6EB3
:100BC600DECF07F0DECF08F0DECF09F0DECF0AF089
:100BD600000E0B6E000E0C6E800E0D6E3F0E0E6E2E
:100BE6004DEC17F0D8A0FAEF05F0FCEF05F090EF0A
:100BF60006F0000E146E010E136E000E166E100E29
:100C0600156E6CEC19F0A30E586E000E596E010E9F
:100C16005A6E080E5B6E000E0A6E000E096EF3EC3D
:100C260016F009C05CF00AC05DF07FEC18F0A30E68
:100C3600026E000E036E35EC19F0CFC013F0D0C073
:100C460014F0000E0A6E000E096EF3EC16F009C0E1
:100C560015F00AC016F06CEC19F0000E53EC18F003
:100C6600000E146E010E136ECDC015F0CEC016F038
:100C76006CEC19F0020E53EC18F0000E0B6E000E21
:100C86000C6EFA0E0D6E430E0E6EC6C001F0C7C096
:100C960002F0000E046E0C0E036E98EC19F0F00EC6
:100CA6000124D96E050E0220DA6EDECF07F0DECF04
:100CB60008F0DECF09F0DECF0AF0D2EC09F007C06B
:100CC60028F008C029F009C02AF00AC02BF0EBEC86
:100CD60014F028C0C2F029C0C3F0C2C032F0C3C0AD
:100CE60033F0C6C001F0C7C002F0000E046E0C0E51
:100CF600036E98EC19F0F40E0124D96E050E02204D
:100D0600DA6EDECF34F0DECF35F0DECF36F0DECF72
:100D160037F0DFEC11F04BEF07F0C6C001F0C7C0AB
:100D260002F0000E046E0C0E036E98EC19F0F80E2D
:100D36000124D96E050E0220DA6EDECF07F0DECF73
:100D460008F0DECF09F0DECF0AF0000E0B6E000EC3
:100D56000C6E000E0D6E000E0E6E4DEC17F0D8A048
:100D6600B7EF06F0B9EF06F04BEF07F0000E146E82
:100D7600010E136E000E166E100E156E6CEC19F049
:100D8600A30E586E000E596E010E5A6E080E5B6E5B
:100D9600000E0A6E000E096EF3EC16F009C05CF048
:100DA6000AC05DF07FEC18F0A30E026E000E036E13
:100DB60035EC19F0CFC013F0D0C014F0000E0A6E57
:100DC600000E096EF3EC16F009C015F00AC016F015
:100DD6006CEC19F0000E53EC18F0000E146E010EB8
:100DE600136ECDC015F0CEC016F06CEC19F0020EE5
:100DF60053EC18F0000E0B6E000E0C6EFA0E0D6E14
:100E0600430E0E6EC6C001F0C7C002F0000E046E9F
:100E16000C0E036E98EC19F0F00E0124D96E050E37
:100E26000220DA6EDECF07F0DECF08F0DECF09F063
:100E3600DECF0AF0D2EC09F007C028F008C029F08E
:100E460009C02AF00AC02BF0EBEC14F028C0C4F05D
:100E560029C0C5F0C4C032F0C5C033F0C6C001F029
:100E6600C7C002F0000E046E0C0E036E98EC19F06B
:100E7600F40E0124D96E050E0220DA6EDECF34F0B0
:100E8600DECF35F0DECF36F0DECF37F0AAEC12F04B
:100E9600010EA8EC18F000018007D8A08107CD4B01
:100EA600CE2B010E826F80518111D8A45DEF07F021
:100EB6005FEF07F061EF07F0000E826FC64BC72B9E
:100EC600C7BF6FEF07F0C75109E12C0EC65DD8A06A
:100ED6006FEF07F071EF07F008EF04F0120004500F
:100EE600800B0D6E045004240F6E03AE7DEF07F0E9
:100EF6007FEF07F080EF07F00F800F50D8B486EF32
:100F060007F088EF07F09DEF07F00F28D8A48EEFC3
:100F160007F090EF07F098EF07F0000E016E000E55
:100F2600026E000E036E000E046E038E000E046E3B
:100F3600A5EF07F0000E016E000E026E000E036EA6
:100F4600000E046E0850800B0E6E0D500E18D8B4AD
:100F5600AFEF07F0B1EF07F0B2EF07F00D8C0850D6
:100F660008240E6E07AEBAEF07F0BCEF07F0BDEF30
:100F760007F00E800E50D8B4C3EF07F0C5EF07F0A8
:100F8600DAEF07F00E28D8A4CBEF07F0CDEF07F085
:100F9600D5EF07F0000E056E000E066E000E076E0A
:100FA600000E086E078E000E086EE2EF07F0000EC8
:100FB600056E000E066E000E076E000E086E0F50D0
:100FC6000E5CD8B0E9EF07F0EBEF07F012EF08F090
:100FD6000DACF0EF07F0F2EF07F0F4EF07F0800E3C
:100FE6000D1A0FC010F00EC00FF010C00EF001C0A9
:100FF60010F005C001F010C005F002C010F006C0E8
:1010060002F010C006F003C010F007C003F010C0D5
:1010160007F004C010F008C004F010C008F0000E7D
:10102600106E0F500EC009F00A6A095E000E0A5AC9
:101036000ABE27EF08F00A5009E11A0E095CD8A08B
:1010460027EF08F029EF08F060EF08F001500210D2
:1010560003100410D8A432EF08F035EF08F0010EA3
:1010660036EF08F0000E106E000E016E000E026ED6
:10107600000E036E000E046E0EC00FF069EF08F04E
:1010860010A048EF08F04AEF08F050EF08F0D890AB
:1010960010300109106E52EF08F0D890103201A0FE
:1010A60057EF08F059EF08F05AEF08F0108E0434A5
:1010B60004320332023201320F2A0E500F5CD8A0DE
:1010C60067EF08F069EF08F043EF08F00DBC6EEF2C
:1010D60008F070EF08F0B0EF08F00F50D8A476EFE4
:1010E60008F078EF08F082EF08F0000E016E000EAF
:1010F600026E000E036E000E046ED1EF09F005506D
:10110600012606500222075003220850042204A09A
:101116008FEF08F091EF08F03DEF09F010A096EF81
:1011260008F098EF08F09EEF08F0D890103001090B
:10113600106EA0EF08F0D890103201A0A5EF08F0CD
:10114600A7EF08F0A8EF08F0108E0434043203323B
:10115600023201320F2A3DEF09F00550015C0650BC
:101166000258075003580450800A096E0850800A36
:101176000958D8B0C1EF08F0C3EF08F0EEEF08F059
:101186000150055C096E025006580A6E0350075856
:101196000B6E045008580C6EFF0E0924016EFF0EEC
:1011A6000A20026EFF0E0B20036EFF0E0C20046E4B
:1011B600800E0D1A106C1050D8A4E4EF08F0E6EF7C
:1011C60008F0F6EF08F0010E0126000E02220322B7
:1011D6000422F6EF08F00550015E0650025A075049
:1011E600035A0850045A0150021003100410D8A4E0
:1011F600FFEF08F001EF09F036EF09F01050D8A420
:1012060007EF09F009EF09F036EF09F0000E016E5D
:10121600000E026E000E036E000E046ED1EF09F092
:10122600D890013602360336043610AE1DEF09F0AB
:101236001FEF09F020EF09F0018010A025EF09F05B
:1012460027EF09F02BEF09F0D88010362DEF09F0C3
:10125600D89010360F50D8B433EF09F035EF09F0B7
:1012660036EF09F00F0603AE3BEF09F03DEF09F04C
:1012760013EF09F0000E0E6E10AE44EF09F046EFC4
:1012860009F05EEF09F010C009F07F0E0916D8B418
:101296004FEF09F051EF09F055EF09F0010E0E6E10
:1012A6005EEF09F001A05AEF09F05CEF09F05EEF7E
:1012B60009F051EF09F00E50D8B464EF09F066EF6B
:1012C60009F091EF09F0010E0126000E0222032219
:1012D600042204A071EF09F073EF09F091EF09F011
:1012E60001C009F002C00AF003C00BF004C00CF004
:1012F6000C340C320B320A32093209C001F00AC032
:1013060002F00BC003F00CC004F00F28D8B48EEF27
:1013160009F090EF09F091EF09F00F2A0F28D8B4E1
:1013260097EF09F099EF09F0A1EF09F00F50D8A453
:101336009FEF09F0A1EF09F0B3EF09F0000E016E7F
:10134600000E026E000E036E000E046E0F50D8A43F
:10135600AFEF09F0B1EF09F0B3EF09F0000E0D6E33
:101366000FA0B8EF09F0BAEF09F0BDEF09F0038E50
:10137600BEEF09F0039ED8900F30046E0DAEC6EF97
:1013860009F0C8EF09F0C9EF09F0048E01C001F0B9
:1013960002C002F003C003F004C004F012000A50B9
:1013A600800B136E0A500A24196E09AEDDEF09F0A0
:1013B600DFEF09F0E0EF09F019801950D8B4E6EF35
:1013C60009F0E8EF09F0FBEF09F01928D8A4EEEFD1
:1013D60009F0F0EF09F0F8EF09F0000E076E000EC5
:1013E600086E000E096E000E0A6E098E03EF0AF0F3
:1013F600000E076E000E086E000E096E000E0A6ED5
:101406000E50800B131A0E500E24186E0DAE0EEFF2
:101416000AF010EF0AF011EF0AF018801850D8B44D
:1014260017EF0AF019EF0AF02CEF0AF01828D8A4E3
:101436001FEF0AF021EF0AF029EF0AF0000E0B6EFB
:10144600000E0C6E000E0D6E000E0E6E0D8E34EF3D
:101456000AF0000E0B6E000E0C6E000E0D6E000EE6
:101466000E6E1850D8B43AEF0AF03CEF0AF044EF8B
:101476000AF01950D8A442EF0AF044EF0AF04EEFF2
:101486000AF0000E076E000E086E000E096E000EC2
:101496000A6EE6EF0BF00D500702F3CF1EF0F4CF05
:1014A6001FF01E50146E156A166A176A1F501A6EC0
:1014B6001B6A1C6A1D6A0C500802F3CF1EF0F4CF9B
:1014C6001FF01E501426000E1522162217221F503A
:1014D6001A26000E1B221C221D220B500902F3CFD6
:1014E6001EF0F4CF1FF01E501426000E15221622F1
:1014F60017221F501A26000E1B221C221D2216C060
:1015060017F015C016F014C015F0146A0B50080237
:10151600F3CF1EF0F4CF1FF01E5014261F501522D5
:10152600000E1622000E17220C500702F3CF1EF0F3
:10153600F4CF1FF01E5014261F501522000E16223F
:10154600000E172216C017F015C016F014C015F0BD
:10155600146A0B500702F3CF1EF0F4CF1FF01E5093
:1015660014261F501522000E1622000E17220D50AB
:101576000802F3CF1EF0F4CF1FF01E501A261F509C
:101586001B22000E1C22000E1D220C500902F3CF56
:101596001EF0F4CF1FF01E501A261F501B22000EFD
:1015A6001C22000E1D220D500902F3CF1EF0F4CFAF
:1015B6001FF01E500F6E1F50106E116A126A11C076
:1015C60012F010C011F00FC010F00F6A0F501A265B
:1015D60010501B2211501C2212501D2214C00FF055
:1015E60015C010F016C011F017C012F0190E01EF59
:1015F6000BF0D8901232113210320F32E82EFCEF77
:101606000AF00F501A2610501B2211501C2212509D
:101616001D2216C017F015C016F014C015F0146A76
:10162600185019C00FF0106A0F26000E1022820EF5
:101636000F241E6EFF0E10201F6E37EF0BF0D89092
:101646001A361B361C361D3617AE2CEF0BF02EEF56
:101656000BF02FEF0BF01A80D8901436153616368D
:1016660017361E06D8A01F061CAE3CEF0BF03EEF49
:101676000BF022EF0BF0000E186E17AE45EF0BF0D5
:1016860047EF0BF06BEF0BF0FF0E14140F6EFF0E0F
:101696001514106EFF0E1614116E7F0E1714126EAF
:1016A6000F50101011101210D8B45CEF0BF05EEF53
:1016B6000BF062EF0BF0010E186E6BEF0BF01AA039
:1016C60067EF0BF069EF0BF06BEF0BF05EEF0BF0D3
:1016D6001850D8B471EF0BF073EF0BF097EF0BF0D7
:1016E600010E1A26000E1B221C221D221DA07EEFB3
:1016F6000BF080EF0BF097EF0BF01AC00FF01BC04A
:1017060010F01CC011F01DC012F01234123211324A
:1017160010320F320FC01AF010C01BF011C01CF0AF
:1017260012C01DF01E4A1F2A1FBEA2EF0BF01F504B
:1017360008E11E28D8A0A2EF0BF0A4EF0BF0AEEF45
:101746000BF0000E1A6E000E1B6E800E1C6E7F0EC6
:101756001D6EDCEF0BF01FBEBBEF0BF01F5006E15A
:101766001E04D8B0B9EF0BF0BBEF0BF0C7EF0BF0D0
:10177600000E1A6E000E1B6E000E1C6E000E1D6E05
:10178600000E136EDCEF0BF01EC019F0FF0E1A16DA
:10179600FF0E1B167F0E1C16000E1D1619A0D6EF87
:1017A6000BF0D8EF0BF0D9EF0BF01C8ED890193058
:1017B6001D6E13501D121AC007F01BC008F01CC086
:1017C60009F01DC00AF012001250800B1F6E125055
:1017D6001224266E11AEF2EF0BF0F4EF0BF0F5EFDC
:1017E6000BF026802650D8B4FBEF0BF0FDEF0BF084
:1017F60012EF0CF02628D8A403EF0CF005EF0CF03E
:101806000DEF0CF0000E0F6E000E106E000E116E36
:10181600000E126E118E000E126E1AEF0CF0000EF4
:101826000F6E000E106E000E116E000E126E165028
:10183600800B1F1A16501624276E15AE25EF0CF0D6
:1018460027EF0CF028EF0CF027802750D8B42EEFA6
:101856000CF030EF0CF045EF0CF02728D8A436EF4B
:101866000CF038EF0CF040EF0CF0000E136E000E8B
:10187600146E000E156E000E166E158E000E166E88
:101886004DEF0CF0000E136E000E146E000E156E6A
:10189600000E166E1350141015101610D8A456EF1D
:1018A6000CF058EF0CF070EF0CF0000E0F6E000EFF
:1018B600106E000E116E000E126E800E11127F0E4B
:1018C60012121F5012120FC00FF010C010F011C0EC
:1018D60011F012C012F0B3EF0DF02650D8A476EF37
:1018E6000CF078EF0CF082EF0CF0000E0F6E000E8D
:1018F600106E000E116E000E126EB3EF0DF0275033
:1019060026C017F0186A175E000E185A7F0E1724A5
:10191600206E000E1820216E0FC01BF010C01CF0A8
:1019260011C01DF012C01EF0000E0F6E000E106EDC
:10193600000E116E000E126E000E226E000E236E49
:10194600000E246E000E256E000E276EE3EF0CF0DF
:101956002750D8B4B1EF0CF0B3EF0CF0CAEF0CF08F
:10196600D8901B361C361D361E36D8900F361036CC
:101976001136123625AEC2EF0CF0C4EF0CF0C5EFEF
:101986000CF00F80D8902236233624362536135095
:101996001B5C14501C5815501D5816501E58D8A0C4
:1019A600D7EF0CF0D9EF0CF0E2EF0CF0258C1350CA
:1019B6001B5E14501C5A15501D5A16501E5A272AC3
:1019C600190E2764E9EF0CF0EBEF0CF0ABEF0CF01F
:1019D6001B501C101D101E10D8B4F4EF0CF0F6EFBF
:1019E6000CF00EEF0DF022800EEF0DF0D8900F36B2
:1019F60010361136123625AE03EF0DF005EF0DF059
:101A060006EF0DF00F80D890223623362436253681
:101A16002006D8A0210611AE13EF0DF015EF0DF03C
:101A2600F9EF0CF0000E276E25AE1CEF0DF01EEF41
:101A36000DF042EF0DF0FF0E2214176EFF0E231469
:101A4600186EFF0E2414196E7F0E25141A6E175089
:101A5600181019101A10D8B433EF0DF035EF0DF039
:101A660039EF0DF0010E276E42EF0DF00FA03EEF9D
:101A76000DF040EF0DF042EF0DF035EF0DF0275071
:101A8600D8B448EF0DF04AEF0DF06EEF0DF0010EF1
:101A96000F26000E10221122122212A055EF0DF071
:101AA60057EF0DF06EEF0DF00FC017F010C018F0E5
:101AB60011C019F012C01AF01A341A32193218323B
:101AC600173217C00FF018C010F019C011F01AC065
:101AD60012F0204A212A21BE79EF0DF0215008E1AB
:101AE6002028D8A079EF0DF07BEF0DF086EF0DF0F2
:101AF600000E216E2068000E0F6E000E106E000E96
:101B0600116E000E126E21BE93EF0DF0215006E10C
:101B16002004D8B091EF0DF093EF0DF0A1EF0DF08A
:101B2600000E216E000E206E000E0F6E000E106E5F
:101B3600000E116E000E126E000E1F6E20C026F0F3
:101B460026A0A8EF0DF0AAEF0DF0ADEF0DF0118E67
:101B5600AEEF0DF0119ED8902630126E64EF0CF0A9
:101B660012001EC036F01FC037F020C038F021C06A
:101B760039F022C03AF023C03BF024C03CF025C027
:101B86003DF03DBEC9EF0DF0CCEF0DF0010ECDEFEF
:101B96000DF0000E346E356A34503510D8B4D6EFD9
:101BA6000DF0D8EF0DF0E8EF0DF03D1E3C1E3B1E8C
:101BB6003A1E391E381E371E366C000E3722382262
:101BC60039223A223B223C223D22000179BFEEEF28
:101BD6000DF0F0EF0DF0F1EF0DF05E9279BFFEEF34
:101BE6000DF0795106E17805D8B0FCEF0DF0FEEF67
:101BF6000DF004EF0EF0000E316E010E306E08EFA0
:101C06000EF078C030F079C031F076C032F077C08F
:101C160033F034503510D8A413EF0EF015EF0EF054
:101C26001CEF0EF05EA41AEF0EF01CEF0EF01FEF85
:101C36000EF03206D8A03306000E3F6E1F0E3E6E23
:101C4600000EA26FA3EF0EF03E06D8A03F06830E4D
:101C56003E24D96E000E3F20DA6E36C001F037C042
:101C660002F038C003F039C004F03AC005F03BC0BA
:101C760006F03CC007F03DC008F00A0E096E000EE3
:101C86000A6E000E0B6E000E0C6E000E0D6E000E30
:101C96000E6E000E0F6E000E106E39EC14F001C0C1
:101CA60026F002C027F003C028F004C029F005C0C2
:101CB6002AF006C02BF007C02CF008C02DF026C075
:101CC60013F028C014F015EC19F01350300FDF6E26
:101CD6003006D8A031063206D8A0330636C001F049
:101CE60037C002F038C003F039C004F03AC005F03E
:101CF6003BC006F03CC007F03DC008F00A0E096E76
:101D0600000E0A6E000E0B6E000E0C6E000E0D6EAF
:101D1600000E0E6E000E0F6E000E106E75EC13F0B8
:101D260001C036F002C037F003C038F004C039F005
:101D360005C03AF006C03BF007C03CF008C03DF0D5
:101D46003FBEAEEF0EF03F5008E13E04D8A0AEEF26
:101D56000EF0B0EF0EF0E0EF0EF036503710381000
:101D660039103A103B103C103D10D8A4BDEF0EF0D0
:101D7600BFEF0EF027EF0EF031BECCEF0EF0315074
:101D860006E13004D8B0CAEF0EF0CCEF0EF027EF24
:101D96000EF033BED7EF0EF0335008E13204D8A070
:101DA600D7EF0EF0D9EF0EF0E0EF0EF05EB2DEEFF9
:101DB6000EF0E0EF0EF027EF0EF034503510D8A4F9
:101DC600E7EF0EF0E9EF0EF0F0EF0EF05EA4EEEFA7
:101DD6000EF0F0EF0EF00EEF0FF03E06D8A03F0625
:101DE60034503510D8A4FAEF0EF0FCEF0EF002EFE7
:101DF6000FF0000E2F6E2B0E2E6E06EF0FF0000E5C
:101E06002F6E2D0E2E6E830E3E24D96E000E3F20B1
:101E1600DA6E2EC0DFFF1CC011F01DC012F0830E5B
:101E26003E24136E000E3F20146E32C015F033C0F0
:101E360016F035EC16F011C01CF012C01DF01200A1
:101E46000000803F0E2D42400000803F0000803F92
:101E56000E2D42400000803F0000803F0E2D424084
:101E66000000803F0000403FE17A74400000803F60
:101E76000000803E333323400000803F0000803F57
:101E86000E2D42400000803F0000403FE17A744042
:101E96000000803F0000803E964323400000803FC4
:101EA600000000400E2D42400000803F0000803FB1
:101EB600C1CA01400000803F0000803FC1CA014006
:101EC6000000803F0000803FC1CA01400000803F03
:101ED6000000403FA69BF43F0000803F0000803E8C
:101EE600964323400000803F0000803F3D0A674044
:101EF6000000803F0000403FE17A74400000803FD0
:101F06000000803E964323400000803F00000040D2
:101F16000E2D42400000803F0000803F0E2DC23F44
:101F26000000803F0000403F0E2D42400000803FF1
:101F36000000803E0E2D42400000803F0000803FA2
:101F46000E2DC23F0000803F0000403F2DB2CD3F26
:101F56000000803F0000803EE7FBD93F0000803F45
:101F66000000803E79E9E63F0000803F0000803EA9
:101F7600A69BF43F0000803F9A99193F79E9E63F16
:101F86000000803FCDCC4C3E0000803F00000000AA
:101F96009A99193F643B37400000803F0000803F1C
:101FA600AE4709400000803F0000403FD578114011
:101FB6000000803F0000803EAC1C1A400000803FBD
:101FC6000000803E964323400000803F0000803E94
:101FD600F4FD2C400000803F9A99193F9643234018
:101FE6000000803FCDCC4C3E0000803F000000004A
:101FF6009A99193FA69B74400000803F0000803FDD
:1020060079E966400000803F0000403FA69B74408F
:102016000000803F0000803E964323400000803F42
:102026000000803F0E2D42400000803F0000403FF0
:10203600A69B74400000803F0000803E96432340EC
:102046000000803F0000A0400E2D42400000803F6F
:1020560042C0D9FF43C0DAFFDECFF6FFDDCFF7FF80
:102066000800F550250AD8A43BEF10F03DEF10F01C
:10207600E9EF10F042C0D9FF43C0DAFFDE2A000EB6
:10208600DD22000E0001776F000E766F76C05EF0DF
:1020960077C05FF07869796942C0D9FF43C0DAFF3B
:1020A600DECFF6FFDDCFF7FF0800F550640AD8B49F
:1020B6005FEF10F061EF10F073EF10F042C0D9FF40
:1020C60043C0DAFFDECFF6FFDDCFF7FF0800F5509D
:1020D600690AD8A471EF10F073EF10F0B3EF10F0A7
:1020E60042C0D9FF43C0DAFFDE2A000EDD2244C01B
:1020F600D9FF45C0DAFFDFCF46F0020EDE26DFCF7E
:1021060047F0000EDD2246C0D9FF47C0DAFFDECF1A
:1021160048F0DDCF49F0000E49BEFF0E4A6E4B6E09
:102126004C6E4D6E4E6E4F6E40C01CF041C01DF0A1
:1021360048C01EF049C01FF04AC020F04BC021F035
:102146004CC022F04DC023F04EC024F04FC025F005
:10215600B4EC0DF01CC040F01DC041F004EF11F0CE
:1021660042C0D9FF43C0DAFFDECFF6FFDDCFF7FF6F
:102176000800F550250AD8A4C3EF10F0C5EF10F0FB
:10218600DCEF10F042C0D9FF43C0DAFFDE2A000EB2
:10219600DD22000E026E250E016E40C003F041C026
:1021A60004F06EEC15F0000E416E010E406E04EF69
:1021B60011F042C0D9FF43C0DAFFDE2A000EDD224D
:1021C600000E416E000E406E04EF11F042C0D9FFC2
:1021D60043C0DAFFDECFF6FFDDCFF7FF0800F5508C
:1021E600016E026A40C003F041C004F06EEC15F0C7
:1021F60042C0D9FF43C0DAFFDE2A000EDD22D6EF49
:1022060010F01200096E0950D8B40CEF11F00EEF61
:1022160011F030EF11F004BE15EF11F013EF11F0CD
:1022260030EF11F001C005F002C006F003C007F060
:1022360004C008F0051E061E071E081E052A000E0D
:1022460006220722082205C00BF006C00CF007C0C4
:102256000DF008C00EF038EF11F001C00BF002C00F
:102266000CF003C00DF004C00EF001500210031074
:102276000410D8A441EF11F043EF11F04DEF11F027
:10228600000E016E000E026E000E036E000E046E4E
:10229600DEEF11F0960E0A6E57EF11F00A2AD8906B
:1022A6000E320D320C320B32000E0B14056E000E80
:1022B6000C14066E000E0D14076EFE0E0E14086E3C
:1022C6000550061007100810D8A46CEF11F06EEF39
:1022D60011F051EF11F07CEF11F00A2A010E0B26D6
:1022E600000E0C220D220E22D8900E320D320C3228
:1022F6000B32000E0B14056E000E0C14066E000E4B
:102306000D14076EFF0E0E14086E0550061007100A
:102316000810D8A491EF11F093EF11F070EF11F0BF
:102326009BEF11F00A06D8900B360C360D360E369A
:102336000DBEA0EF11F0A2EF11F0AAEF11F0020E00
:102346000A60A8EF11F0AAEF11F095EF11F00AB0AC
:10235600AFEF11F0B1EF11F0B2EF11F00D9ED89082
:102366000A320AC005F0066A076A086A05C008F05C
:10237600076A066A056A05500B1206500C120750CA
:102386000D1208500E120950D8B4CCEF11F0CEEF52
:1023960011F0D6EF11F004BED5EF11F0D3EF11F026
:1023A600D6EF11F00E8E0BC001F00CC002F00DC07E
:1023B60003F00EC004F0120034C013F035C014F060
:1023C60036C015F037C016F032C001F033C002F047
:1023D600000E02BEFF0E036E046E010E05EC11F038
:1023E60001C00FF002C010F003C011F004C012F0DB
:1023F600E7EC0BF00FC028F010C029F011C02AF04E
:1024060012C02BF0EBEC14F028C03DF029C03EF0D2
:10241600000E136E000E146E000E156E400E166E34
:1024260034C00FF035C010F036C011F037C012F0CE
:10243600E7EC0BF00FC039F010C03AF011C03BF0DA
:1024460012C03CF0000E286E000E296E7F0E2A6E1A
:10245600430E2B6E170E136EB70E146ED10E156E3D
:102466003C0E166E39C00FF03AC010F03BC011F0AA
:102476003CC012F0E7EC0BF00FC02CF010C02DF0B2
:1024860011C02EF012C02FF0D0EC18F028C034F096
:1024960029C035F02AC036F02BC037F0000E0001F7
:1024A6007D6F000E7C6F9AEF12F081A05DEF12F047
:1024B6005FEF12F065EF12F0000ED06F000ECF6FD7
:1024C60069EF12F0000ED06F010ECF6F818234C01B
:1024D60028F035C029F036C02AF037C02BF0EBECD7
:1024E60014F028C0D6FF29C0D7FFF2A47DEF12F062
:1024F6007FEF12F078EF12F0F294819234C028F058
:1025060035C029F036C02AF037C02BF0EBEC14F0BA
:1025160028C0D6FF29C0D7FFF2A494EF12F096EF99
:1025260012F08FEF12F0F29400017C4B7D2B3D50A0
:102536007C5D7D51800A386E3E50800A3858D8A09E
:10254600A7EF12F0A9EF12F058EF12F0120034C004
:1025560013F035C014F036C015F037C016F032C08F
:1025660001F033C002F0000E02BEFF0E036E046ED1
:10257600010E05EC11F001C00FF002C010F003C00F
:1025860011F004C012F0E7EC0BF00FC028F010C0F9
:1025960029F011C02AF012C02BF0EBEC14F028C081
:1025A60032F029C033F0000E136E000E146E000ECA
:1025B600156E400E166E34C00FF035C010F036C0E2
:1025C60011F037C012F0E7EC0BF00FC039F010C075
:1025D6003AF011C03BF012C03CF0000E286E000E1F
:1025E600296E7F0E2A6E430E2B6E170E136EB70ED4
:1025F600146ED10E156E3C0E166E39C00FF03AC031
:1026060010F03BC011F03CC012F0E7EC0BF00FC02D
:102616002CF010C02DF011C02EF012C02FF0D0EC0F
:1026260018F028C034F029C035F02AC036F02BC087
:1026360037F0000E00017D6F000E7C6F65EF13F022
:1026460081A028EF13F02AEF13F030EF13F0000EFD
:10265600D06F000ECF6F34EF13F0000ED06F010E67
:10266600CF6F819234C028F035C029F036C02AF0E9
:1026760037C02BF0EBEC14F028C0D6FF29C0D7FFEB
:10268600F2A448EF13F04AEF13F043EF13F0F2947D
:10269600819234C028F035C029F036C02AF037C000
:1026A6002BF0EBEC14F028C0D6FF29C0D7FFF2A41C
:1026B6005FEF13F061EF13F05AEF13F0F29400019D
:1026C6007C4B7D2B32507C5D7D51800A386E3350B9
:1026D600800A3858D8A072EF13F074EF13F023EF86
:1026E60013F01200000E126E10BE7EEF13F07CEF98
:1026F60013F090EF13F0101E0F1E0E1E0D1E0C1E73
:102706000B1E0A1E096C000E0A220B220C220D2239
:102716000E220F221022010E126E08BE97EF13F042
:1027260095EF13F0A9EF13F0081E071E061E051EEF
:10273600041E031E021E016C000E02220322042246
:102746000522062207220822010E121A20EE13F095
:10275600070EDE6AE806FDE209500A100B100C109F
:102766000D100E100F101010D8B4BCEF13F0BEEF02
:1027760013F010EF14F0010E116ECCEF13F0D89099
:1027860009360A360B360C360D360E360F3610362F
:10279600112A10AED1EF13F0D3EF13F0C2EF13F0FE
:1027A600D8901336143615361636173618361936A7
:1027B6001A360950015C0A5002580B5003580C5047
:1027C60004580D5005580E5006580F500758105013
:1027D6000858D8A0F1EF13F0F3EF13F004EF14F05C
:1027E6000950015E0A50025A0B50035A0C50045A03
:1027F6000D50055A0E50065A0F50075A1050085AD7
:102806001380D89010320F320E320D320C320B324A
:102816000A320932112ED3EF13F01250D8B416EF44
:1028260014F018EF14F028EF14F01A1E191E181ED3
:10283600171E161E151E141E136C000E14221522CA
:1028460016221722182219221A2213C001F014C0C8
:1028560002F015C003F016C004F017C005F018C04A
:1028660006F019C007F01AC008F01200000E126E2A
:1028760008BE42EF14F040EF14F054EF14F0081EB7
:10288600071E061E051E041E031E021E016C000EF8
:102896000222032204220522062207220822010E12
:1028A600126E10BE5BEF14F059EF14F06BEF14F0DC
:1028B600101E0F1E0E1E0D1E0C1E0B1E0A1E096C70
:1028C600000E0A220B220C220D220E220F221022AB
:1028D60009500A100B100C100D100E100F101010CE
:1028E600D8B478EF14F07AEF14F0C2EF14F0010EBA
:1028F600116E88EF14F0D89009360A360B360C366E
:102906000D360E360F361036112A10AE8DEF14F036
:102916008FEF14F07EEF14F00950015C0A50025854
:102926000B5003580C5004580D5005580E500658BD
:102936000F50075810500858D8A0A4EF14F0A6EF6F
:1029460014F0B6EF14F00950015E0A50025A0B500B
:10295600035A0C50045A0D50055A0E50065A0F5081
:10296600075A1050085AD89010320F320E320D32D4
:102976000C320B320A320932112E8FEF14F012503C
:10298600D8B4C8EF14F0CAEF14F0DAEF14F0081E4A
:10299600071E061E051E041E031E021E016C000EE7
:1029A600022203220422052206220722082201C04F
:1029B60001F002C002F003C003F004C004F005C039
:1029C60005F006C006F007C007F008C008F01200C0
:1029D6002A342B34316E3150D8A4F4EF14F0F6EFCC
:1029E60014F000EF15F0000E286E000E296E000E92
:1029F6002A6E000E2B6E6DEF15F028C02CF029C044
:102A06002DF02AC02EF02BC02FF0200E10EF15F05F
:102A1600D8902F322E322D322C32E82E0BEF15F0B5
:102A26002C50306E2A8EFF0E2816FF0E2916FF0E2A
:102A36002A16000E2B16960E315E31BE27EF15F0C4
:102A460025EF15F03DEF15F03150800A970FD8B0FD
:102A56002FEF15F031EF15F033EF15F0F6EF14F018
:102A6600D8902B322A3229322832313E33EF15F0F4
:102A760055EF15F01F0E316443EF15F045EF15F0D5
:102A86004DEF15F0F6EF14F0D890283629362A3691
:102A96002B3631063150D8A453EF15F055EF15F00B
:102AA60047EF15F03050D8B45BEF15F05DEF15F039
:102AB60065EF15F02B1E2A1E291E286C000E2922F2
:102AC6002A222B2228C028F029C029F02AC02AF061
:102AD6002BC02BF0120003500410D8B475EF15F07C
:102AE60077EF15F080EF15F003500410D8A47EEFB1
:102AF60015F080EF15F085EF15F00150C2EC19F0D6
:102B0600D2EF15F020EE04F00350D9260450DA2255
:102B1600DE50DE10D8B492EF15F094EF15F0AFEF5B
:102B260015F020EE04F00350D9260450DA2210EEF8
:102B360002F00350E1260450E222DE50E65CE65045
:102B4600800A096EDE50800A0958D8B0ADEF15F03C
:102B5600AFEF15F0D2EF15F020EE02F00350D926B4
:102B66000450DA22DECF05F0DDCF06F003C0D9FF30
:102B760004C0DAFFDECF07F0DDCF08F005500724EA
:102B8600D96E06500820DA6E01C0DFFF20EE02F093
:102B96000350D9260450DA22DE2A000EDD22120066
:102BA600000E066E04BEDCEF15F0DAEF15F0E2EF6C
:102BB60015F0036C041ED8B0042A010E066E02BE80
:102BC600E9EF15F0E7EF15F0EFEF15F0016C021ED7
:102BD600D8B0022A010E061A000E086E000E076E05
:102BE60003500410D8B4FAEF15F0FCEF15F024EFFB
:102BF60016F0010E056E04EF16F0D8900336043673
:102C0600052A04AE09EF16F00BEF16F000EF16F0EA
:102C1600D890073608360350015C04500258D8A0F5
:102C260017EF16F019EF16F01EEF16F00350015EBF
:102C36000450025A0780D89004320332052E0BEF57
:102C460016F00650D8B42AEF16F02CEF16F030EF37
:102C560016F0076C081ED8B0082A07C001F008C095
:102C660002F012005EA03AEF16F03CEF16F046EFC7
:102C760016F013C00AF014C00BF011C00CF012C00D
:102C86000DF0F3EC18F016BE4BEF16F04DEF16F004
:102C960053EF16F015C01AF016C01BF057EF16F0DA
:102CA600000E1B6E000E1A6E000E196E000E186EC8
:102CB60069EF16F0000E026E200E016E11C003F0D1
:102CC60012C004F06EEC15F0184A192A1A50185C56
:102CD6001950800A176E1B50800A1758D8A076EF35
:102CE60016F078EF16F05DEF16F05EB07DEF16F099
:102CF6007FEF16F089EF16F013C00AF014C00BF040
:102D060011C00CF012C00DF0F3EC18F013C001F076
:102D160014C002F051EC19F01A500124116E1B5028
:102D26000220126E12008350F00B836EF00E951681
:102D3600959C959A95988C9C8C9A8C98620E026EAE
:102D4600660EE82EFED7022EFCD7300EA8EC18F041
:102D5600210E026E760EE82EFED7022EFCD700D08C
:102D6600300EA8EC18F0A60EE82EFED700D0320ED4
:102D7600A8EC18F0A60EE82EFED700D0A60EE82E78
:102D8600FED700D0280EA8EC18F0A60EE82EFED727
:102D960000D0080EA8EC18F0A60EE82EFED700D03C
:102DA6000F0EA8EC18F0A60EE82EFED700D0010EE6
:102DB600A8EC18F0A60EE82EFED700D0040EA8EC5C
:102DC60018F0A60EE82EFED700D0A60EE82EFED7E7
:102DD60000D0060EA8EC18F00C0EA8EC18F01200A5
:102DE60009C00BF0D8900B36D8900B363C0E0B165C
:102DF600C250C30B0B10C26EC2B204EF17F008EF3D
:102E060017F00B6A0B2A09EF17F00B6A010E0C6E0E
:102E16000B2A10EF17F0D8900C360B2E0EEF17F08A
:102E2600C2B018EF17F01CEF17F00D6A0D2A1DEF50
:102E360017F00D6A010E0E6E0D2A24EF17F0D890CA
:102E46000E360D2E22EF17F00E500C10C212C2B223
:102E56002FEF17F031EF17F02AEF17F0C4500C6E72
:102E66000B6AC3500B240F6E000E0C20106E0FC0A1
:102E760001F010C002F0000E046E400E036ED3EC9B
:102E860015F001C011F002C012F011C009F012C015
:102E96000AF01200000E07140F6E000E0814106ED2
:102EA600800E0914116E7F0E0A14126E0F50101048
:102EB60011101210D8A462EF17F064EF17F06CEF40
:102EC60017F0000E076E000E086E000E096E000E5B
:102ED6000A6E000E0B140F6E000E0C14106E800E90
:102EE6000D14116E7F0E0E14126E0F50101011106D
:102EF6001210D8A481EF17F083EF17F08BEF17F0BD
:102F0600000E0B6E000E0C6E000E0D6E000E0E6E99
:102F16000B5007180FE10C5008180CE10D5009185A
:102F260009E10E500A18D8B49BEF17F09DEF17F081
:102F3600A0EF17F0D890A1EF17F0D8801200010E7D
:102F4600A8EC18F0400EA8EC18F01F0E53EC18F081
:102F5600150E53EC18F01F0E53EC18F00E0E53EC32
:102F660018F0150E53EC18F00E0E53EC18F01B0E5D
:102F760053EC18F0000E53EC18F0070E53EC18F053
:102F8600020E53EC18F01F0E53EC18F0070E53EC1C
:102F960018F0070E53EC18F0050E53EC18F01B0E44
:102FA60053EC18F0000E53EC18F01C0E53EC18F00E
:102FB600080E53EC18F01F0E53EC18F01C0E53ECD1
:102FC60018F01C0E53EC18F0140E53EC18F01B0EF0
:102FD60053EC18F0000E53EC18F01200460EF66E85
:102FE6001E0EF76E000EF86E05EEF0F012EE10F003
:102FF6000900F5CFEEFFE550E150FAE1E250F8E1C5
:103006007E0EF66E330EF76E000EF86E00EECDF005
:1030160010EE06F00900F5CFEEFFE550E150FAE1BB
:1030260000EE60F05A0EEE6AE806FDE15F6A5E6A3F
:10303600000EF86E080EF76E000184EF19F052C00C
:1030460056F053C057F0000E0001756F000E746FF6
:1030560040EF18F050C040F051C041F0560E426E9D
:10306600000E436E54C044F055C045F02BEC10F0F2
:103076004050000174274150752356C0F6FF57C0D3
:10308600F7FF0800F5500009D8A44CEF18F04EEFF2
:1030960018F02DEF18F074C050F075C051F0120002
:1030A600016EA60EE82EFED700D0F00E8316F00EA7
:1030B600951601380F0B0F0B8310836E8C9C8C8A30
:1030C600080EE82EFED700F08C88080EE82EFED7F4
:1030D60000F08C98F00E831601500F0B8312080E29
:1030E600E82EFED700F08C88080EE82EFED700F0FA
:1030F6008C980F0E951212005C0E0001BA6F000E2E
:10310600BB6F58C0BCF059C0BDF0000EBF6F000EBB
:10311600BE6F000EC16F000EC06FBC0E506E000E6B
:10312600516E5AC052F05BC053F0BA0E546E000E88
:10313600556E22EC18F00001BE515824D96EBF51CD
:103146005920DA6E000EDF6E1200016EF00E831645
:10315600F00E951601380F0B0F0B8310836E8C9CA7
:103166008C9A080EE82EFED700F08C88080EE82E02
:10317600FED700F08C98F00E831601500F0B8312C9
:10318600080EE82EFED700F08C88080EE82EFED733
:1031960000F08C980F0E95121200000E2C1A000EDD
:1031A6002D1A000E2E1A800E2F1A28C001F029C0E3
:1031B60002F02AC003F02BC004F02CC005F02DC08D
:1031C60006F02EC007F02FC008F072EC07F001C021
:1031D60028F002C029F003C02AF004C02BF0120028
:1031E600000E106E000E0F6E04EF19F00EC001F007
:1031F600026A0CC003F00DC004F06EEC15F00F4A25
:10320600102A0F500A24D96E10500B20DA6EDF50A8
:103216000E6E0E50D8A412EF19F014EF19F0F9EF54
:1032260018F0120014BE22EF19F0145006E1130430
:10323600D8B020EF19F022EF19F030EF19F013C0D3
:1032460015F014C016F0151E161E154A162A15C0BE
:1032560013F016C014F034EF19F013C013F014C0B5
:1032660014F0120044EF19F0A60EE82EFED700D097
:1032760002C0D9FF03C0DAFFDF5053EC18F0024A50
:10328600032A02C0D9FF03C0DAFFDF50D8A44EEFED
:1032960019F050EF19F037EF19F0120001C003F0E2
:1032A60002C004F059EF19F0014A022A01C0D9FF01
:1032B60002C0DAFFDF50D8A463EF19F065EF19F00A
:1032C60057EF19F00350015C016E04500258026E6C
:1032D600120014BE77EF19F0145008E11304D8A0B9
:1032E60077EF19F079EF19F07FEF19F01550C00F4D
:1032F600A8EC18F083EF19F01550800FA8EC18F021
:1033060012000F0EC16E96EC16F0A2EC17F0ABECA5
:1033160019F0B6EC19F0110E926EFD0E936E03ECD9
:1033260004F092EF19F000EF00F001500302F3CF22
:1033360005F0F4CF06F001500402F35006260250C1
:103346000302F350062605C001F006C002F0120083
:10335600D58ED58CD59AD598D596D550F80B060925
:10336600D56EF28A12000E0EC16EBA0EC06E000E37
:10337600C46E000EC36E12000F000100F4011200AD
:020000040020DA
:08000000FFFFFFFFFFFFFFFF00
:020000040030CA
:0E000000240C1F1FFF8385FF0FC00FE00F4071
:00000001FF
