:04000000D6EF1EF029
:10080000001F151F0E150E1B000007021F0707050E
:100810001B001C081F1C1C141B0050726573696FA1
:100820006E617220626F746F6E0025690000E6EFE2
:100830000CF0000ED66F000ED56F87BF2BEF04F0C3
:10084000875107E10F0E865DD8B029EF04F02BEF3A
:1008500004F07BEF08F0DCBF30EF04F032EF04F07F
:100860007BEF08F08C51D8A438EF04F03AEF04F095
:100870007BEF08F0D5C001F0D6C002F0000E046E88
:100880000C0E036E8BEC20F0F80E0124D96E050ED1
:100890000220DA6EDECF07F0DECF08F0DECF09F0FF
:1008A000DECF0AF0000E0B6E000E0C6E800E0D6E89
:1008B0003F0E0E6EDCEC1DF0D8A061EF04F063EF8C
:1008C00004F04BEF06F0010E0AEC20F0070E0001D9
:1008D000D06F7D0EE82EFED7D02FFCD7DDC013F0F1
:1008E000DEC014F0000E0A6E000E096E82EC1DF0E0
:1008F00009C015F00AC016F05FEC20F0000E59ECAC
:100900001FF0070E0001D06F7D0EE82EFED7D02F0E
:10091000FCD7000E146E010E136EDBC015F0DCC0A8
:1009200016F05FEC20F0030E59EC1FF0070E0001EB
:10093000D06F7D0EE82EFED7D02FFCD7000E146EA0
:10094000010E136E000E166E0C0E156E5FEC20F08D
:10095000AD0E586E000E596E2A0E5A6E080E5B6E62
:100960008AC05CF08BC05DF030EC1FF0AD0E026E03
:10097000000E036E6CEC1EF0000E0A6E000E096E87
:1009800082EC1DF00001DB51091807E1DC510A1867
:10099000D8A4CDEF04F0CFEF04F0DEEF04F0DD05D6
:1009A000DE11D8A4D6EF04F0D8EF04F0DEEF04F0A7
:1009B000DF518A5D8A6FE0518B598B6F000E046E98
:1009C0000C0E036ED5C001F0D6C002F08BEC20F007
:1009D000F00E0124D96E050E0220DA6EDECF13F080
:1009E000DECF14F0DECF15F0DECF16F0E1C001F05F
:1009F000E2C002F0000E02BEFF0E036E046E010E96
:100A000084EC16F001C00FF002C010F003C011F02A
:100A100004C012F04FEC0FF00FC051F010C052F0B4
:100A200011C053F012C054F06AEC1AF051C0D1F06A
:100A300052C0D2F0D1C0C4F0D2C0C5F0D5C001F0D0
:100A4000D6C002F0000E046E0C0E036E8BEC20F08C
:100A5000F40E0124D96E050E0220DA6EDECFC6F048
:100A6000DECFC7F0DECFC8F0DECFC9F05EEC17F006
:100A7000000E2C6E000E2D6E7A0E2E6E440E2F6E12
:100A8000000E046E0C0E036ED5C001F0D6C002F04D
:100A90008BEC20F0F00E0124D96E050E0220DA6EE8
:100AA000DECF13F0DECF14F0DECF15F0DECF16F080
:100AB000E1C001F0E2C002F0000E02BEFF0E036EC4
:100AC000046E010E84EC16F001C00FF002C010F0AD
:100AD00003C011F004C012F04FEC0FF00FC028F06B
:100AE00010C029F011C02AF012C02BF064EC11F0F4
:100AF00028C041F029C042F02AC043F02BC044F086
:100B000074C045F075C046F076C047F077C048F035
:100B1000EFEC0CF041C074F042C075F043C076F0C9
:100B200044C077F0000E2C6E000E2D6E7A0E2E6EE5
:100B3000440E2F6E000E046E0C0E036ED5C001F035
:100B4000D6C002F08BEC20F0F00E0124D96E050E19
:100B50000220DA6EDECF13F0DECF14F0DECF15F018
:100B6000DECF16F0E1C001F0E2C002F0000E02BEDE
:100B7000FF0E036E046E010E84EC16F001C00FF040
:100B800002C010F003C011F004C012F04FEC0FF0DF
:100B90000FC028F010C029F011C02AF012C02BF0AD
:100BA00064EC11F028C045F029C046F02AC047F097
:100BB0002BC048F088C001F089C002F0000E02BED0
:100BC000FF0E036E046E010E84EC16F001C041F0BE
:100BD00002C042F003C043F004C044F0EFEC0CF05C
:100BE00041C051F042C052F043C053F044C054F0F1
:100BF0006AEC1AF051C088F052C089F0000189BF38
:100C00000AEF06F0895108E18805D8A00AEF06F03E
:100C10000CEF06F016EF06F0DF518A258A6FE051DF
:100C20008B218B6F000E896F000E886F74C001F0EE
:100C300075C002F076C003F077C004F0000E056EB8
:100C4000000E066E700E076E410E086EEDEC1AF087
:100C5000D8A02DEF06F02FEF06F05AEF08F00001B4
:100C6000DF4BE02BE1C001F0E2C002F0DFC003F097
:100C7000E0C004F020EC1DF001C0E1F002C0E2F0A1
:100C8000000E0001746F000E756F000E766F000E7F
:100C9000776F5AEF08F0D5C001F0D6C002F0000E11
:100CA000046E0C0E036E8BEC20F0F80E0124D96E4E
:100CB000050E0220DA6EDECF07F0DECF08F0DECFC1
:100CC00009F0DECF0AF0000E0B6E000E0C6E000E67
:100CD0000D6E000E0E6EDCEC1DF0D8A072EF06F06B
:100CE00074EF06F05AEF08F0010E0AEC20F0070E40
:100CF0000001D06F7D0EE82EFED7D02FFCD7DDC0CF
:100D000013F0DEC014F0000E0A6E000E096E82ECC5
:100D10001DF009C015F00AC016F05FEC20F0000EBF
:100D200059EC1FF0070E0001D06F7D0EE82EFED7A4
:100D3000D02FFCD7000E146E010E136EDBC015F021
:100D4000DCC016F05FEC20F0030E59EC1FF0070E2C
:100D50000001D06F7D0EE82EFED7D02FFCD7000EFD
:100D6000146E010E136E000E166E0C0E156E5FECF7
:100D700020F0AD0E586E000E596E2A0E5A6E080EF7
:100D80005B6E8AC05CF08BC05DF030EC1FF0AD0E86
:100D9000026E000E036E6CEC1EF0000E0A6E000E6A
:100DA000096E82EC1DF00001DB51091807E1DC51EE
:100DB0000A18D8A4DEEF06F0E0EF06F0EFEF06F039
:100DC000DD05DE11D8A4E7EF06F0E9EF06F0EFEF5E
:100DD00006F0DF518A5D8A6FE0518B598B6F000EF0
:100DE000046E0C0E036ED5C001F0D6C002F08BEC81
:100DF00020F0F00E0124D96E050E0220DA6EDECF4F
:100E000013F0DECF14F0DECF15F0DECF16F0E1C028
:100E100001F0E2C002F0000E02BEFF0E036E046E8F
:100E2000010E84EC16F001C00FF002C010F003C0F8
:100E300011F004C012F04FEC0FF00FC051F010C0D1
:100E400052F011C053F012C054F06AEC1AF051C0C5
:100E5000D3F052C0D4F0D3C0C4F0D4C0C5F0D5C0D4
:100E600001F0D6C002F0000E046E0C0E036E8BEC87
:100E700020F0F40E0124D96E050E0220DA6EDECFCA
:100E8000C6F0DECFC7F0DECFC8F0DECFC9F029EC68
:100E900018F0000E2C6E000E2D6E7A0E2E6E440E83
:100EA0002F6E000E046E0C0E036ED5C001F0D6C07E
:100EB00002F08BEC20F0F00E0124D96E050E02201A
:100EC000DA6EDECF13F0DECF14F0DECF15F0DECF1A
:100ED00016F0E1C001F0E2C002F0000E02BEFF0E0B
:100EE000036E046E010E84EC16F001C00FF002C018
:100EF00010F003C011F004C012F04FEC0FF00FC05F
:100F000028F010C029F011C02AF012C02BF064ECB8
:100F100011F028C041F029C042F02AC043F02BC094
:100F200044F074C045F075C046F076C047F077C015
:100F300048F0EFEC0CF041C074F042C075F043C0D3
:100F400076F044C077F0000E2C6E000E2D6E7A0EF7
:100F50002E6E440E2F6E000E046E0C0E036ED5C066
:100F600001F0D6C002F08BEC20F0F00E0124D96E17
:100F7000050E0220DA6EDECF13F0DECF14F0DECFE6
:100F800015F0DECF16F0E1C001F0E2C002F0000E75
:100F900002BEFF0E036E046E010E84EC16F001C05B
:100FA0000FF002C010F003C011F004C012F04FECBB
:100FB0000FF00FC028F010C029F011C02AF012C0A5
:100FC0002BF064EC11F028C045F029C046F02AC08F
:100FD00047F02BC048F088C001F089C002F0000E35
:100FE00002BEFF0E036E046E010E84EC16F001C00B
:100FF00041F002C042F003C043F004C044F0EFEC03
:101000000CF041C051F042C052F043C053F044C014
:1010100054F06AEC1AF051C088F052C089F0000117
:1010200089BF1BEF08F0895108E18805D8A01BEFA4
:1010300008F01DEF08F027EF08F0DF518A258A6FCE
:10104000E0518B218B6F000E896F000E886F74C08A
:1010500001F075C002F076C003F077C004F0000E16
:10106000056E000E066E700E076E410E086EEDECFA
:101070001AF0D8A03EEF08F040EF08F05AEF08F061
:101080000001DF4BE02BE1C001F0E2C002F0DFC065
:1010900003F0E0C004F020EC1DF001C0E1F002C05C
:1010A000E2F0000E0001746F000E756F000E766F97
:1010B000000E776F010E0AEC20F0070E0001D06FD2
:1010C0007D0EE82EFED7D02FFCD70001864B872B54
:1010D000DB07D8A0DC07000E8C6F0E0E8619871177
:1010E000D8A475EF08F077EF08F0D6EF0CF0010EFA
:1010F0008C6FD6EF0CF087BF80EF08F082EF08F01E
:10110000D6EF0CF0DCBF90EF08F0DC5107E10F0EDA
:10111000DB5DD8B08EEF08F090EF08F0D6EF0CF062
:101120008C05D8A496EF08F098EF08F0D6EF0CF0F5
:10113000D5C001F0D6C002F0000E046E0C0E036E96
:101140008BEC20F0F80E0124D96E050E0220DA6E29
:10115000DECF07F0DECF08F0DECF09F0DECF0AF0F9
:10116000000E0B6E000E0C6E800E0D6E3F0E0E6E9E
:10117000DCEC1DF0D8A0BFEF08F0C1EF08F0A9EF3C
:101180000AF0010E0AEC20F0070E0001D06F7D0E70
:10119000E82EFED7D02FFCD7DDC013F0DEC014F050
:1011A000000E0A6E000E096E82EC1DF009C015F0EB
:1011B0000AC016F05FEC20F0000E59EC1FF0070E8D
:1011C0000001D06F7D0EE82EFED7D02FFCD7000E89
:1011D000146E010E136EDBC015F0DCC016F05FEC70
:1011E00020F0010E59EC1FF0070E0001D06F7D0EAC
:1011F000E82EFED7D02FFCD7000E146E010E136E12
:10120000000E166E0C0E156E5FEC20F0AD0E586ED3
:10121000000E596E2A0E5A6E080E5B6E8AC05CF084
:101220008BC05DF030EC1FF0AD0E026E000E036E51
:101230006CEC1EF0000E0A6E000E096E82EC1DF0C2
:101240000001DB51091807E1DC510A18D8A42BEF83
:1012500009F02DEF09F03CEF09F0DD05DE11D8A40F
:1012600034EF09F036EF09F03CEF09F0DF518A5D09
:101270008A6FE0518B598B6F000E046E0C0E036E5B
:10128000D5C001F0D6C002F08BEC20F0F00E0124A6
:10129000D96E050E0220DA6EDECF13F0DECF14F029
:1012A000DECF15F0DECF16F0E1C001F0E2C002F0B3
:1012B000000E02BEFF0E036E046E010E84EC16F0EB
:1012C00001C00FF002C010F003C011F004C012F012
:1012D0004FEC0FF00FC051F010C052F011C053F09E
:1012E00012C054F06AEC1AF051C0D1F052C0D2F0E2
:1012F000D1C0C4F0D2C0C5F0D5C001F0D6C002F054
:10130000000E046E0C0E036E8BEC20F0F40E012424
:10131000D96E050E0220DA6EDECFC6F0DECFC7F042
:10132000DECFC8F0DECFC9F05EEC17F0000E2C6EF9
:10133000000E2D6E7A0E2E6E440E2F6E000E046E71
:101340000C0E036ED5C001F0D6C002F08BEC20F07D
:10135000F00E0124D96E050E0220DA6EDECF13F0F6
:10136000DECF14F0DECF15F0DECF16F0E1C001F0D5
:10137000E2C002F0000E02BEFF0E036E046E010E0C
:1013800084EC16F001C00FF002C010F003C011F0A1
:1013900004C012F04FEC0FF00FC028F010C029F07D
:1013A00011C02AF012C02BF064EC11F028C041F0FB
:1013B00029C042F02AC043F02BC044F074C045F06D
:1013C00075C046F076C047F077C048F0EFEC0CF0FF
:1013D00041C074F042C075F043C076F044C077F06D
:1013E000000E2C6E000E2D6E7A0E2E6E440E2F6E99
:1013F000000E046E0C0E036ED5C001F0D6C002F0D4
:101400008BEC20F0F00E0124D96E050E0220DA6E6E
:10141000DECF13F0DECF14F0DECF15F0DECF16F006
:10142000E1C001F0E2C002F0000E02BEFF0E036E4A
:10143000046E010E84EC16F001C00FF002C010F033
:1014400003C011F004C012F04FEC0FF00FC028F0F1
:1014500010C029F011C02AF012C02BF064EC11F07A
:1014600028C045F029C046F02AC047F02BC048F0FC
:1014700088C001F089C002F0000E02BEFF0E036EAC
:10148000046E010E84EC16F001C041F002C042F07F
:1014900003C043F004C044F0EFEC0CF041C051F045
:1014A00042C052F043C053F044C054F06AEC1AF00A
:1014B00051C088F052C089F0000189BF68EF0AF07E
:1014C000895108E18805D8A068EF0AF06AEF0AF0B0
:1014D00074EF0AF0DF518A258A6FE0518B218B6F00
:1014E000000E896F000E886F74C001F075C002F0A5
:1014F00076C003F077C004F0000E056E000E066E95
:10150000700E076E410E086EEDEC1AF0D8A08BEF4E
:101510000AF08DEF0AF0B8EF0CF00001DF4BE02B82
:10152000E1C001F0E2C002F0DFC003F0E0C004F06F
:1015300020EC1DF001C0E1F002C0E2F0000E00015D
:10154000746F000E756F000E766F000E776FB8EF38
:101550000CF0D5C001F0D6C002F0000E046E0C0EE7
:10156000036E8BEC20F0F80E0124D96E050E0220DC
:10157000DA6EDECF07F0DECF08F0DECF09F0DECF87
:101580000AF0000E0B6E000E0C6E000E0D6E000EBB
:101590000E6EDCEC1DF0D8A0D0EF0AF0D2EF0AF00E
:1015A000B8EF0CF0010E0AEC20F0070E0001D06F2E
:1015B0007D0EE82EFED7D02FFCD7DDC013F0DEC0A5
:1015C00014F0000E0A6E000E096E82EC1DF009C0C8
:1015D00015F00AC016F05FEC20F0000E59EC1FF079
:1015E000070E0001D06F7D0EE82EFED7D02FFCD75E
:1015F000000E146E010E136EDBC015F0DCC016F089
:101600005FEC20F0010E59EC1FF0070E0001D06FC7
:101610007D0EE82EFED7D02FFCD7000E146E010EE3
:10162000136E000E166E0C0E156E5FEC20F0AD0EF4
:10163000586E000E596E2A0E5A6E080E5B6E8AC0E6
:101640005CF08BC05DF030EC1FF0AD0E026E000E52
:10165000036E6CEC1EF0000E0A6E000E096E82EC3A
:101660001DF00001DB51091807E1DC510A18D8A46C
:101670003CEF0BF03EEF0BF04DEF0BF0DD05DE1114
:10168000D8A445EF0BF047EF0BF04DEF0BF0DF5117
:101690008A5D8A6FE0518B598B6F000E046E0C0EC1
:1016A000036ED5C001F0D6C002F08BEC20F0F00E36
:1016B0000124D96E050E0220DA6EDECF13F0DECFE4
:1016C00014F0DECF15F0DECF16F0E1C001F0E2C07D
:1016D00002F0000E02BEFF0E036E046E010E84ECDB
:1016E00016F001C00FF002C010F003C011F004C0EA
:1016F00012F04FEC0FF00FC051F010C052F011C0BB
:1017000053F012C054F06AEC1AF051C0D3F052C03A
:10171000D4F0D3C0C4F0D4C0C5F0D5C001F0D6C059
:1017200002F0000E046E0C0E036E8BEC20F0F40E33
:101730000124D96E050E0220DA6EDECFC6F0DECFB0
:10174000C7F0DECFC8F0DECFC9F029EC18F0000EEC
:101750002C6E000E2D6E7A0E2E6E440E2F6E000E25
:10176000046E0C0E036ED5C001F0D6C002F08BECF7
:1017700020F0F00E0124D96E050E0220DA6EDECFC5
:1017800013F0DECF14F0DECF15F0DECF16F0E1C09F
:1017900001F0E2C002F0000E02BEFF0E036E046E06
:1017A000010E84EC16F001C00FF002C010F003C06F
:1017B00011F004C012F04FEC0FF00FC028F010C071
:1017C00029F011C02AF012C02BF064EC11F028C0EF
:1017D00041F029C042F02AC043F02BC044F074C04D
:1017E00045F075C046F076C047F077C048F0EFECA2
:1017F0000CF041C074F042C075F043C076F044C0B4
:1018000077F0000E2C6E000E2D6E7A0E2E6E440EAA
:101810002F6E000E046E0C0E036ED5C001F0D6C004
:1018200002F08BEC20F0F00E0124D96E050E0220A0
:10183000DA6EDECF13F0DECF14F0DECF15F0DECFA0
:1018400016F0E1C001F0E2C002F0000E02BEFF0E91
:10185000036E046E010E84EC16F001C00FF002C09E
:1018600010F003C011F004C012F04FEC0FF00FC0E5
:1018700028F010C029F011C02AF012C02BF064EC3F
:1018800011F028C045F029C046F02AC047F02BC00F
:1018900048F088C001F089C002F0000E02BEFF0EC1
:1018A000036E046E010E84EC16F001C041F002C01C
:1018B00042F003C043F004C044F0EFEC0CF041C030
:1018C00051F042C052F043C053F044C054F06AECAF
:1018D0001AF051C088F052C089F0000189BF79EF39
:1018E0000CF0895108E18805D8A079EF0CF07BEF66
:1018F0000CF085EF0CF0DF518A258A6FE0518B21C7
:101900008B6F000E896F000E886F74C001F075C078
:1019100002F076C003F077C004F0000E056E000EF2
:10192000066E700E076E410E086EEDEC1AF0D8A030
:101930009CEF0CF09EEF0CF0B8EF0CF00001DF4BC9
:10194000E02BE1C001F0E2C002F0DFC003F0E0C034
:1019500004F020EC1DF001C0E1F002C0E2F0000E46
:101960000001746F000E756F000E766F000E776FBA
:10197000010E0AEC20F0070E0001D06F7D0EE82E5C
:10198000FED7D02FFCD700018607D8A08707DB4BF6
:10199000DC2B010E8C6F86518711D8A4D2EF0CF08E
:1019A000D4EF0CF0D6EF0CF0000E8C6FD54BD62B8D
:1019B000D6BFE4EF0CF0D65109E12C0ED55DD8A0CE
:1019C000E4EF0CF0E6EF0CF01DEF04F000018BBF2C
:1019D000EEEF0CF0ECEF0CF019EF04F012004450B5
:1019E000800B4D6E445044244F6E43AEFAEF0CF022
:1019F000FCEF0CF0FDEF0CF04F804F50D8B403EF2C
:101A00000DF005EF0DF01AEF0DF04F28D8A40BEFF5
:101A10000DF00DEF0DF015EF0DF0000E416E000E04
:101A2000426E000E436E000E446E438E000E446EF6
:101A300022EF0DF0000E416E000E426E000E436E5E
:101A4000000E446E4850800B4E6E4D504E18D8B468
:101A50002CEF0DF02EEF0DF02FEF0DF04D8C4850C8
:101A600048244E6E47AE37EF0DF039EF0DF03AEFE8
:101A70000DF04E804E50D8B440EF0DF042EF0DF017
:101A800057EF0DF04E28D8A448EF0DF04AEF0DF0B7
:101A900052EF0DF0000E456E000E466E000E476EC2
:101AA000000E486E478E000E486E5FEF0DF0000E80
:101AB000456E000E466E000E476E000E486E4F508B
:101AC0004E5CD8B066EF0DF068EF0DF08FEF0DF0C3
:101AD0004DAC6DEF0DF06FEF0DF071EF0DF0800E6E
:101AE0004D1A4FC050F04EC04FF050C04EF041C0A4
:101AF00050F045C041F050C045F042C050F046C0E3
:101B000042F050C046F043C050F047C043F050C0D0
:101B100047F044C050F048C044F050C048F0000EB8
:101B2000506E4F504EC049F04A6A495E000E4A5A04
:101B30004ABEA4EF0DF04A5009E11A0E495CD8A044
:101B4000A4EF0DF0A6EF0DF0DDEF0DF041504210C7
:101B500043104410D8A4AFEF0DF0B2EF0DF0010E1A
:101B6000B3EF0DF0000E506E000E416E000E426E8F
:101B7000000E436E000E446E4EC04FF0E6EF0DF0C7
:101B800050A0C5EF0DF0C7EF0DF0CDEF0DF0D890E0
:101B900050300109506ECFEF0DF0D890503241A077
:101BA000D4EF0DF0D6EF0DF0D7EF0DF0508E44349A
:101BB00044324332423241324F2A4E504F5CD8A019
:101BC000E4EF0DF0E6EF0DF0C0EF0DF04DBCEBEFE4
:101BD0000DF0EDEF0DF02DEF0EF04F50D8A4F3EF18
:101BE0000DF0F5EF0DF0FFEF0DF0000E416E000E61
:101BF000426E000E436E000E446E4EEF0FF04550E5
:101C0000412646504222475043224850442244A095
:101C10000CEF0EF00EEF0EF0BAEF0EF050A013EF37
:101C20000EF015EF0EF01BEF0EF0D89050300109BA
:101C3000506E1DEF0EF0D890503241A022EF0EF002
:101C400024EF0EF025EF0EF0508E44344432433230
:101C5000423241324F2ABAEF0EF04550415C4650B5
:101C60004258475043584450800A496E4850800AB1
:101C70004958D8B03EEF0EF040EF0EF06BEF0EF08B
:101C80004150455C496E425046584A6E4350475851
:101C90004B6E445048584C6EFF0E4924416EFF0E67
:101CA0004A20426EFF0E4B20436EFF0E4C20446EC6
:101CB000800E4D1A506C5050D8A461EF0EF063EFB7
:101CC0000EF073EF0EF0010E4126000E4222432269
:101CD000442273EF0EF04550415E4650425A475041
:101CE000435A4850445A4150421043104410D8A41B
:101CF0007CEF0EF07EEF0EF0B3EF0EF05050D8A454
:101D000084EF0EF086EF0EF0B3EF0EF0000E416E92
:101D1000000E426E000E436E000E446E4EEF0FF04A
:101D2000D890413642364336443650AE9AEF0EF0E4
:101D30009CEF0EF09DEF0EF0418050A0A2EF0EF050
:101D4000A4EF0EF0A8EF0EF0D8805036AAEF0EF0F8
:101D5000D89050364F50D8B4B0EF0EF0B2EF0EF02E
:101D6000B3EF0EF04F0643AEB8EF0EF0BAEF0EF041
:101D700090EF0EF0000E4E6E50AEC1EF0EF0C3EFBE
:101D80000EF0DBEF0EF050C049F07F0E4916D8B4CC
:101D9000CCEF0EF0CEEF0EF0D2EF0EF0010E4E6E45
:101DA000DBEF0EF041A0D7EF0EF0D9EF0EF0DBEF36
:101DB0000EF0CEEF0EF04E50D8B4E1EF0EF0E3EFA0
:101DC0000EF00EEF0FF0010E4126000E42224322CC
:101DD000442244A0EEEF0EF0F0EF0EF00EEF0FF005
:101DE00041C049F042C04AF043C04BF044C04CF0FF
:101DF0004C344C324B324A32493249C041F04AC02D
:101E000042F04BC043F04CC044F04F28D8B40BEF25
:101E10000FF00DEF0FF00EEF0FF04F2A4F28D8B450
:101E200014EF0FF016EF0FF01EEF0FF04F50D8A485
:101E30001CEF0FF01EEF0FF030EF0FF0000E416EB1
:101E4000000E426E000E436E000E446E4F50D8A43A
:101E50002CEF0FF02EEF0FF030EF0FF0000E4D6E65
:101E60004FA035EF0FF037EF0FF03AEF0FF0438E42
:101E70003BEF0FF0439ED8904F30446E4DAE43EF92
:101E80000FF045EF0FF046EF0FF0448E41C041F0E8
:101E900042C042F043C043F044C044F0120012502C
:101EA000800B1B6E12501224216E11AE5AEF0FF0F0
:101EB0005CEF0FF05DEF0FF021802150D8B463EF9D
:101EC0000FF065EF0FF078EF0FF02128D8A46BEF3B
:101ED0000FF06DEF0FF075EF0FF0000E0F6E000EAC
:101EE000106E000E116E000E126E118E80EF0FF04C
:101EF000000E0F6E000E106E000E116E000E126EB0
:101F00001650800B1B1A16501624206E15AE8BEF40
:101F10000FF08DEF0FF08EEF0FF020802050D8B42F
:101F200094EF0FF096EF0FF0A9EF0FF02028D8A450
:101F30009CEF0FF09EEF0FF0A6EF0FF0000E136E68
:101F4000000E146E000E156E000E166E158EB1EF9B
:101F50000FF0000E136E000E146E000E156E000EC4
:101F6000166E2050D8B4B7EF0FF0B9EF0FF0C1EFF5
:101F70000FF02150D8A4BFEF0FF0C1EF0FF0CBEF5F
:101F80000FF0000E0F6E000E106E000E116E000EA0
:101F9000126E63EF11F015500F02F3CF26F0F4CF5D
:101FA00027F026501C6E1D6A1E6A1F6A2750226E7B
:101FB000236A246A256A14501002F3CF26F0F4CF66
:101FC00027F026501C26000E1D221E221F222750FD
:101FD0002226000E23222422252213501102F3CFA1
:101FE00026F0F4CF27F026501C26000E1D221E22BC
:101FF0001F2227502226000E2322242225221EC023
:102000001FF01DC01EF01CC01DF01C6A13501002F2
:10201000F3CF26F0F4CF27F026501C2627501D22A0
:10202000000E1E22000E1F2214500F02F3CF26F0C6
:10203000F4CF27F026501C2627501D22000E1E220A
:10204000000E1F221EC01FF01DC01EF01CC01DF080
:102050001C6A13500F02F3CF26F0F4CF27F026505E
:102060001C2627501D22000E1E22000E1F22155076
:102070001002F3CF26F0F4CF27F026502226275067
:102080002322000E2422000E252214501102F3CF29
:1020900026F0F4CF27F02650222627502322000EC8
:1020A0002422000E252215501102F3CF26F0F4CF82
:1020B00027F02650176E2750186E196A1A6A19C031
:1020C0001AF018C019F017C018F0176A1750222616
:1020D00018502322195024221A5025221CC017F010
:1020E0001DC018F01EC019F01FC01AF0190E7EEFA7
:1020F00010F0D8901A32193218321732E82E79EFD0
:1021000010F01750222618502322195024221A505A
:1021100025221EC01FF01DC01EF01CC01DF01C6A31
:10212000205021C017F0186A1726000E1822820EC0
:102130001724266EFF0E1820276EB4EF10F0D890EB
:1021400022362336243625361FAEA9EF10F0ABEF2A
:1021500010F0ACEF10F02280D8901C361D361E36E1
:102160001F362606D8A0270624AEB9EF10F0BBEF25
:1021700010F09FEF10F0000E206E1FAEC2EF10F0B7
:10218000C4EF10F0E8EF10F0FF0E1C14176EFF0EF6
:102190001D14186EFF0E1E14196E7F0E1F141A6E7A
:1021A0001750181019101A10D8B4D9EF10F0DBEF2F
:1021B00010F0DFEF10F0010E206EE8EF10F022A01B
:1021C000E4EF10F0E6EF10F0E8EF10F0DBEF10F0C6
:1021D0002050D8B4EEEF10F0F0EF10F014EF11F043
:1021E000010E2226000E23222422252225A0FBEF09
:1021F00010F0FDEF10F014EF11F022C017F023C023
:1022000018F024C019F025C01AF01A341A32193205
:102210001832173217C022F018C023F019C024F06A
:102220001AC025F0264A272A27BE1FEF11F0275093
:1022300008E12628D8A01FEF11F021EF11F02BEFB5
:1022400011F0000E226E000E236E800E246E7F0EA3
:10225000256E59EF11F027BE38EF11F0275006E137
:102260002604D8B036EF11F038EF11F044EF11F03A
:10227000000E226E000E236E000E246E000E256EE0
:10228000000E1B6E59EF11F026C021F0FF0E221632
:10229000FF0E23167F0E2416000E251621A053EFE5
:1022A00011F055EF11F056EF11F0248ED890213037
:1022B000256E1B50251222C00FF023C010F024C041
:1022C00011F025C012F012002B50800B386E2B50ED
:1022D0002B243F6E2AAE6FEF11F071EF11F072EF09
:1022E00011F03F803F50D8B478EF11F07AEF11F041
:1022F0008FEF11F03F28D8A480EF11F082EF11F09A
:102300008AEF11F0000E286E000E296E000E2A6E64
:10231000000E2B6E2A8E000E2B6E97EF11F0000E22
:10232000286E000E296E000E2A6E000E2B6E2F50A6
:10233000800B381A2F502F24406E2EAEA2EF11F0D2
:10234000A4EF11F0A5EF11F040804050D8B4ABEFEE
:1023500011F0ADEF11F0C2EF11F04028D8A4B3EFA7
:1023600011F0B5EF11F0BDEF11F0000E2C6E000E64
:102370002D6E000E2E6E000E2F6E2E8E000E2F6E06
:10238000CAEF11F0000E2C6E000E2D6E000E2E6E98
:10239000000E2F6E2C502D102E102F10D8A4D3EF1E
:1023A00011F0D5EF11F0EDEF11F0000E286E000ED8
:1023B000296E000E2A6E000E2B6E800E2A127F0EE2
:1023C0002B1238502B1228C028F029C029F02AC01F
:1023D0002AF02BC02BF030EF13F03F50D8A4F3EFCE
:1023E00011F0F5EF11F0FFEF11F0000E286E000E66
:1023F000296E000E2A6E000E2B6E30EF13F0405047
:102400003FC030F0316A305E000E315A7F0E30240A
:10241000396E000E31203A6E28C034F029C035F0F4
:102420002AC036F02BC037F0000E286E000E296E41
:10243000000E2A6E000E2B6E000E3B6E000E3C6EE0
:10244000000E3D6E000E3E6E000E406E60EF12F00C
:102450004050D8B42EEF12F030EF12F047EF12F0E8
:10246000D8903436353636363736D8902836293631
:102470002A362B363EAE3FEF12F041EF12F042EF1C
:1024800012F02880D8903B363C363D363E362C50F4
:10249000345C2D5035582E5036582F503758D8A010
:1024A00054EF12F056EF12F05FEF12F03E8C2C500A
:1024B000345E2D50355A2E50365A2F50375A402AF6
:1024C000190E406466EF12F068EF12F028EF12F078
:1024D0003450351036103710D8B471EF12F073EF56
:1024E00012F08BEF12F03B808BEF12F0D890283671
:1024F00029362A362B363EAE80EF12F082EF12F0EC
:1025000083EF12F02880D8903B363C363D363E367D
:102510003906D8A03A062AAE90EF12F092EF12F0E8
:1025200076EF12F0000E406E3EAE99EF12F09BEF88
:1025300012F0BFEF12F0FF0E3B14306EFF0E3C1492
:10254000316EFF0E3D14326E7F0E3E14336E3050EE
:10255000311032103310D8B4B0EF12F0B2EF12F0E5
:10256000B6EF12F0010E406EBFEF12F028A0BBEFE5
:1025700012F0BDEF12F0BFEF12F0B2EF12F04050C8
:10258000D8B4C5EF12F0C7EF12F0EBEF12F0010E66
:102590002826000E29222A222B222BA0D2EF12F06D
:1025A000D4EF12F0EBEF12F028C030F029C031F078
:1025B0002AC032F02BC033F033343332323231326E
:1025C000303230C028F031C029F032C02AF033C098
:1025D0002BF0394A3A2A3ABEF6EF12F03A5008E1A7
:1025E0003928D8A0F6EF12F0F8EF12F003EF13F04D
:1025F000000E3A6E3968000E286E000E296E000E2D
:102600002A6E000E2B6E3ABE10EF13F03A5006E120
:102610003904D8B00EEF13F010EF13F01EEF13F0E3
:10262000000E3A6E000E396E000E286E000E296EF6
:10263000000E2A6E000E2B6E000E386E39C03FF071
:102640003FA025EF13F027EF13F02AEF13F02A8EA7
:102650002BEF13F02A9ED8903F302B6EE1EF11F054
:1026600012001EC036F01FC037F020C038F021C065
:1026700039F022C03AF023C03BF024C03CF025C022
:102680003DF03DBE46EF13F049EF13F0010E4AEF67
:1026900013F0000E346E356A34503510D8B453EF51
:1026A00013F055EF13F065EF13F03D1E3C1E3B1E7B
:1026B0003A1E391E381E371E366C000E372238225D
:1026C00039223A223B223C223D2200017DBF6BEFA2
:1026D00013F06DEF13F06EEF13F07E937DBF7BEF81
:1026E00013F07D5106E17C05D8B079EF13F07BEF54
:1026F00013F081EF13F0000E316E010E306E85EF96
:1027000013F07CC030F07DC031F07AC032F07BC075
:1027100033F034503510D8A490EF13F092EF13F04B
:1027200099EF13F07EA597EF13F099EF13F09CEF5C
:1027300013F03206D8A03306000E3F6E1F0E3E6E19
:10274000000EAC6F20EF14F03E06D8A03F068D0EB1
:102750003E24D96E000E3F20DA6E36C001F037C03D
:1027600002F038C003F039C004F03AC005F03BC0B5
:1027700006F03CC007F03DC008F00A0E096E000EDE
:102780000A6E000E0B6E000E0C6E000E0D6E000E2B
:102790000E6E000E0F6E000E106EB8EC19F001C038
:1027A00026F002C027F003C028F004C029F005C0BD
:1027B0002AF006C02BF007C02CF008C02DF026C070
:1027C00013F028C014F0EAEC1FF01350300FDF6E46
:1027D0003006D8A031063206D8A0330636C001F044
:1027E00037C002F038C003F039C004F03AC005F039
:1027F0003BC006F03CC007F03DC008F00A0E096E71
:10280000000E0A6E000E0B6E000E0C6E000E0D6EAA
:10281000000E0E6E000E0F6E000E106EF4EC18F02F
:1028200001C036F002C037F003C038F004C039F000
:1028300005C03AF006C03BF007C03CF008C03DF0D0
:102840003FBE2BEF14F03F5008E13E04D8A02BEF21
:1028500014F02DEF14F05EEF14F0365037103810EE
:1028600039103A103B103C103D10D8A43AEF14F048
:102870003CEF14F0A4EF13F031BE49EF14F03150E7
:1028800006E13004D8B047EF14F049EF14F0A4EF9C
:1028900013F033BE54EF14F0335008E13204D8A0E3
:1028A00054EF14F056EF14F05EEF14F000017EB315
:1028B0005CEF14F05EEF14F0A4EF13F03450351019
:1028C000D8A465EF14F067EF14F06FEF14F0000177
:1028D0007EA56DEF14F06FEF14F08DEF14F03E064F
:1028E000D8A03F0634503510D8A479EF14F07BEF10
:1028F00014F081EF14F0000E2F6E2B0E2E6E85EF6C
:1029000014F0000E2F6E2D0E2E6E8D0E3E24D96EFD
:10291000000E3F20DA6E2EC0DFFF1CC011F01DC07C
:1029200012F08D0E3E24136E000E3F20146E32C046
:1029300015F033C016F0BDEC1CF011C01CF012C035
:102940001DF012000000803F0E2D42400000803F2D
:102950000000803F0E2D42400000803F0000803F7D
:102960000E2D42400000803F0000403FE17A74405D
:102970000000803F0000803E333323400000803F52
:102980000000803F0E2D42400000803F0000403F8D
:10299000E17A74400000803F0000803E964323406F
:1029A0000000803F0000803F0E2D42400000803F2D
:1029B0000000803FC1CA01400000803F0000803F0E
:1029C000C1CA01400000803F0000803FC1CA0140F1
:1029D0000000803F0000403FA69BF43F0000803F86
:1029E0000000803E964323400000803F0000803F6F
:1029F0003D0A67400000803F0000403FE17A74409C
:102A00000000803F0000803E964323400000803F4E
:102A10000000803F0E2D42400000803F0000803FBC
:102A20000E2DC23F0000803F0000403F0E2D42406F
:102A30000000803F0000803E0E2D42400000803F9D
:102A40000000803F0E2DC23F0000803F0000403F4D
:102A50002DB2CD3F0000803F0000803EE7FBD93F14
:102A60000000803F0000803E79E9E63F0000803FA3
:102A70000000803EA69BF43F0000803F9A99193FDA
:102A800079E9E63F0000803FCDCC4C3E0000803F1E
:102A9000000000009A99193F643B37400000803FD6
:102AA0000000803FAE4709400000803F0000403FEB
:102AB000D57811400000803F0000803EAC1C1A40D9
:102AC0000000803F0000803E964323400000803F8E
:102AD0000000803EF4FD2C400000803F9A99193F91
:102AE000964323400000803FCDCC4C3E0000803F09
:102AF000000000009A99193FA69B74400000803F97
:102B00000000803F79E966400000803F0000403FC0
:102B1000A69B74400000803F0000803E9643234007
:102B20000000803F0000803F0E2D42400000803FAB
:102B30000000403FA69B74400000803F0000803EA4
:102B4000964323400000803F0000803F0E2D42400E
:102B50000000803F42C0D9FF43C0DAFFDECFF6FF5E
:102B6000DDCFF7FF0800F550250AD8A4BAEF15F01D
:102B7000BCEF15F068EF16F042C0D9FF43C0DAFF92
:102B8000DE2A000EDD22000E00017B6F000E7A6F40
:102B90007AC07EF07BC07FF07C697D6942C0D9FF3E
:102BA00043C0DAFFDECFF6FFDDCFF7FF0800F550B8
:102BB000640AD8B4DEEF15F0E0EF15F0F2EF15F08F
:102BC00042C0D9FF43C0DAFFDECFF6FFDDCFF7FF0B
:102BD0000800F550690AD8A4F0EF15F0F2EF15F0EF
:102BE00032EF16F042C0D9FF43C0DAFFDE2A000EF2
:102BF000DD2244C0D9FF45C0DAFFDFCF46F0020E28
:102C0000DE26DFCF47F0000EDD2246C0D9FF47C0E9
:102C1000DAFFDECF48F0DDCF49F0000E49BEFF0EEF
:102C20004A6E4B6E4C6E4D6E4E6E4F6E40C01CF039
:102C300041C01DF048C01EF049C01FF04AC020F03E
:102C40004BC021F04CC022F04DC023F04EC024F008
:102C50004FC025F031EC13F01CC040F01DC041F016
:102C600083EF16F042C0D9FF43C0DAFFDECFF6FF94
:102C7000DDCFF7FF0800F550250AD8A442EF16F083
:102C800044EF16F05BEF16F042C0D9FF43C0DAFF05
:102C9000DE2A000EDD22000E026E250E016E40C0FF
:102CA00003F041C004F058EC1CF0000E416E010E20
:102CB000406E83EF16F042C0D9FF43C0DAFFDE2A30
:102CC000000EDD22000E416E000E406E83EF16F006
:102CD00042C0D9FF43C0DAFFDECFF6FFDDCFF7FFFA
:102CE0000800F550016E026A40C003F041C004F0D4
:102CF00058EC1CF042C0D9FF43C0DAFFDE2A000EB8
:102D0000DD2255EF16F01200096E0950D8B48BEF92
:102D100016F08DEF16F0AFEF16F004BE94EF16F03C
:102D200092EF16F0AFEF16F001C005F002C006F00A
:102D300003C007F004C008F0051E061E071E081E8B
:102D4000052A000E06220722082205C00BF006C045
:102D50000CF007C00DF008C00EF0B7EF16F001C080
:102D60000BF002C00CF003C00DF004C00EF00150D7
:102D7000021003100410D8A4C0EF16F0C2EF16F032
:102D8000CCEF16F0000E016E000E026E000E036E08
:102D9000000E046E5DEF17F0960E0A6ED6EF16F079
:102DA0000A2AD8900E320D320C320B32000E0B1460
:102DB000056E000E0C14066E000E0D14076EFE0E4E
:102DC0000E14086E0550061007100810D8A4EBEF7B
:102DD00016F0EDEF16F0D0EF16F0FBEF16F00A2A22
:102DE000010E0B26000E0C220D220E22D8900E3260
:102DF0000D320C320B32000E0B14056E000E0C144B
:102E0000066E000E0D14076EFF0E0E14086E0550B0
:102E1000061007100810D8A410EF17F012EF17F0E3
:102E2000EFEF16F01AEF17F00A06D8900B360C36B3
:102E30000D360E360DBE1FEF17F021EF17F029EFFC
:102E400017F0020E0A6027EF17F029EF17F014EFC2
:102E500017F00AB02EEF17F030EF17F031EF17F040
:102E60000D9ED8900A320AC005F0066A076A086A01
:102E700005C008F0076A066A056A05500B1206507D
:102E80000C1207500D1208500E120950D8B44BEF17
:102E900017F04DEF17F055EF17F004BE54EF17F091
:102EA00052EF17F055EF17F00E8E0BC001F00CC06B
:102EB00002F00DC003F00EC004F01200C6C02CF0EA
:102EC000C7C02DF0C8C02EF0C9C02FF0C4C001F09B
:102ED000C5C002F0000E02BEFF0E036E046E010EAE
:102EE00084EC16F001C028F002C029F003C02AF0DB
:102EF00004C02BF064EC11F028C051F029C052F04E
:102F00002AC053F02BC054F06AEC1AF051C0CEF036
:102F100052C0CFF0000E2C6E000E2D6E000E2E6EE5
:102F2000400E2F6EC6C028F0C7C029F0C8C02AF0D6
:102F3000C9C02BF064EC11F028C0CAF029C0CBF056
:102F40002AC0CCF02BC0CDF0000E516E000E526E98
:102F50007F0E536E430E546E170E2C6EB70E2D6EF1
:102F6000D10E2E6E3C0E2F6ECAC028F0CBC029F0B9
:102F7000CCC02AF0CDC02BF064EC11F028C055F085
:102F800029C056F02AC057F02BC058F082EC1FF031
:102F900051C0C6F052C0C7F053C0C8F054C0C9F009
:102FA000000E0001836F000E826F19EF18F081A0F0
:102FB000DCEF17F0DEEF17F0E4EF17F0000EDE6F36
:102FC000000EDD6FE8EF17F0000EDE6F010EDD6F13
:102FD0008182C6C051F0C7C052F0C8C053F0C9C00A
:102FE00054F06AEC1AF051C0D6FF52C0D7FFF2A4D9
:102FF000FCEF17F0FEEF17F0F7EF17F0F294819265
:10300000C6C051F0C7C052F0C8C053F0C9C054F098
:103010006AEC1AF051C0D6FF52C0D7FFF2A413EFEA
:1030200018F015EF18F00EEF18F0F2940001824B33
:10303000832BCE51825D8351800A5B6ECF51800A13
:103040005B58D8A026EF18F028EF18F0D7EF17F04C
:103050001200C6C02CF0C7C02DF0C8C02EF0C9C0E9
:103060002FF0C4C001F0C5C002F0000E02BEFF0E7A
:10307000036E046E010E84EC16F001C028F002C04D
:1030800029F003C02AF004C02BF064EC11F028C032
:1030900051F029C052F02AC053F02BC054F06AEC12
:1030A0001AF051C0C4F052C0C5F0000E2C6E000ED4
:1030B0002D6E000E2E6E400E2F6EC6C028F0C7C0BB
:1030C00029F0C8C02AF0C9C02BF064EC11F028C068
:1030D0005CF029C05DF02AC05EF02BC05FF0000EEE
:1030E000516E000E526E7F0E536E430E546E170ECD
:1030F0002C6EB70E2D6ED10E2E6E3C0E2F6E5CC058
:1031000028F05DC029F05EC02AF05FC02BF064ECAF
:1031100011F028C055F029C056F02AC057F02BC036
:1031200058F082EC1FF051C0C6F052C0C7F053C037
:10313000C8F054C0C9F0000E0001836F000E826F0A
:10314000E4EF18F081A0A7EF18F0A9EF18F0AFEFA7
:1031500018F0000EDE6F000EDD6FB3EF18F0000EFA
:10316000DE6F010EDD6F8192C6C051F0C7C052F014
:10317000C8C053F0C9C054F06AEC1AF051C0D6FF71
:1031800052C0D7FFF2A4C7EF18F0C9EF18F0C2EF92
:1031900018F0F2948192C6C051F0C7C052F0C8C076
:1031A00053F0C9C054F06AEC1AF051C0D6FF52C0B7
:1031B000D7FFF2A4DEEF18F0E0EF18F0D9EF18F027
:1031C000F2940001824B832BC451825D8351800AAB
:1031D0005B6EC551800A5B58D8A0F1EF18F0F3EF91
:1031E00018F0A2EF18F01200000E126E10BEFDEFE4
:1031F00018F0FBEF18F00FEF19F0101E0F1E0E1E47
:103200000D1E0C1E0B1E0A1E096C000E0A220B223C
:103210000C220D220E220F221022010E126E08BE69
:1032200016EF19F014EF19F028EF19F0081E071E19
:10323000061E051E041E031E021E016C000E022245
:10324000032204220522062207220822010E121A56
:1032500020EE13F0070EDE6AE806FDE209500A10C0
:103260000B100C100D100E100F101010D8B43BEFF7
:1032700019F03DEF19F08FEF19F0010E116E4BEFC1
:1032800019F0D89009360A360B360C360D360E3644
:103290000F361036112A10AE50EF19F052EF19F018
:1032A00041EF19F0D8901336143615361636173606
:1032B000183619361A360950015C0A5002580B505C
:1032C00003580C5004580D5005580E5006580F5016
:1032D000075810500858D8A070EF19F072EF19F085
:1032E00083EF19F00950015E0A50025A0B50035A3D
:1032F0000C50045A0D50055A0E50065A0F50075ADA
:103300001050085A1380D89010320F320E320D32FE
:103310000C320B320A320932112E52EF19F01250D0
:10332000D8B495EF19F097EF19F0A7EF19F01A1E1E
:10333000191E181E171E161E151E141E136C000EC5
:103340001422152216221722182219221A2213C01B
:1033500001F014C002F015C003F016C004F017C04D
:1033600005F018C006F019C007F01AC008F01200E6
:10337000000E126E08BEC1EF19F0BFEF19F0D3EFC7
:1033800019F0081E071E061E051E041E031E021E3F
:10339000016C000E022203220422052206220722CB
:1033A0000822010E126E10BEDAEF19F0D8EF19F0F4
:1033B000EAEF19F0101E0F1E0E1E0D1E0C1E0B1E26
:1033C0000A1E096C000E0A220B220C220D220E226C
:1033D0000F22102209500A100B100C100D100E10A5
:1033E0000F101010D8B4F7EF19F0F9EF19F041EF02
:1033F0001AF0010E116E07EF1AF0D89009360A364E
:103400000B360C360D360E360F361036112A10AE2E
:103410000CEF1AF00EEF1AF0FDEF19F00950015CF5
:103420000A5002580B5003580C5004580D500558C0
:103430000E5006580F50075810500858D8A023EFC8
:103440001AF025EF1AF035EF1AF00950015E0A5014
:10345000025A0B50035A0C50045A0D50055A0E5084
:10346000065A0F50075A1050085AD89010320F328F
:103470000E320D320C320B320A320932112E0EEF9F
:103480001AF01250D8B447EF1AF049EF1AF059EF7A
:103490001AF0081E071E061E051E041E031E021E2D
:1034A000016C000E022203220422052206220722BA
:1034B000082201C001F002C002F003C003F004C002
:1034C00004F005C005F006C006F007C007F008C00C
:1034D00008F01200533454345A6E5A50D8A473EF83
:1034E0001AF075EF1AF07FEF1AF0000E516E000E11
:1034F000526E000E536E000E546EECEF1AF051C077
:1035000055F052C056F053C057F054C058F0200E3A
:103510008FEF1AF0D8905832573256325532E82E83
:103520008AEF1AF05550596E538EFF0E5116FF0E4A
:103530005216FF0E5316000E5416960E5A5E5ABEC1
:10354000A6EF1AF0A4EF1AF0BCEF1AF05A50800A56
:10355000970FD8B0AEEF1AF0B0EF1AF0B2EF1AF042
:1035600075EF1AF0D89054325332523251325A3EDB
:10357000B2EF1AF0D4EF1AF01F0E5A64C2EF1AF02D
:10358000C4EF1AF0CCEF1AF075EF1AF0D89051365C
:103590005236533654365A065A50D8A4D2EF1AF03F
:1035A000D4EF1AF0C6EF1AF05950D8B4DAEF1AF087
:1035B000DCEF1AF0E4EF1AF0541E531E521E516C49
:1035C000000E52225322542251C051F052C052F0E8
:1035D00053C053F054C054F01200000E0114096E91
:1035E000000E02140A6E800E03140B6E7F0E04147C
:1035F0000C6E09500A100B100C10D8A402EF1BF02F
:1036000004EF1BF00CEF1BF0000E016E000E026EBB
:10361000000E036E000E046E000E0514096E000EFF
:1036200006140A6E800E07140B6E7F0E08140C6EC3
:1036300009500A100B100C10D8A421EF1BF023EF37
:103640001BF02BEF1BF0000E056E000E066E000E39
:10365000076E000E086E04AE30EF1BF032EF1BF069
:103660003BEF1BF0016C021ED8B0022A031ED8B03B
:10367000032A800E045608AE40EF1BF042EF1BF009
:103680004BEF1BF0056C061ED8B0062A071ED8B0FB
:10369000072A800E0856000E011A000E021A000EAC
:1036A000031A800E041A000E051A000E061A000EE8
:1036B000071A800E081A0550015C06500258075080
:1036C000035808500458D8B068EF1BF06AEF1BF09D
:1036D0006DEF1BF0D8906EEF1BF0D8801200056ED6
:1036E000F00E8316F00E9516959C959A95988C9CE5
:1036F0008C9A8C98BFEC20F0300E0AEC20F000D0B1
:1037000000D000F0300E0AEC20F000D000D000F025
:10371000320E0AEC20F0A5EC1FF00009D8A493EFBC
:103720001BF095EF1BF08BEF1BF0A5EC1FF00009D1
:10373000D8A49DEF1BF09FEF1BF095EF1BF00550F9
:103740000AEC20F0A5EC1FF00009D8A4AAEF1BF0AA
:10375000ACEF1BF0A2EF1BF0080E0AEC20F0A5EC7A
:103760001FF00009D8A4B7EF1BF0B9EF1BF0AFEFC3
:103770001BF00F0E0AEC20F0A5EC1FF00009D8A4F6
:10378000C4EF1BF0C6EF1BF0BCEF1BF0010E0AEC00
:1037900020F0A5EC1FF00009D8A4D1EF1BF0D3EF67
:1037A0001BF0C9EF1BF0040E0AEC20F0A5EC1FF093
:1037B0000009D8A4DEEF1BF0E0EF1BF0D6EF1BF002
:1037C000800E03EC1FF012000F0EC16E000E000100
:1037D000DA6F000ED96FABEC20F0B6EC20F0110ED2
:1037E000926EFD0E936E070E0001E26FD00EE16F38
:1037F00077EC20F0010E0AEC20F0010E056E080EA9
:10380000066E000E076E44EC20F0120E056E080ED8
:10381000066E010E076E44EC20F00A0E056E080ECF
:10382000066E030E076E44EC20F00D0E0001D86FFB
:10383000AF0ED76FB60EE82EFED7D72FFCD7D82FF6
:10384000FAD700F0010E0AEC20F0070E0001D76F46
:103850007D0EE82EFED7D72FFCD71A0E026E080E6B
:10386000036E6CEC1EF04AEF1CF017EC04F081A024
:103870003CEF1CF03EEF1CF045EF1CF0000E000189
:10388000DA6F000ED96F4AEF1CF0000E0001DA6FFC
:10389000020ED96F0001D951DA11D8B452EF1CF0E1
:1038A00054EF1CF035EF1CF022EF1CF000EF00F09D
:1038B00003500410D8B45FEF1CF061EF1CF06AEF06
:1038C0001CF003500410D8A468EF1CF06AEF1CF041
:1038D0006FEF1CF00150CAEC20F0BCEF1CF020EEA2
:1038E00004F00350D9260450DA22DE50DE10D8B49A
:1038F0007CEF1CF07EEF1CF099EF1CF020EE04F042
:103900000350D9260450DA2210EE02F00350E126CB
:103910000450E222DE50E65CE650800A096EDE507A
:10392000800A0958D8B097EF1CF099EF1CF0BCEF53
:103930001CF020EE02F00350D9260450DA22DECF2C
:1039400005F0DDCF06F003C0D9FF04C0DAFFDECFFB
:1039500007F0DDCF08F005500724D96E0650082087
:10396000DA6E01C0DFFF20EE02F00350D9260450CA
:10397000DA22DE2A000EDD22120000017EA1C3EF52
:103980001CF0C5EF1CF0CFEF1CF013C00AF014C000
:103990000BF011C00CF012C00DF0C8EC1FF016BEF9
:1039A000D4EF1CF0D6EF1CF0DCEF1CF015C01AF0C1
:1039B00016C01BF0E0EF1CF0000E1B6E000E1A6E1E
:1039C000000E196E000E186EF2EF1CF0000E026E63
:1039D000200E016E11C003F012C004F058EC1CF070
:1039E000184A192A1A50185C1950800A176E1B5071
:1039F000800A1758D8A0FFEF1CF001EF1DF0E6EF8A
:103A00001CF000017EB107EF1DF009EF1DF013EF70
:103A10001DF013C00AF014C00BF011C00CF012C05E
:103A20000DF0C8EC1FF013C001F014C002F029EC37
:103A300020F01A500124116E1B500220126E120049
:103A4000000E066E04BE29EF1DF027EF1DF02FEFCC
:103A50001DF0036C041ED8B0042A010E066E02BECF
:103A600036EF1DF034EF1DF03CEF1DF0016C021E2F
:103A7000D8B0022A010E061A000E086E000E076E5C
:103A800003500410D8B447EF1DF049EF1DF071EF5B
:103A90001DF0010E056E51EF1DF0D890033604366F
:103AA000052A04AE56EF1DF058EF1DF04DEF1DF046
:103AB000D890073608360350015C04500258D8A04D
:103AC00064EF1DF066EF1DF06BEF1DF00350015E1B
:103AD0000450025A0780D89004320332052E58EF62
:103AE0001DF00650D8B477EF1DF079EF1DF07DEF93
:103AF0001DF0076C081ED8B0082A07C001F008C0E6
:103B000002F0120009C00BF0D8900B36D8900B369B
:103B10003C0E0B16C250C30B0B10C26EC2B293EF19
:103B20001DF097EF1DF00B6A0B2A98EF1DF00B6A42
:103B3000010E0C6E0B2A9FEF1DF0D8900C360B2E49
:103B40009DEF1DF0C2B0A7EF1DF0ABEF1DF00D6AA9
:103B50000D2AACEF1DF00D6A010E0E6E0D2AB3EFAB
:103B60001DF0D8900E360D2EB1EF1DF00E500C103A
:103B7000C212C2B2BEEF1DF0C0EF1DF0B9EF1DF0D2
:103B8000C4500C6E0B6AC3500B240F6E000E0C2039
:103B9000106E0FC001F010C002F0000E046E400E57
:103BA000036E20EC1DF001C011F002C012F011C034
:103BB00009F012C00AF01200000E07140F6E000E7A
:103BC0000814106E800E0914116E7F0E0A14126E06
:103BD0000F50101011101210D8A4F1EF1DF0F3EFD8
:103BE0001DF0FBEF1DF0000E076E000E086E000EBC
:103BF000096E000E0A6E000E0B140F6E000E0C14F0
:103C0000106E800E0D14116E7F0E0E14126E0F507A
:103C1000101011101210D8A410EF1EF012EF1EF0A9
:103C20001AEF1EF0000E0B6E000E0C6E000E0D6EE5
:103C3000000E0E6E0B5007180FE10C5008180CE127
:103C40000D50091809E10E500A18D8B42AEF1EF0D9
:103C50002CEF1EF02FEF1EF0D89030EF1EF0D88022
:103C60001200046EA5EC1FF00009D8A43AEF1EF074
:103C70003CEF1EF032EF1EF0F00E9516F00E83169C
:103C80000450016E026A400E0112000E0212040E70
:103C9000036E023402320132032E49EF1EF001504E
:103CA0000F0B83128C9C8C9A00D000D000F08C8873
:103CB00000D000D000F08C98F00E831604500F0B4B
:103CC000831200D000D000F08C8800D000D000F02B
:103CD0008C980F0E951212008CEF1EF0A5EC1FF0C1
:103CE0000009D8A476EF1EF078EF1EF06EEF1EF0FC
:103CF00002C0F6FF03C0F7FFF86A070EF76403D0AF
:103D00000800F55005D0F6CFE1FFF7CFE2FFE7500E
:103D100059EC1FF0024A032A02C0F6FF03C0F7FF66
:103D2000F86A070EF76403D00800F55005D0F6CF07
:103D3000E1FFF7CFE2FFE7500009D8A4A2EF1EF0A1
:103D4000A4EF1EF06EEF1EF0120052C056F053C0EA
:103D500057F0000E0001796F000E786FC3EF1EF070
:103D600050C040F051C041F0560E426E000E436EFE
:103D700054C044F055C045F0AAEC15F04050000185
:103D800078274150792356C0F6FF57C0F7FF080047
:103D9000F5500009D8A4CFEF1EF0D1EF1EF0B0EF20
:103DA0001EF078C050F079C051F01200440EF66E4B
:103DB000290EF76E000EF86E05EEF0F012EE10F020
:103DC0000900F5CFEEFFE550E150FAE1E250F8E1ED
:103DD0008E0EF66E410EF76E000EF86E00EEDBF002
:103DE00010EE06F00900F5CFEEFFE550E150FAE1E4
:103DF00000EE60F0640EEE6AE806FDE1000EF86E7B
:103E00000001E4EF1BF0046EF00E9516F00E831621
:103E10000450016E026A800E0112000E0212040E9E
:103E2000036E023402320132032E11EF1FF00150F3
:103E30000F0B83128C9C8C9A9EEC20F08C889EEC4D
:103E400020F08C98F00E831604500F0B83129EEC1A
:103E500020F08C889EEC20F08C980F0E95121200AA
:103E60005C0E0001C46F000EC56F58C0C6F059C08B
:103E7000C7F0000EC96F000EC86F000ECB6F000EAA
:103E8000CA6FC60E506E000E516E5AC052F05BC023
:103E900053F0C40E546E000E556EA5EC1EF00001DA
:103EA000C8515824D96EC9515920DA6E000EDF6E00
:103EB0001200016EA5EC1FF00009D8A462EF1FF0FC
:103EC00064EF1FF05AEF1FF0F00E9516F00E8316F8
:103ED00001380F0B0F0B83128C8A8C9C9EEC20F008
:103EE0008C889EEC20F08C98F00E831601500F0BFE
:103EF00083129EEC20F08C889EEC20F08C980F0EA4
:103F000095121200000E551A000E561A000E571A7E
:103F1000800E581A51C041F052C042F053C043F0D5
:103F200054C044F055C045F056C046F057C047F065
:103F300058C048F0EFEC0CF041C051F042C052F0D4
:103F400043C053F044C054F012008C8C8C9A9EEC09
:103F500020F08C889EEC20F083A6B1EF1FF0B3EF29
:103F60001FF0BEEF1FF08C989EEC20F08C889EEC2A
:103F700020F08C988C9C010EC7EF1FF08C989EEC63
:103F800020F08C889EEC20F08C988C9C000E120007
:103F9000000E106E000E0F6ED9EF1FF00EC001F074
:103FA000026A0CC003F00DC004F058EC1CF00F4A7C
:103FB000102A0F500A24D96E10500B20DA6EDF50F1
:103FC0000E6E0E50D8A4E7EF1FF0E9EF1FF0CEEF12
:103FD0001FF0120014BEF7EF1FF0145006E1130497
:103FE000D8B0F5EF1FF0F7EF1FF005EF20F013C08A
:103FF00015F014C016F0151E161E154A162A15C007
:1040000013F016C014F009EF20F013C013F014C021
:1040100014F01200016EF00E9516F00E83160138A2
:104020000F0B0F0B83128C9C8C9A9EEC20F08C88CB
:104030009EEC20F08C98F00E831601500F0B83122B
:104040009EEC20F08C889EEC20F08C980F0E951240
:10405000120001C003F002C004F031EF20F0014A69
:10406000022A01C0D9FF02C0DAFFDF50D8A43BEF1B
:1040700020F03DEF20F02FEF20F00350015C016EA7
:1040800004500258026E12000750080DF35031EC34
:104090001EF0000E086E05C0F6FF06C0F7FF080010
:1040A000F55059EC1FF0054A062A082A070E086445
:1040B0005CEF20F05EEF20F04BEF20F0120014BE1A
:1040C0006AEF20F0145008E11304D8A06AEF20F042
:1040D0006CEF20F072EF20F01550C00F0AEC20F0CA
:1040E00076EF20F01550800F0AEC20F01200280E19
:1040F0006FEC1BF0A5EC1FF00009D8A482EF20F0B4
:1041000084EF20F07AEF20F0060E0AEC20F00C0E7F
:104110000AEC20F0120001500302F3CF05F0F4CFB7
:1041200006F001500402F350062602500302F35039
:10413000062605C001F006C002F0120000F000F0F3
:1041400000F000F000F000F000F000F000F000F0EF
:1041500000F000F01200D58ED58CD59AD598D59662
:10416000D550F80B0609D56EF28A12000E0EC16EFC
:10417000BA0EC06E000EC46E000EC36E1200620E48
:10418000016E660EE82EFED7012EFCD712000F003E
:0641900001000100120015
:020000040020DA
:08000000FFFFFFFFFFFFFFFF00
:020000040030CA
:0E000000240C1F1FFF8385FF0FC00FE00F4071
:00000001FF
